:020000040000FA
:06000000020AE9020212EF
:03002B000208A325
:0300530002013275
:03006B000204F498
:1000830002019C010101FF050301ED11ED11ED11C9
:10009300ED11A3109D10ED11E220000000001E20C1
:1000A300000000000C0000000C0001FFFF01010133
:1000B30000DA040000002D05B801020200881006D2
:1000C3000502070401051E02051E020A0A03B80BF6
:1000D30002803E010201FFFF020A011401E0965172
:1000E300180002020612FF0C01D71BDD1BE31BE9FC
:1000F3001B000000000000000000000000000000E2
:1001030000000000000000102020202020202020DC
:1001130020202020202020200101200401030500AD
:1001230005738001F680010800EF540A290B00C013
:10013300E074F1120495A2AFE433FED2AFE5A7FF5A
:10014300E5A1F5085FF50974105509600612189BBF
:1001530075A1EF7408550960081218A175A1F780FD
:100163002BEFA2E0C0D0E508A2E092F0120A5F15DF
:100173008182F05017906198E0F89005FAE0C398F7
:10018300A2D265D0335002E8F075A1FE751A00EED5
:10019300A2E092AF7F0202054FC0E074F212049511
:1001A300A2AFE433FED2AF9061A4E0F8759B00E503
:1001B3009158540860087591F71218E3802AE59165
:1001C30058541060087591EF1218E9801BE8A2E0FB
:1001D300C0D0E591A2E092F0120A5F158182F0503F
:1001E30007E0C2E0F0121A2D9061A3E0F8E5E958A8
:1001F3005404600E121A0375E9FB906193E0A2E6C2
:1002030040F2751A00EEA2E092AF7F0102054FC0E3
:10021300E074F2120495A2AFE433FED2AF9061A56D
:10022300E0F8E5BF585404600675BFFB121A3F801F
:10023300D1C3E498F8E499F91202758026C3E49ACD
:10024300FAE49BFBE920E7E9120275E498F8E499E4
:10025300F922C3E498F8E499F9120275E498F8E4F2
:1002630099F9C3E49AFAE49BFB22EB20E7CFE92058
:10027300E7E0B90010BB0008E88AF084F8AAF0228E
:10028300E4FBC8FA22EB70227B10C833C8C933C918
:10029300335007C39AC3DBF280069A50012ADBEA84
:1002A300C833F4C8C933F4C9FA2275F008E4C83373
:1002B300C8C933C933C99AC99B5004C92AC93BD594
:1002C300F0ECFBC833F4C8E4C9FA22080808EAC012
:1002D300E0EBC0E086F0E7A4FA180986F0E7A42A69
:1002E300FA180986F0E7A42AFA180986F0E7A42A7F
:1002F300FA1986F0E7A4FBE5F02AFA190886F0E775
:10030300A42BFBE5F03AFA190886F0E7A42BFBE5EA
:10031300F03AFA18180986F0E7A4C5F02BFBE43A83
:10032300FA1908E7C5F0C6A426F6E5F03BFBE43A64
:10033300FA1886F0E7A4F6E5F00826F6E43B08F69B
:10034300E43A08F6D0E0FBD0E0FA22E4CFC0E0E4E0
:10035300CEC0E0E4CDC0E0E4CCC0E075F020C3E65D
:1003630033F608E633F608E633F608E633F61818EC
:1003730018EC33FCED33FDEE33FEEF33FFC3EC97A4
:1003830009ED9709EE9709EF97191919400FFFEC3B
:1003930097FC09ED97FD09EE97FE191906D5F0BEF6
:1003A300ECF709EDF709EEF709EFF7191919D0E0A2
:1003B300FCD0E0FDD0E0FED0E0FF222518C582C0CE
:1003C300E0E51934FFC583C0E0E518C3958224F83E
:1003D30010AF088583198582188008858319858263
:1003E30018D2AFCEF0A3E520F0A37808E608F0A377
:1003F300DEFAEFF0A3E58124FAF8E608F0A3E608B5
:10040300F0A3E608F0A30808E608F0A3E608F0A3C3
:1004130015811581D0E0FED0E0F815811581158195
:10042300E8C0E0EEC0E022120B4BB9000302047FE8
:10043300E4900301789379088002F0A3D8FCD9FAF9
:10044300781A9000867A01BA00028007E493A3F633
:1004530008DAF9900A93AA82AB8390008778AC7983
:10046300018015E493A3AC82AD838A828B83F0A3CE
:10047300AA82AB838C828D83D8E9D9E775826175B3
:1004830083C1740312088575822375831E74001259
:100493000885C0D02518C582C0E0E51934FFC5839F
:1004A300C0E0E518C3958224F310AF08858319854E
:1004B30082188008858319858218D2AFC8F0A3E912
:1004C300F0A3EAF0A3EBF0A37908E709F0A3D8FAC5
:1004D300ECF0A3EDF0A3EEF0A3EFF0A3D0E0F0A3D4
:1004E300D0E0F0A3D0E0F0A3E520F0A3E5F0F0A383
:1004F30022C0E074F2120495A2AFE433FED2AFE55A
:1005030089A2E15019900A59E0701353ABFD7CE8BE
:100513007D037A107B00900A54E0F91214C3E58935
:10052300A2E7501653AB7F900A86E4F07C64FDFA91
:100533007B20900A54E0F91214C3758900C2C57573
:100543001A00EEA2E092AF7F0102054F8519838561
:100553001882E0C0E0A3E0F9A3E0FAA3E0FBA378EC
:1005630008E0F608A3DFFAE0FCA3E0FDA3E0FEA3A6
:10057300E0FFA3E0C0E0A3E0C0E0A3E0F5D0A3E088
:10058300F520A3E0A3F5F010AF0885831985821841
:100593008008858319858218D2AFD082D083D0E0BA
:1005A300F8D0E0320375F0108E218F2285822685E4
:1005B3008325851882851983E0CEA3E0CF85268223
:1005C300852583EBC9EAC8EDCBECCAC3E833C8E998
:1005D30033C9EA33CAEB33CBC3EA9EF524EB9FF569
:1005E30023B35004AB23AA24EC33CCED33CDD5F0A5
:1005F300DAAE21AF2222D083D082ECC0E0EDC0E09E
:10060300E493A3FCE493A3FDED4C600D1206D1EC3F
:1006130024FFFCED34FFFD80EFE493A3FCE493A3FC
:10062300FDED4C600D12076EEC24FFFCED34FFFD75
:1006330080EFD0E0FDD0E0FCE493A3C0E0E493C0FE
:10064300E022D083D082E9C0E0E493A3C386F0C55F
:10065300F095F0F908E493A386F0C5F095F0700BDC
:10066300E493A3C3994005E9048002A3E475F0026F
:10067300A42582F582E5F03583F583D0E0F9E49390
:10068300A3C0E0E493C0E022851983851882E0A328
:10069300FEE0A3F5207808E0A3F608DFFAE0A3FF65
:1006A300E0A3C0E0E0A3C0E0E0A3C0E0E0A3C0E0BB
:1006B300E0A3C0E010AF0885821885831980088500
:1006C3008218858319D2AFD083D08202088BC0E011
:1006D300C3E49396087401939618400FE4936670ED
:1006E3000808740193661870007019A3A3C3E493F8
:1006F30096087401939618A3A3400DD0E0D0E0D0E0
:10070300E0020635A3A3A3A3A3A3D0E0227404802D
:100713000474028000CCC0E0EDC0E0E518C39CCCBB
:10072300AD1950011D10AF068C188D1980068C1859
:100733008D19D2AF120807D0E0FDD0E0FC2274027D
:100743008000CCC0E0EDC0E0E518C39CCCAD1950EF
:10075300011D10AF068C188D1980068C188D19D2C7
:10076300AF1207E5D0E0FDD0E0FC22C0E0C0F08886
:10077300F0E4936670080874019366187000A8F09B
:10078300A3A3700BD0F0D0E0D0E0D0E0020635A3F5
:10079300A3D0F0D0E022D083D082CCC0E0E493A3F6
:1007A30060061208661470FAE493A36006120970D7
:1007B3001470FAD0E0FCE493A3C0E0E493C0E02219
:1007C300A2E792D65002F40430F70663F0FF05F077
:1007D300B3400384800384F40430D60563F0FF053B
:1007E300F022CAC0E0E493A3C582CCC582C583CD01
:1007F300C583F0A3C582CCC582C583CDC583DAE5A5
:10080300D0E0CA22CAC0E0E0A3C582CCC582C583BA
:10081300CDC583F0A3C582CCC582C583CDC583DA9C
:10082300E6D0E0CA227009080808226016181818D2
:10083300C6C333C608C633C608C633C608C633C6DE
:10084300D5E0EA22C008C3E096F50808A3E0964283
:100853000808A3E096420808A3E09645087001D370
:10086300D00822C0E0E493A3D39C5010E493A3C325
:100873009C400AD0E0D0E0D0E00207B6A3A3A3D007
:10088300E022C09FF59FE473D09F22D083D082C023
:100893009FE493C0E0740193C0E0740293F59F2238
:1008A300C0E0C0D0E8C0E0E5A8D2AFC2C7751A0067
:1008B300A2E792AFD0E0F8D0D0D0E0322518F5828D
:1008C30010AF08F518400215198008F518400215F5
:1008D30019D2AF851983227404800A7403800674C5
:1008E3000280027401C0E0F4041208BFD0E0120BCE
:1008F3002622C0D0251810AF08F51850020519801C
:1009030008F51850020519D2AFD0D022BB0102E777
:1009130022C082C08389828A83BB0003E08002E411
:1009230093D083D082226016080808C6C313C61862
:10093300C613C618C613C618C613C6D5E0EA22C323
:10094300E0C696F608A3E0C696F608A3E0C696F6B8
:1009530008A3E0C696F622251810AF08F518400242
:1009630015198008F51840021519D2AF22C0E0E42A
:1009730093A36C7009D0E0D0E0D0E00207B6A3A344
:10098300D0E022E76670100809E766700A0809E7F5
:100993006670040809E76622E066701008A3E06643
:1009A300700A08A3E066700408A3E06622C3E09619
:1009B30008A3E09608A3E09608A3E096A2D265D028
:1009C3003322C3E697F60809E697F60809E697F691
:1009D3000809E697F622C3E096F008A3E096F0082C
:1009E300A3E096F008A3E096F022E026F608A3E041
:1009F30036F608A3E036F608A3E036F622E026F042
:100A030008A3E036F008A3E036F008A3E036F022AE
:100A1300E657F60809E657F60809E657F60809E621
:100A230057F622E056F608A3E056F608A3E056F67A
:100A330008A3E056F622E647F60809E647F6080952
:100A4300E647F60809E647F622700422600D18C649
:100A5300C333C608C633C6D5E0F41822C0E0E8C0E5
:100A6300E0E58124FCF8E6A2E7D0E0F8D0E022E656
:100A730027F60809E637F60809E637F60809E637E0
:100A8300F622E056F008A3E056F008A3E056F0087B
:100A9300A3E056F022E4C396F608E496F608E4963B
:100AA300F608E496F622C6F4C608C6F4C608C6F4E9
:100AB300C608C6F4C622600D08C6A2E713C618C648
:100AC30013C6D5E0F322C3E7960809E7960809E7BA
:100AD300960809E79622C3E09608A3E09608A3E0E8
:100AE3009608A3E0962275D00075814075180175AC
:100AF30019030002042AE0F608A3E0F608A3E0F6CF
:100B030008A3E0F622600C08C6C313C618C613C6B2
:100B1300D5E0F422E6F008A3E6F008A3E6F008A384
:100B2300E6F022CAC0E0E6F0A308DAFAD0E0FA223F
:100B3300E0FAA3E0FBA3E0FCA3E0FD22EAF0A3EBD1
:100B4300F0A3ECF0A3EDF022E5C754F84401F5C798
:100B53007901222518F582E43519F58322C2AF7590
:100B6300D69F0200002212088E494E0012088EF50D
:100B73004E0012088E25500012088ED35200120820
:100B83008EC5550012088ED2550012088E5F56008E
:100B930012088E21570012088E69570012088EBD65
:100BA300570012088ED9570012088E0D58001208EC
:100BB3008E42580012088E39590012088EEE5900E1
:100BC30012088E3D5C0012088E905D0012088E3371
:100BD3005E0012088EC05E0012088EF65E001208D8
:100BE3008EA85F0012088E7A600012088E3A6200A7
:100BF30012088E97620012088ECB620012088E468E
:100C0300630012088E20640012088EDE640012084E
:100C13008E23650012088E3B650012088ED2650094
:100C230012088E43680012088E496A0012088E6704
:100C33006A0012088E856A0012088E5F6B00120824
:100C43008E876E0012088E08A90212088E3DA90233
:100C530012088E63A90212088E9DA90212088EAF94
:100C6300A90212088E01AA0212088E62AA021208B1
:100C73008EECAA0212088E90AB0212088ED8AB0239
:100C830012088E12AC0212088E2FAC0212088E5478
:100C9300AC0212088EA6AC0212088EBFAC02120878
:100CA3008EE5AC0212088E04AD0212088E3FAD022F
:100CB30012088E83AD0212088EAAAD0212088EFBB3
:100CC300AD0212088EABAE0212088E63AF02120899
:100CD3008E2BB00212088E08B10212088E8EB1025A
:100CE30012088E9DB10212088EA8B10212088EB1AD
:100CF300B20212088EC2B20212088E38B302120870
:100D03008ECAB30212088E22B40212088EE8B4020D
:100D130012088E19B50212088E5EB50212088E6B88
:100D2300B50212088EFFB60212088E64B8021208CA
:100D33008E80B90212088EEABB0212088EF5BB023E
:100D430012088EFFBB0212088E0ABC0212088E1410
:100D5300BC0212088E1EBC0212088E29BC021208A5
:100D63008E34BC0212088E65BC0212088E89BC0246
:100D730012088EADBC0212088E12BD0212088E56E6
:100D8300BD0212088E72BD0212088EE9BD0212085E
:100D93008E21BE0212088E6DBE0212088ECABE02DA
:100DA30012088EACC00212088E32C10212088E0BDA
:100DB300C20212088E1BC50212088E70C5021208E9
:100DC3008E9DC50212088EE9C60212088E39C7022B
:100DD30012088E8EC70212088E8FC80212088E2741
:100DE300C90212088EA9C90212088E49CA02120842
:100DF3008EFC800112088E35810112088E0F83014B
:100E030012088E4E830112088E98830112088E3DBC
:100E1300840112088E9C840112088ED0840112086A
:100E23008E3D850112088E5A860112088E62870153
:100E330012088EF8870112088E3F8B0112088EE884
:100E43008B0112088EC48C0112088E258D011208A5
:100E53008E428E0112088E6C900112088E2391012E
:100E630012088E2D910112088E60910112088E27AF
:100E7300920112088EC2920112088E279301120862
:100E83008E50930112088E72930112088EA1950160
:100E930012088E78960112088EBC960112088E29CC
:100EA300970112088EE4970112088E169801120812
:100EB3008E5A980112088E8D980112088EE29801BD
:100EC30012088E37990112088ECB990112088E2DC4
:100ED3009A0112088E959A0112088E3E9C011208FF
:100EE3008E269D0112088E689E0112088E96A0011F
:100EF30012088E56A10112088E85A30112088E28AE
:100F0300A40112088E66A40112088E12A60112080B
:100F13008E26A60112088E30A60112088E5AA6014B
:100F230012088E66A60112088E85A60112088E3C51
:100F3300A70112088E7BA70112088E85A70112084C
:100F43008E8FA70112088EDAA70112088E3DA80121
:100F530012088E44A90112088EFFA90112088EFE01
:100F6300AA0112088EF7AB0112088E94AC01120885
:100F73008E36AD0112088E4DAD0112088E84AD017F
:100F830012088EA2AD0112088EE6AD0112088E0B77
:100F9300AE0112088EF1AE0112088E5DAF01120888
:100FA3008ED7AF0112088EE6B00112088E25B2016A
:100FB30012088E87B20112088E41B30112088E64A3
:100FC300B30112088E38B40112088E83B4011208DB
:100FD3008EC5B40112088E1CB50112088E53B501DB
:100FE30012088E81B50112088EBAB50112088EDF80
:100FF300B50112088E67B60112088E8AB80112086D
:101003008EE9B80112088E7DB90112088EE9B90183
:1010130012088E3DBA0112088E77BA0112088E3873
:101023009E0312088E709E0312088E919E0312086F
:101033008ED39E0312088E399F0312088E439F039B
:1010430012088E539F0312088E889F0312088ED1B5
:10105300A20312088E7BA40312088E7BA603120838
:101063008E18810212088E72810212088ECE8102BE
:1010730012088E1A820212088E35820212088E66B8
:10108300820212088E83820212088E8F8202120855
:101093008E03840212088E1C840212088E8384023B
:1010A30012088E96840212088EA4840212088E58A7
:1010B300850212088E3C860212088E4287021208AD
:1010C3008EC8870212088ED2870212088E3F8802CA
:1010D30012088E56880212088E88880212088EC162
:1010E300880212088EEB880212088E4C89021208BD
:1010F3008E6C890212088E8A890212088ED08902A8
:1011030012088EF68A0212088E438B0212088E7220
:101113008B0212088EE88B0212088E108C021208C2
:101123008E498C0212088E578C0212088EAF8C02E5
:1011330012088EFE8C0212088E3D8D0212088E6DEF
:101143008D0212088E998D0212088EA48D02120848
:101153008EC28D0212088E848E0212088E8E8E022B
:1011630012088EC98E0212088EDF8E0212088EE8D4
:101173008E0212088E3D8F0212088E518F021208C2
:101183008E5F900212088E72900212088E8990026E
:1011930012088E9E900212088E40910212088EC38E
:1011A300910212088E81920212088E8C920212080A
:1011B3008EB2930212088ECE930212088E209402EE
:1011C30012088E5F940212088E74940212088EB66F
:1011D300940212088E03970212088E819702120856
:1011E3008EF4970212088E169A0212088E2E9A0215
:1011F30012088E319A0212088E3D9A0212088E51FD
:101203009A0212088E599A0212088E8C9A021208B8
:101213008E3C9B0212088EB29B0212088E259C0202
:1012230012088ED99C0212088E8E9D0212088EAD72
:101233009D0212088E4D9E0212088E599E021208BC
:101243008E849E0212088E879E0212088EB69E021C
:1012530012088ECB9E0212088E359F0212088E5DF5
:10126300A00212088E35A10212088EC0A102120834
:101273008ED9A20212088E96A30212088ECFA30261
:1012830012088E00A40212088EA0A40212088ED0A7
:10129300A40212088EABA50212088E44A6021208FD
:1012A3008ECFA60212088E80A70212088E02A80211
:1012B30012088E34A80212088E75A80212088EAA8C
:1012C300A80212088EFC8A0312088E618B0312088F
:1012D3008E9E8B0312088EED8B0312088ED78D031F
:1012E30012088EBE8F0312088EF7920312088E1D0A
:1012F300930312088E35930312088E9E93031208EC
:101303008EDA930312088E07940312088E3994031E
:1013130012088E97940312088E6EF40212088EEC54
:10132300F40212088E1EF50212088E76F5021208D8
:101333008EF0F60212088E0CF70212088E47F7029F
:1013430012088ECEF70212088E1EF80212088EEBD8
:10135300F80212088EEFF90212088E43FA021208FD
:101363008EBEFA0212088E1FFB0212088E60FB0269
:1013730012088E0BFC0212088E29FD0212088E5FE2
:10138300FD0212088EAAFD0212088EF1FD02120858
:101393008E7BFE0212088E20FF0212088E2DA703F9
:1013A30012088E73A70312088EDDA70312088EFEA0
:1013B300A70312088E9EA80312088EA8A80312087A
:1013C3008EF5A80312088E1AA90312088E7AA903B0
:1013D30012088E10AA0312088E48AA0312088EA1BF
:1013E300AA0312088EFDAA0312088E85AB03120806
:1013F3008ECAAB0312088E09AC0312088E4EAC03DF
:1014030012088E60AC0312088E72AC0312088EB3FE
:10141300450012088E9AAC0312088E4BAD031208D6
:101423008E8BAD0312088EFBE50312088EB4D7032F
:1014330012088EEAD70312088E33D80312088E805F
:10144300D90312088EFCCA0212088E75CC02120848
:101453008E36CE0212088E72CE0212088EF9D10297
:1014630012088E3FD20212088E54D40212088E261E
:10147300D50212088E934C0012088E7DD7021208F3
:101483008EC7D90212088EE3DC0212088EF1DC0249
:1014930012088ECCDD0212088EDFE10212088E17CD
:1014A300EA0312088E32EA0312088ECCE90312080B
:1014B3008E54CC0312088E67CC0312088E02CD0320
:1014C30012088E3ECD0312088E63CD0312088EA838
:1014D300CD0312088EE1CD0312088E19CE03120834
:1014E3008E83CF0312088EC7CF0312088E82E703C1
:1014F30012088EB8E70312088ED4E70312088E167B
:10150300E80312088E26E80312088E72E20212081C
:101513008EC4E20212088E33E30212088EEBE3025A
:1015230012088E55E40212088E34E50212088E4921
:10153300E50212088E93E50212088ED7E50212081F
:101543008EEAE50212088E36E60212088E20E802C1
:1015530012088EA2E80212088ECCE80212088E044A
:10156300E90212088E8FEA0212088EFFEA021208BD
:101573008E8CEB0212088E9FEB0212088EEEEB02AA
:1015830012088E04EC0212088E1BEC0212088E4A1B
:10159300EC0212088E5CEC0212088E27ED02120890
:1015A3008E8AED0212088ED6ED0212088ED0EE025C
:1015B30012088E50F10212088EE4F10212088E2FE7
:1015C300F20212088EA4F20212088EC1F20212086D
:1015D3008EC4F20212088ED4F20212088E4BF3026A
:1015E30012088E85F30212088EB1F30212088ED808
:1015F300F30212088EF7F30212088E32F402120875
:101603008E49F40212088ED2E80312088EDEE80334
:1016130012088E18E90312088EA56E0012088ED0E8
:101623006E0012088ED56F0012088E4D70001208DE
:101633008EB7700012088E03710012088E76710047
:1016430012088E01720012088E8C720012088EBF6F
:10165300720012088EB3770012088E5B79001208AD
:101663008EC57A0012088E347B0012088E00800328
:1016730012088EBF800312088E2F810312088ED6A4
:10168300810312088E33820312088E5A83031208D1
:101693008E1A840312088E7F840312088E2D86030C
:1016A30012088EEA860312088E14880312088EAD80
:1016B300880312088E9D890312088EA4E401120880
:1016C3008E2CE50112088E9FE50112088EF3E501C9
:1016D30012088E2EE60112088EBBE60112088ED781
:1016E300E70112088E29E80112088E87E801120823
:1016F3008ECAE80112088E3FE90112088E89E901BA
:1017030012088E08EB0112088ECFEB0112088E75BA
:10171300EC0112088E94EC0112088ED4EC0112082D
:101723008E98ED0112088E7CEF0112088E93EF0163
:1017330012088EE9F00112088E66F10112088E1A62
:10174300F20112088E5EF20112088E25F4011208CE
:101753008EFDF40112088E39F60112088EF2F6019D
:1017630012088E23F80112088E52F80112088E2CEB
:10177300F90112088EFBF90112088E54FA011208BE
:101783008E6CFA0112088E6CFB0112088EFAFB01B3
:1017930012088E65D50312088E24D60312088EDD37
:1017A300D60312088E43D70312088ED6C10312083C
:1017B3008E3FC30312088EC4EA0312088EFBE303B1
:1017C30012088E09E40312088EDEEA0312088E4F14
:1017D300E90312088E5FE90312088E6BE90312080E
:1017E3008EC6E90312088EFDE40312088E7EE5031C
:1017F30012088EE2E50312088EEFEA0312088EF256
:10180300EA0312088EE7FF0112088EF7FF011208A0
:101813008EFAFF0112088EFDFF0112088EF87F0079
:1018230012088EFFDB0312088E21DC0312088E4B95
:10183300DD0312088ECFDD0312088EF2B703120800
:101843008E47B80312088E1BBA0312088E4DBA03D3
:1018530012088E74BA0312088E88BA0312088EA176
:10186300BA0312088ED0BB0312088ED2DD0312080E
:101873008EF6DD0312088E0FDE0312088E42DE039E
:1018830012088E73DE0312088EA1DE0312088EABDC
:10189300DE0312088E0DDF0312088E1CDF0312080D
:1018A3008E26DF0312088E33DF0312088E117D00AC
:1018B30012088E4E7D0012088E5D7D0012088E7C0C
:1018C3007D0012088EE47D0012088EED7D00120863
:1018D3008E4C7E0012088E707E0012088E637F008D
:1018E30012088E707F0012088E817F0012088E5BB3
:1018F300EA0312088E78EA0312088EB4AD031208C5
:101903008EFAAD0312088E59AF0312088E66AF0329
:1019130012088E79AF0312088E98AF0312088EAEA9
:10192300AF0312088EC2AF0312088E37B00312083A
:101933008E9CB00312088E24B10312088EADB1033E
:1019430012088E82B20312088E92B20312088EA17D
:10195300B20312088E37E80312088E5CE8031208FC
:101963008E85E80312088EADE80312088EE7D903CB
:1019730012088E0EDA0312088E8ADA0312088EEC2E
:10198300D20312088E05D30312088E11D303120853
:101993008E25D30312088E43D30312088E4DD3032F
:1019A30012088E57D30312088E6AD30312088EC20D
:1019B300D30312088EFBD30312088E29D403120813
:1019C3008E77D40312088EC4D40312088EDFD40397
:1019D30012088EE9D40312088E1BD50312088E9CBD
:1019E300FF0212088EEDFF0212088EE7940312081D
:1019F3008E11950312088E2D950312088E409503C0
:101A030012088E7F950312088E00960312088E38F3
:101A13009A0312088E629B0312088E959B03120889
:101A23008EE29B0312088E0A9D0312088E329D03D9
:101A330012088E559D0312088E999D0312088EFA83
:101A43009D0312088E0A9E0312088E81E00312087A
:101A53008E9CE00312088EC5E00312088EDFE003BC
:101A630012088E04E10312088E23E10312088E3B51
:101A7300E10312088E69E10312088E83E103120861
:101A83008ECEE60312088E14E70312088EB6C8033F
:101A930012088EBDC80312088EF2C90312088E21E4
:101AA300CA0312088E8FCA0312088E22CB031208B0
:101AB3008E5BCB0312088EA4CB0312088ED4CB0308
:101AC30012088EF4CB0312088EB4E10312088EC6FB
:101AD300E10312088EE0E20312088EE3E203120828
:101AE3008EE6E20312088E45E30312088E9BE3039E
:101AF30012088EDCE30312088EC1BA0112088EDCD1
:101B0300BA0112088E51BB0112088ED7BB0112080D
:101B13008E6ABC0112088E86BC0112088E30BF018A
:101B230012088EDFC10112088E7DC30112088EC810
:101B3300C40112088E7DC90112088E79CA011208E8
:101B43008EEFCA0112088EBBCB0112088E5FCC0147
:101B530012088EC2CD0112088E62CE0112088EAC1D
:101B6300CE0112088E1ECF0112088EC3CF011208B8
:101B73008E90D00112088EF6D00112088EFBD1018F
:101B830012088EB8D20112088E55D30112088EACFA
:101B9300D50112088E40D60112088EBCD601120858
:101BA3008E48D90112088E43DA0112088E72DA01C7
:101BB30012088E31DC0112088E05DE0112088EFB3D
:101BC300DE0112088EE4E30112088EDAB203120872
:101BD3008E29B30312088EECB50312088EEFB503FA
:101BE30012088E28B60312088E2BB60312088E2E07
:101BF300B60312088E08B70312088EABFC01120855
:101C03008ED0FC0112088E73FD0112088E40FE0176
:101C130012088EFFFE0112088E5DFF0112088E7FEF
:101C2300FF0112088E3DDF0312088E7ADF031208CC
:101C33008E93DF0312088EA4DF0312088E23E003C2
:101C430012088E3AE00312088E17C50312088ED8C5
:101C5300C50312088E47C60312088E6CC60312080A
:101C63008E27C70312088EAF7F0012088ED4CF03CE
:101C730012088EF7CF0312088E42D00312088E5E2D
:101C8300D00312088E8FD00312088E9FD003120840
:101C93008E82D10312088E8CD10312088E99D10340
:101CA30012088EB8D20312088ECCD20312088ED536
:101CB300D20312088EACBC0312088E5CC103120857
:101CC3008E97EA0312088E80450012088E53450052
:101CD30012088E4E440012088E06440012088E3BF2
:101CE300420012088EBB410012088E934100120875
:101CF3008E20410012088EE03F0012088E423F0002
:101D030012088E103F0012088E4D3E0012088E7886
:101D13003C0012088E093C0012088EDB3B001208BF
:101D23008ED83B0012088E4A3A0012088E4B3900B7
:101D330012088E24380012088E6A370012088EE2C9
:101D4300360012088EE8350012088E40350012085E
:101D53008E8E340012088E4E4A0012088ED549002A
:101D630012088E7C490012088E10490012088EE773
:101D7300480012088E51340012088E863300120870
:101D83008E50330012088EF7320012088E8D4800F1
:101D930012088EC2320012088E63320012088E328D
:101DA300320012088EED2E0012088EA4470012088E
:101DB3008ED2D50212088EDE2D0012088E6D2D00F4
:101DC30012088E322D0012088EFD2C0012088EF19F
:101DD3002C0012088E512C0012088E982B0012082A
:101DE3008E6B290012088EF7260012088EB5260086
:101DF30012088E80250012088E35250012088E6485
:101E0300240012088EBB230012088E9123001208AF
:101E13008EE7450012088E57230012088E91AC03FB
:101E230000000080FBE4738F000100E90A870001D2
:101E330000E70A24000200A50525000200A70526E5
:101E4300000200A90527000200C70A28000100C9F3
:101E53000A29000100CA0A84000400CB0A86000193
:101E630000CF0A2A000100D00A2B000100D10A2C5E
:101E7300000100D50A2D000800AD052E000100D693
:101E83000A2F000100D70A30000100D80A310001EF
:101E930000D90A32000100B50533000100B605344C
:101EA300000100DA0A36000100B70538000100DB43
:101EB3000A39000100D40A83000200E50A63000125
:101EC30000C10564000100D20A65000100D30A6D58
:101ED300000100E40A6E000200AB0543000100DCD0
:101EE3000A44000200DD0A45000100DF0A46000241
:101EF30000E00A47000800B90548000100E20A4B68
:101F0300000100E30A04000100E80AA1000100EC5B
:101F13000A37000100EB0A88000100EA0A3C0001CD
:101F230000B8050000000000000001363601010082
:101F3300010201000103010001040106060502007C
:101F430000070100340801000F090401010D01001D
:101F5300FF0E08000017020000190100FF1A01001C
:101F6300011B0100FE1C0100081D0200001F0100EF
:101F73000120010001210200002301000F240200BF
:101F8300002601000127010008280200FF2A0100A2
:101F9300072B0102402C0100002D0100012E01003E
:101FA300012F0100FF30010B1C310800003A010032
:101FB300083B01000F2F0100000302710230016092
:101FC3000211027002010202020202800210026187
:101FD300023A00410063027302720262024302008A
:101FE300021302380000020002040212020002007F
:101FF300020002000204020402370037003C0244DC
:10200300020002390000020002650200023502816B
:10201300020002050282028302000201037103012E
:10202300030103010301030103220302030103105C
:102033000300030003000300030003000300034243
:102043000300032403060300030003040312032510
:1020530003230325032303040304030003000300F2
:102063000344030003000323030003650321003536
:10207300038103000305030003000300030101714F
:10208300010101010111010101310101010101807E
:1020930001100161013B00140063017301720162CD
:1020A3000143010001130106013D01350004011242
:1020B30001000100010001000104010401330133A7
:1020C300013C0144013201360000010001650100B9
:1020D3000135008101000105018201830100010333
:1020E30000710030016000110070003102200350C4
:1020F300048000100061000000140063007300728C
:10210300006200430000001300060000000000040A
:10211300001200000000000000000004000400376B
:102123000037003C0244000000000000000000658E
:10213300000000350081000000050000008300005E
:1021430000000003002001F880000000002001FBD4
:10215300800000040042014180000005004201307C
:10216300800000060042015280000007002001F9B0
:1021730080000010004203160B00001100200362D0
:102183000A000012001003270B0300000021036361
:102193000A000502001901280B00000000000000DE
:1021A3000036000100060000000F000000000000E0
:1021B3000000000000000003FFFF00000403FFFF16
:1021C3000000FFFF0FF4010005C404032000010019
:1021D300020B000000000000000003010F711BADA3
:1021E3001B771BC51B7D1BB31B7D1BBF1B831BC524
:1021F3001B7D1BB31B891BC51B8F1BC51B951BC5D8
:102203001B9B1BC51BA11BC51BA71BC51B000000DC
:10221300000000000003EAF5E5D5D5C5B5A5959501
:1022230085857575656555554545353525251515DB
:102233000501008516020031160300371604003D20
:10224300160500431606004F16FFFF0000FD102D74
:10225300110311091127111B111511331139113FE5
:10226300114B110F11F710F1100A750E023F0E05F5
:10227300510E07450E0C210E0D330EFF0000001604
:102283000F00000B150B020002220F320000067A2A
:102293006232303136303932393130323633370009
:1022A300000000000000008967452301EFCDAB5813
:1022B300696E6748756F5975616E536D617274ED20
:1022C30011FF110512C7100B12C110CD105912774F
:1022D300127D125F126B12651200034948424D18BA
:1022E30017250502000119161816161523030030C9
:1022F3003017181921301B1D1F3000383C3E363B68
:102303003B352B432C303016181920231A1C1E3052
:102313000C0E020B040B0A0708000F211145117163
:10232300125111571141121112171223121D1202C9
:10233300040201010101090200BE040A28000E0083
:1023430015000400E803090AFF1E1E0C0408100C04
:1023530005080F0474F71203BEE9FE121319EE9079
:102363000A94F090030C74F9F0A3741DF090030E1B
:1023730074F3F0A3741DF090031074EDF0A3741DB7
:10238300F090031274E7F0A3741DF0023F9574F705
:102393001203BEE9FE900302E4F0EE900301F07C29
:1023A300B97D057A037B03121AF3900AE2E09003E6
:1023B3000BF0121DC3023F9574F41203BE8A088BFF
:1023C30009EB5480605B900301125633604A8E829E
:1023D3008F83E06401703212473B120710EE241220
:1023E300126E34F50A780A1208E61224571208E22C
:1023F300EE240B1226AE120714EE241712564312C4
:1024030012D774091208F58008E064027003121CE5
:10241300E5EEFAEFFB1213C1AA08E5096480FB801D
:1024230030EA5402600C900A937401F0EA6402FAF1
:10243300801FEA54046005EA640480F3EA540860E8
:102443000C121DBDE5086408FAAB0980047A007B11
:1024530000022530EE240FF50AEF3400F50B780A5D
:102463002274F41203BE8A088B098A828B83A3A386
:10247300A3E02410123FA1FA12487370030225133C
:102483008E828F837402F0A3E4124861A3A3A3A3F3
:10249300E8F0A3E91244C5A3A3A3A3A3A3A3F0E570
:1024A300082403F8E509123B362410123E088E82F5
:1024B3008F83A3A3A3A3F0EE2409FA1225151240D8
:1024C300DDF5838882E0A2E58E828F83A3A3A3A395
:1024D300A3500474018001E4F0E5082403F8888222
:1024E300898312571DEA12605BEB1226B112252075
:1024F3001208DE12622EEB12418B8E828F83A3A30E
:102503001247481208F5EEFAEFFB9003011248C593
:10251300801BEF3400FB8E828F83A3A322E0F50898
:10252300A3E0F509750A007808221208F57F040272
:10253300068B74F21203BE8A088B09ECFAEDFB7466
:102543000E120B56E0FC1213498A0C8B0DAE0CAF26
:102553000DEE4F6023AC08AD09121337E96019ACD7
:1025630008AD09EEFAEFFB12133DE97007EEFAEF3F
:10257300FB1213317900800279B402334B74EE12EB
:1025830003BE74F712095A8A0A8B0BECFEEDFF7532
:102593000FB3750E00750C00750D00800CE50C244F
:1025A30001F50CE50D3400F50D902345E493F87423
:1025B3000193F9C3E50C98E50D99400302269FAA00
:1025C3000CAB0D1213978A088B09EA450960CE8A72
:1025D300828B83A3A3A3A3A3E0250EF50EF510C35B
:1025E300E50A9510E50B940050B37C157D00790046
:1025F300EEFAEFFB12452EA3A3A3A3E50AC3950EA0
:10260300F8E028C333F8E433F9E50828F582E5094F
:1026130039F583A3A3A3A3A3A3124C83A3123FCE91
:10262300EAFCEBFDEEFAEF123BC3A3E06401700A90
:1026330012473B740112343D804385188285198308
:10264300AC82AD8385088285098312571B12137FE1
:10265300E9602D7408120B56E0C0E012473BD0E04E
:10266300F07408120B56E064038518828519837091
:102673000CAC82AD83EE240B12342A800312417119
:10268300850882850983123A39A3A3124824C0E03E
:10269300EE24141226AED0E0F0750F00A90F7409D2
:1026A3001208F57F0A02068BEE240CF582EF12471F
:1026B3008C2274F71203BEE9FE8A828B83A3A3A341
:1026C300A3A3A3E0540860298A828B83A3A3A3A3B3
:1026D300A3A3E0540260178A828B83A3A3A3A3A3BB
:1026E300A3A3A3A3E06406600574E96E7003121D3F
:1026F300DB023F9574E81203BE74F712095A74079C
:10270300120B56124540E9851882851983F0ECFEB9
:10271300EDFF7424120B56780C120AF97513008E10
:10272300828F831257178E828F83A3A3A3E0F9129C
:1027330013558A148B15EA45157003022911EE24EB
:1027430010124E1DA914120D738A168B17EA451722
:102753007003022911EE2406F510EF3400F5117C05
:1027630000851082F5831229578E828F83A3A3A33A
:10277300E0851682851783A3A3A312529DF8A3E0D5
:10278300F9851682851783A3A3A3A3E8F0A3E9120F
:102793002EE8851682851783A3A3A3A3A3A3A3125D
:1027A3004E3D851682851783A3A3A3A3A3A3F0EEAF
:1027B30012605BEF122B711208DEEE12622FEF1222
:1027C300418B851682851783A3A3A3A3A3A3A3A3E6
:1027D300A31247481208F5751000022891850A8252
:1027E300850B8312571B121385850882850983A3E2
:1027F300EAF0A3EB124761A3A31244FC1248DCE006
:10280300A2E6500F850882850983A3A3A3A3A3E0AF
:10281300D2E1F0E5137063850882850983A3125220
:102823008790035AE0687003A3E069704D850882BE
:10283300850983A3A3A3124E29780C1208DA7427FF
:10284300120B56E0F50A780A1208E67426120B56A4
:1028530012071490036712071479007410120B56B1
:102863001244B0121E1174091208F58508828509F5
:1028730083A3A3A3A3A3E04405F074012510FC8E56
:10288300828F83A3A3A3A3A3A31229570510E50A49
:10289300450B6052851008C3E5089514E49515505F
:1028A30045E51075F006A4F8A9F0E51628F8E51734
:1028B30039F9E8240CF508E912381BE41247576488
:1028C3000160030227E0751301850882850983747B
:1028D3000112475CF8A3E0F9850882850983A3E820
:1028E300F0A3E90227F7AA16AB17120D797816128F
:1028F30008E27425120B56E0FC7402120B56E0F941
:10290300EEFAEFFB121DE174021208F580418E828C
:102913008F83A3A3A3E0C0E07404120B56D0E0128C
:102923002EE8C0E07405120B56D0E0F0E51445150F
:1029330070097406120B5674B980077406120B568D
:102943007410F07401120B56AA82AB8312140F7425
:10295300090262791247518E828F83A3A3A3E0F900
:1029630012135B8A0A8B0B2274EA1203BE74F312EE
:10297300095A8A0A8B0B89158C147423120B56126D
:102983006A3DAA0CFB120D67E9F513AA0CAB0D12F5
:102993000D6DE5137003022B5E750E00800F8E82A2
:1029A3008F83A3A3A3A3A3E0D2E3F0050EE50C2436
:1029B3000BF582E50D122CECE50EC3984003022BB8
:1029C30055E5137003022B55E50E75F006A4F8A91F
:1029D300F0E50C28F8E50D39F9E8240CFEE9126856
:1029E30020A3A3A3A3E0A2E040C1750F00750808CC
:1029F300750900E5146003750F201244E4E06033A9
:102A03009003AAE064017017E50FD2E3F50F75098F
:102A1300108E828F8312410F123FC274FF802443B2
:102A23000F0C75080C8E828F83A3122B7D12620B01
:102A3300A38010E5156009E50FD2E6F50F75080AC6
:102A4300122B8BF07402120B56E50F1252BCC0E02E
:102A53007404120B56D0E0F07405120B56123FB3F8
:102A6300120B56E06003022B387408120B5612390E
:102A7300398E828F83A3A3A3A3F07408120B56127B
:102A8300320EF583E508F0A3E5091243E7E0601190
:102A93009003AAE0C0E07408120B56123207D0E08C
:102AA300F0850C82850D83A3A3A3E0C0E074081214
:102AB3000B56125D53D0E0125D8BC0E07408120B0D
:102AC30056123219D0E0F07408120B56122B7DA364
:102AD300A3125D5A1252A6A3A3E0125D3EEAF0A32D
:102AE300EB1252B2C0E0E8242EF582E91226B1D0EF
:102AF300E0F07408120B5612571D850A82850B836A
:102B0300122B682424F582EB12417A126059E50BEB
:102B1300122B711208DE124188EA242BF582EB1284
:102B230026B11247481208F5851882851983AA82AF
:102B3300AB83121CD98E828F83A3A3A3A3A3E0D25A
:102B4300E0F0740C120B56E060030229A115130286
:102B530029AE7900AA0CAB0D121DD5740D1208F520
:102B63007F0E02068BA3A3A3A312528BEA22124762
:102B73008C12526675120078102212528B850A82CB
:102B8300850B83A3A3A3A322A3122B902212448217
:102B9300E8F0A3E92274F21203BE74EB12095AEAB5
:102BA300FEEBFF89088E828F83A3A3A3A3A3A3A312
:102BB300A3E0F9120D918A0A8B0BEA450B607FE5BE
:102BC3000870047C0480027C088E828F83A3A3A3F5
:102BD300A3A3A3A3A3E0F9120D971226AB12457B7F
:102BE300605C888289831257197406120B56122C63
:102BF3004612571D7408120B56122C46A3A3E0C0AD
:102C0300E07410120B56D0E01252CC12571D740E02
:102C1300120B561245407411120B56E4125007F969
:102C2300780A1208E2742059FC744059F9740212AC
:102C33000B56AA82AB83121DE174021208F57415B8
:102C4300023348EAF0A3EB123F8BA3A3A32274F74A
:102C53001203BE74FA12095AE9FE7F018F087D0040
:102C630080047508000D123F9A122CECEDC39850A6
:102C730025ED75F006A4F8A9F0EA28F8EB39F9E890
:102C8300126054E9124C6C50D9540C60D5E0A2E2A6
:102C930050D37F0080CF8A828B83A3A3A3A3A3A354
:102CA300E0703EE508A2E0400574016E70338A824D
:102CB3008B83A3A3A3A3A3A37401125C02E0C0E0CC
:102CC3007403120B56D0E0125BFAE0C0E0740412F6
:102CD3000B56D0E0F07405120B56EF12413F12145D
:102CE3000F7406023F92F582EF125017F822C0824A
:102CF300C0837901121DD5023412C082C083EA4B0E
:102D030060189003A6E064027010900A93E4F0EA5E
:102D1300FCEBFD7A0212341F8012900A937401F0C7
:102D23007A027B00900301E0F91214CF023412C03F
:102D330082C083900AF4E075F005A4FCADF079003D
:102D43007AEE7B091213A97B008012EB75F005A4C0
:102D5300F8A9F0122EDD74FEF0A304F00B900AF430
:102D6300E0F8EBC39840E4023412C082C0837C00D5
:102D73007B0080037C010B900AF4E0F8EBC39850CE
:102D83004FEB75F005A4F8AAF0EAF9122ED67003FA
:102D9300A3E0F460E1122ECDE82403080808E91249
:102DA3003B3624FFF0A3E034FF125007F8A3E0F909
:102DB300E84970C0EB75F005A4F8EAF9122ECD8846
:102DC30082898374FEF0A304125C13A3E4F080A64B
:102DD300ECA2E0500312341902341274F61203BE4B
:102DE300EAFEEBFF900AF4E07003022EC8EE241112
:102DF300126E347003022EC88E828F83A3A3A3A303
:102E0300A3A3A3A3A31244B86402600F8E828F838B
:102E1300A3A3A3A3A3E07003022EC87C0080010C2C
:102E2300900AF4E0F8ECC3985045EE240B1226AE5A
:102E3300125287EC75F005A4FAABF074EE2AF58212
:102E430074093BF583E0687003A3E06970D1EE2455
:102E530012126E34FBEC75F005A4F8A9F074F02897
:102E6300F582740939F583E06B70B4790080587C7E
:102E73000080010C900AF4E0F8ECC39850EDEC7577
:102E8300F005A4F8A9F0122ED67003A3E0F470E3C2
:102E9300122ECDEE240B1226AE1243BAEAF0A3EBA8
:102EA300122EE888828983A3123F86740C124E3D4A
:102EB3007A08FB900301E0F91214D58B09EA45095E
:102EC3007003123419790102348974EE28F87409F5
:102ED30039F922122EDDE064FE2274EE28F58274A5
:102EE3000939F58322123756E02274F21203BE74B5
:102EF300F312095AEAFEEBFF8E828F83A3A3A3A3E7
:102F0300A3A3A3A3A3A3E0F50A900A93E070057912
:102F1300BA023202750801750900750C00750D00BF
:102F23007C087D007900851882851983AA82AB838A
:102F33001213A97405120B56740112322A54046039
:102F4300127402120B56E0D2E612322A54087003AE
:102F5300750803E05410600674404508F508E05412
:102F63000860227402120B56E044C012322A542025
:102F7300600A7403120B56E0D2E080087403120B4C
:102F830056E0D2E1F08E828F83A3A3A3A3A3A3A3CE
:102F9300A3E07018120F118518828519831245401A
:102FA3007402120B56E0D2E2F0023054640F701533
:102FB3007402120B56E0D2E31248DD12452845088D
:102FC300F5080230548E828F83A3A3A3A3A3A3A3E4
:102FD300A3E064028E828F837005122B8C80C9A3B9
:102FE300A3A3A3A3A3A3A3E06403701385188285FB
:102FF3001983AC82AD83EEFAEFFB121D8180528EF2
:10300300828F83A3A3A3A3A3A3A3A3E0640170411B
:103013009003AAE0601C7402120B56E0D2E312483C
:10302300CB85188285198312417D750910750AFFB6
:1030330080187402120B56E0440C125D7874FDF094
:10304300A374FFF074044508F5088E828F83126A17
:103053003D124C66503A7402120B56E0540C701B2E
:103063008E828F8312571D121733E9700579BB02C5
:1030730032027402120B56E0D2E5F0124C66501085
:103083007402120B56E0540C64047004E0D2E5F0B1
:10309300EE2411126E34C0E07404120B56D0E01209
:1030A3003FB5120B56E060030231FB7408120B5656
:1030B30012320E123220EE2418126E34C0E0E812DF
:1030C3006045E91226B1D0E0F0EE2419126E34C047
:1030D300E07408120B56E02413123901D0E0123FBA
:1030E300DB640170119003AAE0C0E07408120B5670
:1030F300123207D0E0F07408120B56123DE0241789
:10310300FAEF123E0FFCE8241CF582E91226B1EC1B
:10311300124E3D8E828F83A3A3A3A3A3A3A3A3A332
:10312300E0C0E0E82422F582E91226B1D0E0F07491
:1031330008120B56123219E50AF07408120B5612D4
:103143003DE52424F582E9125556A3E50D1255AF4A
:10315300FCA3E0FDE82426F582E91226B1ECF0A3F6
:10316300ED1235D912450EE82428F582E91226B16D
:103173001257B2C0E0E8242FF582E91226B1D0E05D
:10318300F0EE241B126E34C0E07408120B56125D6D
:103193004CD0E0F0EE241A126E34C0E07408120B27
:1031A30056E0242E123901D0E0125D70122521124F
:1031B30008DEEE24111226AE12450E740B120B56C6
:1031C3001247421208F5EE2415126E345440601B68
:1031D30090032412457B6013851882851983AA8284
:1031E300AB83900325123B69121E2885188285192B
:1031F30083AA82AB83121CD9740C120B56E0F974A8
:103203000D023348E0241512392722123DE9240F19
:10321300F582E9340022E0242312392722F583E5DD
:1032230008F0A3E509F022F0EE24151250142274DD
:10323300F71203BE7E638A828B83E0600C790512EA
:103243000C2FE9F87456C398FE900352E0600CF912
:10325300120C2FE9F8EEC39824F2FEEEF9023F9523
:1032630074F61203BE74FE12095A851882851983F7
:10327300124540E9FEECFAEDFB740C120B56E0FC30
:1032830090046112457B603285188285198385829B
:103293000885830978081208E27D01EEF99004613C
:1032A300123B66121E2874021208F58B09EA4509BF
:1032B30060047900800679B2800279B6023484749E
:1032C300F71203BEE9FE7409120B56E0FF90030CDC
:1032D30012457B601AEFF50878081208E6EEF990BC
:1032E300030C123B66121E2874011208F580027942
:1032F300B6023F9574F21203BE8A088B09ECFEED09
:10330300FF750A0190035AE065087004A3E065099C
:1033130070051244A9802A120F178A0C8B0DE50839
:10332300650C7004E509650D7009EEFAEFFB120FE9
:103333001D800EEEFCEFFDAA08AB09120CA7E9F500
:103343000AA90A80031208F57F0602068B74F51298
:1033530003BEEAFEEBFF8C088D09750A011264B601
:10336300123433700B90035A123BB912417D800E15
:10337300AC08AD09EEFAEFFB120CADE9F50AA90AA8
:1033830002593474F61203BEEAFEEBFF7A0C7B009B
:10339300121439EA4B606BEE2420126E348A828B4E
:1033A30083F0EE2421123408F0EE2422123408A311
:1033B300F0EE2423123408A3A312478112528FE89C
:1033C300F0A3E912500C125290A3A3E8F0A3E91260
:1033D3004E2F8A828B83A3A3A3A3A3A3A3A3F0EE5D
:1033E300242F126E34C0E0123F9A1226B1D0E0129D
:1033F30045468A828B83A3A3A3A3A3A3A3A3A31258
:10340300417D0234891250148A828B83A322F0D027
:1034130083D08202088B7CF47D017A087B009003C1
:1034230001E0F91214C322FAEF3400FB121AF3225B
:10343300123FC72212343DA3E02212344122123438
:103443004522124859A3A3221244D3A3E02274F6BF
:103453001203BEECFEEDFF79B3900351E0702090B0
:103463000383E064017018EE126054EF126834EEC7
:10347300240F124177E84960047900800279A18022
:103483000574021208F57F0202068B74F41203BE60
:1034930074FE12095AECFEEDFFEE2416126E34642C
:1034A300057011EE2406FCEF3400FD121D87E97050
:1034B30003023539851882851983AC82AD83125F87
:1034C3009A1236C712457B6069E875F009A4F8AA19
:1034D300F075F009E9A42AF9747C28F874F339F932
:1034E300E8FAE9FBEE24121226AEC082C0838A8278
:1034F3008B837808120AF9D083D0827808120AD90C
:10350300402C851882851983123DE01235E2125250
:103513007B1237527808120AF99080EE7808120964
:10352300ED8A828B837808120B177900800A79A2BF
:10353300800679A1800279C8740202252D74F412E1
:1035430003BE74FF12095AEAFEEBFF900351E070C9
:1035530072900383E06401706A75083A7509007814
:10356300081208E27402120B5685820885830978D3
:10357300081208E21235CB1208F5E9703EEE12602C
:103583005BEF123BD212448EC0E0EE24111226AE42
:10359300D0E01235D9743A124E3D90032C120B33FE
:1035A300EE24121226AE120B3F9080EE7808120A18
:1035B300F990032C7808120A0080081235E1123FB3
:1035C30080A3F0740102252D7C017D007A007B002D
:1035D300121019740422F01235E112478C22EE24E2
:1035E3000FF582EF2274F01203BE74F612095AEC3F
:1035F300FEEDFF7402120B56AC82AD83121D87E9F8
:1036030070030236C2851882851983AC82AD837438
:1036130002120B56AA82AB831236C712457B700384
:103623000236C2E875F009A4F8AAF075F009E9A416
:103633002AF9747828F874F339F988088909EE248B
:103643000E1236D112448EF8A3E0F9EE240F12487D
:103653004A120B33EE24121226AE120B3F9080EE69
:10366300780C120AF9850882850983780C120A00FE
:103673008508828509837808120AF99080BE780C40
:10368300120AF97808790C12034EE50C450D450E24
:10369300450F702B851882851983123DE575F00956
:1036A300A4F8AAF075F009E9A42AF9748028F58230
:1036B30074F339F5837401F07A007B101236D974F0
:1036C3000A02376212173985188285198322F58217
:1036D300EF12478CE4229004DAE0F91213F122741A
:1036E300F01203BE8A088B09ECFEEDFF1235E112DE
:1036F3003F80A3123752C082C0839080DA780C12C5
:103703000AF9D083D082780C12099B6032123746B3
:103713007005121D75802AE07005121D5180226408
:10372300027013121D51E96018EEFCEFFDAA08ABFD
:1037330009121757800BE0640360DF79A1800279D7
:10374300A3801FEE240EF582EF125017640122129C
:10375300375622F0EE2412F582EF3400F58322125D
:1037630008F57F0802068B74F61203BEEAFEEBFF30
:1037730012381512450EEC240F123F7D1245181214
:103783001D458508828509831245787063123905C2
:103793007003A3E069600A1238F07003A3E0697054
:1037A3004F8E828F83A3A31245068E828F83125777
:1037B3001D12175DE960188E828F83A3A3A3A3A3B1
:1037C300A3A3A3A3A3E0240F123901E4F0A3F08E73
:1037D300828F83125D368E828F83A3A3A3A3A3A3B9
:1037E300A3A3A3A37005123BB38004123B8DE4F0A3
:1037F30012456A701A123B3A12571D121D4B850867
:103803008285098312457870061226AB74A1F002F3
:103813003489EE240AF508EF126206850882F583DF
:103823002274F61203BEEAFEEBFFEE240A123B49B2
:103833007A187B0012143985088285098312393E70
:10384300F8A3E0F9E84970030238E7EEFAEFFB1258
:103853001D3912456A607912392B640170071239D8
:1038630012740E8034E064027007123912740D80F2
:10387300288E828F83A3A3A3A3A3A312457B70EAFD
:103883001239057003A3E06960E01238F07003A3F6
:10389300E06960D61239127405124521540364019C
:1038A3007007123B6D7405800B900352E0C0E01269
:1038B3003B6DD0E0F0123815123B7B123A3EC0E06C
:1038C300850882850983E02417123901D0E0801925
:1038D300850882850983123F3B850882850983E435
:1038E300F0A380051226AB7410F0023489120F1175
:1038F3008A088B09A808A9099005ABE06822123948
:1039030027228E828F8312528B9005ABE068228E22
:10391300828F83A3A3A3A3A3A3A3A3A3A3E0241698
:1039230012392722123B98228E828F83A3A3A3A34B
:10393300A3A3A3A3A3A3123B91E022EAF0A3EB1258
:10394300394622124859E02274F11203BE8A0A8BC7
:103953000B8C088D097A181257017003023A318EC5
:10396300828F837401F0E508240DF8E509125FA343
:10397300C3E49AFA95E0FB126060124E14FB8E8248
:103983008F83A3A3A3A31250038E828F83A3A3F0D9
:10399300EEFAEFFB120BDB850882850983125D3893
:1039A30070098E828F83A374058006900352123AA6
:1039B30039F0EE2417F8EF3400F9880C890D8E8264
:1039C3008F83123A3D850C82850D83F0EE2416F821
:1039D300EF3400F9E508240EFAE5093400FB888288
:1039E30089831243C2E50824100A0AE5093400FB5F
:1039F300850C82850D83E0FC88828983E0F88A82C6
:103A03008B83E0C398C39C12591AF0EEFCEFFDAA16
:103A13000AAB0B121D3FE9F508700AEEFAEFFB1231
:103A23000BE7E9F508EEFAEFFB12143F8003750884
:103A330010A9080264D91244CC22A3E0F9120C2F76
:103A4300E922790102088B74F41203BEEAFEEBFF4C
:103A53008E828F83A3A3A3A3A3A3A3A3125582122E
:103A63005D38706B12392B70668E828F83A3A3A38C
:103A7300A3A3A3A3A3E0242B123901123BAB704FE2
:103A83008E828F83A3A3A3A3A3A3A3A3E0242BF8D2
:103A930088828983123B7BE0F8740168600A7406AC
:103AA30068600574056870138E828F83A3A3A3A334
:103AB300A3A3A3A3A3A3123BB380138E828F83A3D9
:103AC300A3A3A3A3A3A3A3A3A3123B8D7403F012E5
:103AD3003B3A123B66E4F0EE2408F8EF123B36243F
:103AE3002D123E08C0E0123B53D0E0125007242AA7
:103AF300123E08C0E0123B53A3D0E0125007240B40
:103B0300123901123BB9123C61123FCE8A0A8B0B68
:103B1300AC0AAD0B850882850983E02406FAA3E08D
:103B23003400123BC312571D120BE71226ABE9F008
:103B330002253012410A22EE240A123B4122123B93
:103B4300498882F58322F8EF3400F988088909222D
:103B5300850882850983123C65A3A322EEFAEFFB55
:103B630090031CE0F8A3123B87228E828F83A3A3CA
:103B7300A3A3A3A3A3A3A3A3123B7F22E0F8123B17
:103B830086A322A3E0F583888222123B9122E024BC
:103B93000E123B9822123B9C22F8A3E0123BA32275
:103BA3003400F98882898322E0F8124236640522C0
:103BB300123B9174022212528B850882850983225B
:103BC300FB123BC822121AF385088285098322124D
:103BD300478C740122023A45C082C08390031A7451
:103BE30033F0A3741DF090031C7427F0A3741DF02D
:103BF30090031E7421F0A3741DF0900320742DF024
:103C0300A3741D02341174F41203BEEAFEEBFF1217
:103C13003C6EF508120F118A0A8B0BA80AA90B8EAA
:103C2300828F83123C61E0687003A3E069602CE536
:103C330008A2E550268E828F83A3E0FB90031A121D
:103C43003B66121E288E828F83E0F8A3124A3BA3A1
:103C530012457B7006123C6EC2E5F0022530123C21
:103C63006522E0FAA3E0F5838A82228E828F831293
:103C73003B7FA3E02274F51203BE123DCE123DE555
:103C83002420F582E9126E37FE74035EF50A1243AF
:103C9300A41226B1123DE088828983F0A3A882A9E9
:103CA30083E50A60097402650A6003023D3F740CF0
:103CB3005EFF601574086F601074046F701D7402EA
:103CC300650A7005EEA2E4402D8A828B83A3A3A329
:103CD300A3A3A3A3A3E02423123E30740C6F70109C
:103CE300123DC92424123E182424123DDB123E3314
:103CF3007402650A7005EEA2E44041123DC9242610
:103D0300123E182426123DEEA3123E42123DEE123D
:103D13003E42123DDB123E33EF600F74086F600AC0
:103D2300740C6F600574046F70128A828B83A3A373
:103D3300A3A3A3A3A3A3E02422123E308A828B83EE
:103D4300A3A3A3A3A3A3A3A3123DFE7005EEA2E125
:103D530050178A828B83A3A3A3A3A3A3A3A3E024C3
:103D63002E1243AB123E29800E900302123E29907D
:103D73000302E0041240EDA3A882A983EEA2E75058
:103D830042123DC92421123DEE123E338C828D83B3
:103D9300123DFE602E8A828B83A3A3A3A3A3A3A3B6
:103DA300A3E02430123E30EEA2E150178A828B83C7
:103DB300A3A3A3A3A3A3A3A3E02431123E08888251
:103DC3008983F0025934123DCEE022EA2408FCEB49
:103DD3003400FD8C828D83221243AFA32212528BB7
:103DE300EE22123DE9221248D6E822123DF222F5D4
:103DF30008A3E03400850882F58322E024211243DE
:103E0300AFE0540322FAA3E0123E0F223400FB8AF0
:103E1300828B83E022123DF2123E29A3A882A9835A
:103E23008C828D83E022E088828983F0221243AF63
:103E3300123E3722E088828983F0A308A9832212E5
:103E43003E378C828D83E0242822C082C0838A82FD
:103E53008B83123C72F8740358F98A828B83A3A371
:103E63007401F0E960057402697061740C58FC60B8
:103E73001474086C600F74046C7013740269700519
:103E8300E8A2E4401D8A828B83A3A37402F0740C1E
:103E93006C700A8A828B83A3A3E02402F074026904
:103EA3007005E8A2E440258A828B83A3A3E024045F
:103EB300F0EC600F74086C600A740C6C6005740499
:103EC3006C70098A828B83A3A3E004F0E8A2E75015
:103ED300318A828B83A3A3E0041257B6F9A3E0F5DA
:103EE300838982A3A3A3E0540360178A828B83A3ED
:103EF300A3E004F0E8A2E150098A828B83A3A3E044
:103F030004F08A828B83A3A3E004023411C082C02D
:103F1300838A828B83A3A3A3A3A3A3A3A3A3A31291
:103F2300457B60098A828B83A3A3123F3302341239
:103F3300A3A3A3A3A3A3A3A312475112143F2274C1
:103F4300F71203BEEAFEEBFF12528388828983A332
:103F5300A3A3A3A3A3A3A3E4F0123F86A3A3A3A3B2
:103F6300A3A3A3F0A3F0E8125540E9123F80121D6A
:103F730009EEFAEFFB121D158018F582ED12478C3E
:103F8300E4F022A3123F8B221240EDA3A3A322123B
:103F930008F57F0102068BEA240BF582EB22125E01
:103FA300BC24092212478C126A41750E00780C2238
:103FB3007401124143123FBC22121CDF740C221203
:103FC300449FA322121AEDE9640122A3A3A3A3E849
:103FD300F0A3E9F0120F0B221243E1E02274F61270
:103FE30003BE74F412095A1240F3FCA3E0F5838C68
:103FF30082A3E0FC7402120B56EC12500724021247
:1040030044937404120B5612417DEC600A7402123D
:104013000B56E06404701C1240D1124C72740612E9
:104023000B561240D71244937408120B56E8F0A3B0
:10403300E98056E06401600AE064066005E0640517
:1040430070231240D1123E08C0E07403120B56D005
:10405300E01250072413124C727406120B561250BE
:1040630003241B80C07406120B56E4F0A312410014
:104073002412124C727408120B561240D7125EB8F7
:10408300C0E0740A120B56D0E0F07406120B5612FD
:10409300457B60287406120B5612571D120C9BE9C0
:1040A30064017018120F0B8A088B09AC08AD0974F0
:1040B30006120B5612571D123433700D8518828564
:1040C3001983AA82AB83121DAB740C02348612418E
:1040D300052412221240E4241A221240E4F8A3E039
:1040E30022EAF0A3EB1240EDE022F08882898322DA
:1040F3008A828B83A3A3A3A3A3A3122B90F01241C1
:104103000522EA2402F8EB123BA3E022A312528B0E
:10411300851882851983221208F5023412C082C0E1
:104123008374FD12095A12414FC0E07402120B56F8
:10413300D0E012413F121D8D740380DB12414322F4
:10414300F0851882851983AA82AB83228A828B83A6
:10415300A3A3A3A3A3A31244798A828B83A3A31249
:104163003B7FE022AA82AB8312139D740322125277
:104173008BEE240BF582EF12478C12447C221244FF
:104183007C90032C221252C412478CE0FC7D002247
:10419300C082C0831241AD600624FC600780081210
:1041A3001CF78003121CF10234128A828B83A3A3AF
:1041B300E0F812423624FB22C082C0838A828B83BA
:1041C300A3A3A3A3A3A3A3A3E070528A828B83A375
:1041D300A3E0F81242326401604312422C6402608D
:1041E3003C12422C6403603512422C6404602E8A14
:1041F300828B83A3A3123BAD602312422C640A601B
:104203001C12422C640B601512422C640C600E12BB
:10421300422C640D60077904121ADB800990032293
:10422300123B66121E280234128A828B83A3A312C6
:10423300423622123B86E02274F61203BE74FA124F
:10424300095AEAFEEBFF7403120B56EEF0A3EFF0EC
:104253007403120B56AA82AB83121CFD126E3160DB
:104263000302439F8518828519837432F074051203
:104273000B56C082C0838E828F83A3A3A3A3E0D0F7
:1042830083D082F8E028C0E07401120B56D0E0120C
:1042930043FBC0E07402120B56D0E01243DAF8A3DA
:1042A300E0F9E8496026E82417F582E91226B1C04F
:1042B30082C083E82416F582E9126E37D083D08258
:1042C300F8E028F87401120B56E028F0851882856F
:1042D3001983AA82AB83120CFB8A088B09A808A94D
:1042E30009E84970030243928E828F831243BAA373
:1042F300A3EAF0A3EB1243E7A3A3E0C0E0E8242082
:10430300F582E91226B1D0E0125D8BC0E0E82421EA
:10431300F582E91226B1D0E01243F6C0E0E8242A80
:10432300F582E91226B1D0E0F07405120B56E0FADB
:104333001243A4126E372A124C72E8242BF582E939
:104343001226B11245407405120B56E0C0E0E82472
:104353002DF582E91226B1D0E01243DAFAA3E0FB8D
:10436300EA4B6019E8242BFAE9122516A3A3A3A3A9
:10437300A3A3A3A3E024161243AB1243C28E828FDE
:1043830083A3A3A3A3A3A3A3A3E8F0A3E9800CEEB1
:10439300FAEFFB121D031226AB7410F074060234FD
:1043A30086E8240BF582E9221243AF22FCA3E03412
:1043B30000FD8C828D83221247518882898322E0FB
:1043C300FC8A828B83E02CFCA3E03400FD8A828B81
:1043D30083ECF0A3EDF0221243E1A3A3E022124900
:1043E30075A3A322F0E8126045E912478C74011209
:1043F30048DD22124401E022124401A3E0221259B3
:1044030022A32274F71203BEEAFEEBFF126E317091
:104413001E12443C12457B6006123B5F121E28129B
:104423006E31700B125711120CF51226ABE9F0EE38
:10443300FAEFFB121D03023F95121D0F8E828F832D
:10444300A3A3A3A3A3A3A3A3A3A32274F61203BEAC
:10445300EAFEEBFF8C088D09121733E9700479012A
:104463008011AC08AD09EEFAEFFB900320123B6616
:10447300121E28023489124482E8F0A3E9F022E0F4
:10448300F8A3E0F985188285198322125D7CE02266
:10449300F8A3E03400F92212449FE022E8F0A3E9F4
:1044A3001248E1A3A3221264BA121AF3221245128C
:1044B300EEFAEFFB22124751120F83E922123B9CC3
:1044C300E02212343D1244CC22E08E828F83A32259
:1044D30012479DA3A3A3A322E508240BF582E509B4
:1044E300227C087D007900851882851983AA82AB16
:1044F300831213A98E828F8322E085088285098324
:10450300A3A322A3A3A3A3A3A3A3A312451222E0BD
:10451300FCA3E0FD221248DC124751227401124829
:10452300DDA3A3E0221244797404221213A985089F
:1045330082850983A3221214E78E828F83EAF0A374
:10454300EBF02212454A221248E1A3A31248D622D5
:10455300C082C08312456374EBF0A3741C02341150
:10456300121D1B900322228E828F83A3A3A3A3A3D6
:10457300A3A3A3A3A3124E42123DE9492274F71247
:1045830003BEE9FE1245AD1226B112457B601888C1
:10459300828983A3E05403700EEEFB1243A4122618
:1045A300B11245DE1245D8023F95EA125540EB227F
:1045B300C082C083EAF8EBF988828983A3A3A3A30B
:1045C300A3E0FB88828983A3A3A3A31245DEA312DE
:1045D30045D8023412E0F91212D122E0FA88828916
:1045E30083A3A32274E81203BE8A088B098C168D59
:1045F300178914741A120B56E0F50AA3E0F50B742D
:104603001C120B56E0F513741D120B56780C120A8C
:10461300F912622EEB126E37242DFA7B001213BBB4
:104623008A108B11AE10AF11EE4F70030247298E23
:10463300828F837401F08508108509117512007843
:10464300101208DE7C157D00EE241812472C120888
:10465300F585161085171178101208DE7C097D0088
:10466300EE240212472C1208F57418120B5612414D
:1046730071850A82850B83E0C0E0EE240F1226AE1B
:10468300D0E012475CC0E0EE24111226AED0E01257
:104693004757C0E0EE24101226AED0E0123752E5A1
:1046A30013124781E4F0A3F012473B780C120B1767
:1046B300EE24171226AEE51412344BF8A3E0F9EEFC
:1046C300240D1226AE12477B126228126E37602524
:1046D300EE2426124C5E242DF812477312606212E8
:1046E3003FA71208DE12622612418B8A828B831245
:1046F30047481208F5EE2419126E345403601D90D6
:10470300031812457B600CEEFAEFFB123B69121E95
:10471300288013EEFAEFFB1213C1800AEEFAEFFBC7
:104723009003011248C502627CFAEF124732223429
:1047330000FB12139D740322EE241312478922E017
:10474300242B12392712475112139D740322E0FAC6
:10475300A3E0FB2212476AE022124761E0221247DC
:10476300652212476AA322F0850A82850B83A3225E
:10477300EF3400F98A828B8312447CE50822F0EE41
:10478300242612478922F582EF3400F58322F50CA3
:10479300A3E0F50D750E00780C22123445A3A3A3F4
:1047A3002274F11203BE8A088B097A2012487360BF
:1047B3006D8E828F8374061248838E828F83A3A3A8
:1047C300A3A31234378E828F831248241247911287
:1047D30008DE7C107D00EE240612472C1208F585B6
:1047E3000882850983124506EE2416FAEF3400FB8E
:1047F300120C95850882850983A3A3A3A3A3A3A36E
:10480300A3A3A3E0C0E0EE241E1226AED0E012481C
:1048130034C0E0EE241F1226AED0E012483C0264FE
:10482300D9A3A3A3A3A312482D22123441A3A3E027
:1048330022F01244DB12501722F0EEFAEFFB900441
:10484300DAE0F91213C72212478912485122E8F01D
:10485300A3E912485922F085088285098322124868
:104863006522123946F8A3E0F98E828F83A3A3222F
:104873007B001213BB8A0A8B0BAE0AAF0BEE4F22DF
:10488300124865124851A3A3E02274F61203BEEA4C
:10489300FEEBFF7A057B001213BBEA4B601E8A8294
:1048A3008B83740A1248CB8A828B83A3A312449A04
:1048B3008A828B83A3A3A3A3F01248C202348990F4
:1048C30004DAE0F91213C7221248CF221248E11288
:1048D30048D622E0F8A3E0F922A31248E122F08EA1
:1048E300828F8322C082C083E9900A95F0900314DB
:1048F3007457F0A3741DF0900316746FF0A3740B38
:10490300F09003187481F0A3740B02341174F7123E
:1049130003BEEAFEEBFF8908EE4F70031217BD904A
:10492300032612457B700890032680221252878843
:10493300828983A3A3A3A3A3A3A3A3A312496788E1
:10494300828983A3A3A3A3A3A3A3A3A370DEEEF0EF
:10495300A3EF12496DA3A3A3E4F0A312496DE508E5
:10496300F0023F95124751EA4B2212497122124934
:104973007522125926A3A3A32274F71203BE900330
:1049830026800D8E828F83A3A3A3A3A3A3A3A3A394
:10499300125EF0EE4F60348E828F83A3A3A3A3A392
:1049A300A3A3E06970DD8E828F83A3A3A3A3E06A30
:1049B3007003A3E06B70CC8E828F83A3A3A3A3A306
:1049C300A3E06C70BEEEFAEFFB80047A007B00027A
:1049D3003F9574F71203BE900326125EF0900326F0
:1049E300122B6C687002EB697017124A3B125287E4
:1049F30090032612417D900326125EF08030125EF2
:104A0300E3EE4F60298E828F83A3A3A3A3A3122B6C
:104A130068687002EB6970E68A828B83A3A3A3A301
:104A2300A3A3A3A3A3124A48A3A3A312417D1214D1
:104A33003FEEFAEFFB023F95123B87A3A3A3A3A389
:104A4300A3A3A3A322124C87A3A32274F01203BE31
:104A530074FA12095A8A088B098A828B83A3A3A347
:104A6300A3A3A3A3A3E0600D640160098A828B83DF
:104A73001244B860057902024C598508828509837E
:104A8300A3A3A3A3A3A3A3A3E064037015740412B5
:104A93000B56AC82AD83AA08AB09121D81E97013D2
:104AA30080D38508828509831252877404120B56BA
:104AB30012417D12604A126E372432124C72121464
:104AC300398A0A8B0BAE0AAF0BEE4F7003024C57B9
:104AD3007C327D0079001213A97402120B56AA824C
:104AE300AB83850882850983A3A3A3A3A3A3A3A35D
:104AF300A3E0F91213137402120B56E0C0E0EE2484
:104B03002D1226AED0E0F0EE242CF50AEF3400F59A
:104B13000B7403120B56E0850A82850B83F079012F
:104B2300EEFAEFFB121D6985080C85090D750E0061
:104B3300780C1208DE7C1C7D00EE240B12472C122D
:104B430008F5EE2430124C5E243208081247732411
:104B530011F8E509126A24FCE9FD8C828D83123D6C
:104B6300E0242E1226AE12477B124FE51262341256
:104B730008DE8C828D8312450E8A828B831247480E
:104B83001208F57404120B56124C8312417D9003E4
:104B930002124C79F0900302E00412501B242A12F3
:104BA3005545750D00850A82850B83E0780C120A42
:104BB3004C8A828B83E50CF0EE24291226AEE50C99
:104BC300125D78E4F0E5082415F582E509124C6CD2
:104BD30074015007120B5674018004120B56E4F053
:104BE300EE2427123B49851882851983AA82AB8359
:104BF3001212FBE924FE850882850983F0F5087506
:104C03000900EE242E1226AE12450EECF8EDF9AA99
:104C130008AB09120275E88E828F83A3A3A3A3A313
:104C2300A3A3A3F0ECF8EDF9AA08AB091202758B64
:104C330009EA4509600F8E828F83A3A3A3A3A3A3CD
:104C4300A3A3E004F0EE2420126E3444081255B7F7
:104C53007900800279107406023762126A22FAE937
:104C6300FBEE22EE2415F582EF125017A2E022FA92
:104C7300A3E03400FB221244CCA3A3A3A3A3A32247
:104C8300124C87221248D68E828F83A3A3A3A3221A
:104C930074F41203BEEAFEEBFF124539900ADCE01E
:104CA300F8EE242B126E34C3984003024E061255BD
:104CB3005D7015EE242B126E3404124E2FC0E0EEFD
:104CC30024291226AED0E0F0EE2428126E34FC79AB
:104CD30000800109EE242C122CE9E9C398502675B3
:104CE3000801750900E97808120A4C12555D550848
:104CF30060E1E92CFC750801750900E97808120ADE
:104D03004CE04508F0EE2427124E1DEE242E122609
:104D1300AEEC8A088AF0A4F8ABF0E42BF9E098F83B
:104D2300A3E099F9C3E89508E99400EE40392427F4
:104D3300122CE912555D6037EE242D1226AE124E69
:104D430029A3E4F0EC7054EE2420126E34442012B4
:104D53003FDBC0E0EE24261226AED0E0F0EE243096
:104D6300124E1DA3E0805924291226AE74FFF09041
:104D7300034AE0FA900ADFE0F508EA8508F0A4ABFD
:104D8300F075F064A4FAADF075F064EBA42DFB8E1E
:104D9300828F83A3A3EAF0A3EB80A8EE2420126EF4
:104DA3003454DF124781ECF08C08EE2427126E3462
:104DB3008508F0A4FAABF0EE2430F582EF124E141E
:104DC300FBEE241E1226AEEAF0A3EB124E37C0E030
:104DD300EE24251226AED0E0F0EE241C1226AEE817
:104DE300124E3D90032812457B600BECF9123B6990
:104DF300121E28E97018EE240BFAEF3400FB121D83
:104E0300A5800B7BE9EE2422F582EF124FEF0225FA
:104E1300301250172AFAA3E03B22F582EF124E24F8
:104E2300221255A9FA221244CCA3F022F0EE242A2E
:104E330012501422124971A3E022F0A3E4F022E0FD
:104E4300240F123B982274F41203BE900326125EC1
:104E5300F01214E78A0A8B0B7CFF7DFF8020E0C3EE
:104E630098FAA3E099FBC3EA9CEB9D500E8E828FC8
:104E730083A3A3E0C398FCA3E099FD125EE3EE4F86
:104E83006059125283E50AC398F8E50B99F98E82AB
:104E93008F8312571BC3E89AE99B8E828F83A3A348
:104EA30040BCA3A3A3A3E06402701DEE240B125520
:104EB30060600CEE24101226AE12571D1213C1EEC1
:104EC300FAEFFB121D5D8007EEFAEFFB1214757A01
:104ED300017B00900A951236DC801474FF6C70031A
:104EE30074FF6D600A7A017B00900A9512342402E4
:104EF300253074F01203BE8A088B09ECFAEDFB89A6
:104F03000A7C0112604A12554F8A0C8B0DAE0CAF0E
:104F13000DEE4F7003024FE2E50A6003024FE2E534
:104F230008124FE5E0F8EE2428126E34686003029D
:104F33004FE2EE242C124E1DE82AF8E43400F98ED9
:104F4300828F83A3A3A3A3A3A3A3A3E0FAE89AE96D
:104F53009400C365D033401412526E125563700C23
:104F63007B00126043E509124FEF807312526E12F9
:104F730055637031EE242C126E34F9EE2429122677
:104F8300AE7508FF750900E97808120A4CE508F0C8
:104F9300EE242A1226AEE50812500C29F0EE242B3B
:104FA3001236D18022E5082414F8E5093400F9E02B
:104FB300C0E0EE242A1226AED0E0125007C0E0EE85
:104FC30024291226AED0E012501B242D1226AE1235
:104FD3003A39A3124E3D7A01FB900A951236DC0250
:104FE30037652413F582E50912478C22124E24EE0D
:104FF30024141247891245D8EEFAEFFB121D5D22E5
:10500300EAF0A3EB1240EDE022F0EE242812501454
:1050130022F582EF1255A922F0126281F0A3EBF080
:10502300EE2274E81203BE74FD12095AE985188250
:10503300851983F08A0A8B0B8C168D17741B120B40
:1050430056125266741D120B56780C120AF98A8294
:105053008B83A3A3E0F91212EF8A128B13EA451391
:1050630070077A007B000252617A127B00121439B6
:105073008A088B09AE08AF09EE4F700302525D7CBC
:10508300127D0079001213A97401120B56AA82AB88
:1050930083850A82850B83A3A3E0F9121313EE24FD
:1050A3000FF508EF1262067402120B56E0850882B0
:1050B300850983F07902EEFAEFFB121D69851682EA
:1050C300851783124C83E8F0A3E91252B28E828FC4
:1050D30083A3A3A3A3A3A3A3F07514FF751500854E
:1050E3000882850983E07814120A4C1226ABE51472
:1050F300F0851282851383A3E0F8124232C0E0EEFA
:10510300240B1226AED0E01252BCF508EE240D1289
:1051130026AEE508F0125568E08508F0A42424FAC9
:10512300E5F03400FB1213BB8A088B09EE2410123E
:1051330026AE124540EA450970030252528A828B19
:1051430083741A124E3D8A828B83A3A3F0A3125257
:10515300A612528F12417DAC16AD17EA2406FAEB64
:105163003400FB12130D850A82850B83A3A3A3E0EE
:10517300C0E0E508240FF582E5091226B1D0E0F07E
:10518300900367125287E50824101252771252CC0B
:10519300A3125287E508241212527712475CC0E02B
:1051A30012526E1226B1D0E0F0E50A125540E50B1B
:1051B300126E37C0E0E5082415F582E5091226B121
:1051C300D0E012529DC0E0E5082416F582E50912ED
:1051D30026B1D0E0126E3BE0C0E0E5082417F5826B
:1051E300E5091226B1D0E0126E3BA3E0C0E0E5086A
:1051F3002418F582E5091226B1D0E012448EC0E0EE
:10520300E5082419F582E5091226B1D0E0F0E50896
:10521300241AF582E5091226B1780C120B17E5085A
:105223002424F8E5093400F9E5082422F582E50988
:1052330012417AE50A126045E50B126E37C0E0E5CC
:1052430008241FF582E5091226B1D0E0F0800BEEA9
:10525300FAEFFB121D5D7E007F00EEFAEFFB740395
:10526300026279E0F510A3E0F51122E5082414F5B4
:1052730082E50922F582E50912478CE8F0A3E922C9
:105283008E828F8312528B221248D622E0F8A3E03B
:10529300F98A828B83A3A3A3A322F08510828511AD
:1052A30083E0221252AA22124765A3A3A3A322F0EA
:1052B300126052E50B12501722F01252C41250170B
:1052C30022E50A12622FE50B221252AAA3A3A322FC
:1052D30074E81203BE8A0A8B0B8C108D1189147427
:1052E30018120B56E0F516A3E0F517741A120B56B5
:1052F300780C120AF9750900EA2413F582EB126E91
:1053030037F50890032812457B6011A908900328FC
:10531300123B66121E28E9600302553D7C0285108C
:105323008285118312571D126052E50B12554F8A65
:10533300128B13AE12AF13EE4F704B850A82850B9F
:1053430083A3E0A2E0400302553D780C1208DA780B
:10535300161208E2A914AC10AD11AA0AAB0B120B7A
:105363007574061208F58A0C8B0DAE0CAF0DEE4F5B
:10537300700302553D8E828F83A3A3A3A3A3A3A38C
:10538300A3E5081255B785080C8E828F83A3A3A3C8
:10539300A3A3A3A3A3E024FFF8E434FFF9E8650C77
:1053A3007001E97003750901EE240B125560700357
:1053B3000254F0850A82850B83A3E0A2E0500375B3
:1053C3000800125589E50C98E499C365D033401E53
:1053D300E0F8EE240E126E3428F0750CFF750D0004
:1053E300E8780C120A4CEE125540EF125556126033
:1053F30059E50B123FA71208DE12418885080CEE0F
:10540300240D126E34850CF0A4F8A9F0EE241012CA
:105413006E342422123E0828FAA3E039FB12416BB2
:105423001208F5750C01125574780C120A4C126EA1
:1054330031450CF0E509A2E05065EE240C12554508
:1054430012557404780C120A4C8A828B83E0450C43
:105453001255AF85080C850CF0A4F81252C4126ED5
:1054630037FCE82CFCE5F03400FDEE24101226AEE8
:105473001255821257B2F47026EE240BF50CEF345A
:1054830000F50DEE24101226AE12571D850C8285F1
:105493000D831248C5850C82850D8374FF804D12E0
:1054A300453990034AE0FA900ADFE0F50CEA850CEF
:1054B300F0A4FAABF0F8EBF9900ADCE0F50CE88520
:1054C3000CF0A4F8ACF0850CF0E9A42CF9EA28F868
:1054D300EB39F9E875F064A4F8AAF075F064E9A46F
:1054E3002AF98E828F83A3A3E8F0A3E9F0125589EA
:1054F300125EDAE8650C7001E9600EEE240C1255B9
:10550300606006E509A2E05031EE240E126E34C04D
:10551300E0125568D0E0F0126E31C0E0E50A2414C1
:10552300F582E50B1226B1D0E0F0AC0AAD0B851085
:105533008285118312571D120BC302627C240CF562
:105543008222126A22FAE9FB750CFF2212565A12C2
:105553001D632212478CE50CF022EE2429F582EF1D
:10556300125017F422E50A2413F582E50B12478C37
:1055730022750D0012559FF5F0E50884E5F022E051
:1055830024201239272285080CEE240E125014F819
:1055930012559FFAE82AF8E43400F922EE240FF5B5
:1055A30082EF1255A9223400F583E022F0EE240D98
:1055B30012501422F07A017B00900A95E0F912133D
:1055C300F122C082C083900A951248C50234127436
:1055D300F41203BE8A088B09EB5480703BEAA2E005
:1055E3005047120B69E5086401FAAB09803F8E82CC
:1055F3008F83E06401701A12473B1207101224577D
:105603001208E2EE2412125643120B7B74061208A0
:10561300F5EEFAEFFB1213C1900A9512563370CED2
:10562300AA08E5096480FB80047A007B0002253028
:10563300E0F91213CD8A0A8B0BAE0AAF0BEE4F22A1
:10564300F582EF12565AEE2402FCEF3400FDEE24ED
:1056530018FAEF3400FB221255A9F92274F1120350
:10566300BE890A8A088B098A828B8312571D120B03
:10567300938B0DEA450D600479B8807F120B9F90E0
:105683002351E493F8E9C398400479B2806D7A1505
:105693001257017004791080628E828F83E4F0A325
:1056A300125D6BA3E50AF085080C85090D750E00E4
:1056B300780C1208DE7C127D00EE24030A0A0A121B
:1056C300472D1208F590032A12457B90032A700692
:1056D300EEF0A3EF801FE0FAA3E08003E8FAE9FB12
:1056E3008A828B8312457B70F3EEF8EFF98A828B03
:1056F30083E8F0A3E9F0120BB179000264D97B00CF
:105703001214398A0C8B0DAE0CAF0DEE4F228E8224
:105713008F83A3A3A3A3A3A3A3A312475122C0824E
:10572300C08390032A80048C828D8312576360297F
:105733008C828D83A3A3E069600574FF6970E88C94
:10574300828D83A3A3A3E06A7003A3E06B70D8ECFC
:105753002403FAED3400FB80047A007B0002341248
:10576300124512EC4D2274F71203BEE9FC74FE6C71
:1057730070047D0180027D0090032A80096C700211
:105783007D018882898312457B601F88828983A378
:10579300A3A3E06A7003A3E06B70E7EDA2E0888245
:1057A3008983A3A3E050D6F9800279FE023F95ECEA
:1057B300F0A3EDF08A828B83E022C082C08379005C
:1057C30090032A80010912571D8A828B83E5824543
:1057D3008370F202341274F61203BEE4F508F5097D
:1057E30078081208E2902351E49375F013A424027D
:1057F300FCE5F012591212148D74021208F5E9FE39
:105803006003120BABEEF902348974F61203BE7413
:10581300FE12095A851882851983E4F0A3125D7874
:1058230085820885830978081208E27508027509DC
:105833000078081208E21263381208F502348474FF
:10584300F51203BE74EB12095A851882851983E495
:10585300F0A3F090032AE0FEA3E0807D8E828F8385
:10586300A3A3E0C0E07402120B56D0E012591AA9A8
:1058730082AA8389088A09750A0078081208DE7CDF
:10588300127D007406120B561241671208F574025A
:10589300120B5685820885830978081208E2750879
:1058A3001375090078081208E27404120B56123DAE
:1058B300E575F013A4F8AAF075F013E912590A126A
:1058C30063401208F5851882851983E02401F0A34B
:1058D300E034001248CBE8FEE9FFEE4F60030258C4
:1058E3005F85188285198385820885830978081264
:1058F30008E275080275090078081208E212633895
:105903001208F574158027A42AF9E82402FCE93467
:1059130000FD7A427B002212591E221259222212C2
:10592300592622F08E828F83A3A3A322740D12081B
:10593300F57F0302068B74F41203BE74EB12095A4B
:105943007E007F00851882851983858208858309F7
:1059530078081208E27508028E0978081208E27CBA
:10596300007D007A421264181208F5E970748E08FB
:10597300805E7402120B5685820A85830B780A12A5
:1059830008E2750A13750B00780A1208E2E5087538
:10599300F013A4F8AAF075F013E50912590A12647A
:1059A3001A1208F5E9701E7403120B56AA82AB8310
:1059B3007402120B56E0F9120B8DE97008EE240104
:1059C3000EEF3400FFE5082401F508E5091262062D
:1059D300851882851983125287C3E50898E50999CA
:1059E3004090EEFAEFFB741502252D74F61203BEF8
:1059F3008C828D83A3A3125BECF0EA2417F582EB70
:105A0300126E37C0E0EC12622FED1226B1D0E0F037
:105A1300EA241DF582EB1226B1125287EC12681BA1
:105A2300ED1226B1125BECA3F0A3F012681AEB128D
:105A330026B1125BDEA3A3A3A3A3A3EEF0A3EF12ED
:105A43005007FE8C828D83125C0B74035EFEC3943D
:105A530003400FEC240D123F7DEC2410123F7D0216
:105A63005BC6EE600574026E70748C828D83E054A5
:105A73000CFE740C6E7003025B63E0A2E4400D88BD
:105A8300828983E08C828D83A3125C3574086E60F7
:105A930003025B63EC125540ED123BD2F08A828B1A
:105AA30083A3A3A3125D3670148C828D83E0440C10
:105AB300125BFAA3A3125BDEEEF0A3EFF08C828DF0
:105AC30083E0A2E44018125BC9125C18125BD2A3F4
:105AD300A3125C188C828D83A3A3A3125C0B888210
:105AE3008983E0C0E0EC126054ED1226B1D0E012DD
:105AF3005C0B8C828D83E0A2E7507C88828983E0F3
:105B0300FE8C828D83125C3574FC5E6003025A56F0
:105B13008C828D83A3E0540364037003025A568C72
:105B2300828D83A3E05403605188828983E0C0E0BF
:105B3300EC2413F582ED1226B1D0E0125C368C8290
