:020000040000FA
:06000000020AF102021ADF
:03002B000208AB1D
:0300530002013A6D
:03006B000204FC90
:100083000201A4010101FF050301F511F511F511A9
:10009300F511AB10A510F511D820000000001420B5
:1000A300000000000C0000000C0001FFFF01010133
:1000B30000DA0400000060EA2B0560EAF401F401B1
:1000C300B8010202008810060502070401051E029A
:1000D300051E020A0A03B80B02803E010201FFFF5C
:1000E300020A011401E09651180002020612FF0CE5
:1000F30001CD1BD31BD91BDF1B0000000000000038
:1001030000000000000000000000000000000010DC
:1001130020202020202020202020202020202020DC
:10012300010120040103050005738001F680010825
:1001330000EF4C0A290B00C0E074F112049DA2AF3A
:10014300E433FED2AFE5A7FFE5A1F5085FF5097437
:10015300105509600612189175A1EF7408550960CE
:100163000812189775A1F7802BEFA2E0C0D0E5081D
:10017300A2E092F0120A67158182F05017906198FD
:10018300E0F89005F2E0C398A2D265D0335002E8BC
:10019300F075A1FE751A00EEA2E092AF7F02020590
:1001A30057C0E074F212049DA2AFE433FED2AF90C5
:1001B30061A4E0F8759B00E59158540860087591B7
:1001C300F71218D9802AE59158541060087591EFF9
:1001D3001218DF801BE8A2E0C0D0E591A2E092F004
:1001E300120A67158182F05007E0C2E0F0121A2369
:1001F3009061A3E0F8E5E9585404600E1219F9750B
:10020300E9FB906193E0A2E640F2751A00EEA2E0EA
:1002130092AF7F01020557C0E074F212049DA2AFB2
:10022300E433FED2AF9061A5E0F8E5BF5854046013
:100233000675BFFB121A3580D1C3E498F8E499F927
:1002430012027D8026C3E49AFAE49BFBE920E7E9E6
:1002530012027DE498F8E499F922C3E498F8E4994A
:10026300F912027DE498F8E499F9C3E49AFAE49B5D
:10027300FB22EB20E7CFE920E7E0B90010BB000841
:10028300E88AF084F8AAF022E4FBC8FA22EB702291
:100293007B10C833C8C933C9335007C39AC3DBF2D1
:1002A30080069A50012ADBEAC833F4C8C933F4C97B
:1002B300FA2275F008E4C833C8C933C933C99AC9E7
:1002C3009B5004C92AC93BD5F0ECFBC833F4C8E4FE
:1002D300C9FA22080808EAC0E0EBC0E086F0E7A408
:1002E300FA180986F0E7A42AFA180986F0E7A42A7F
:1002F300FA180986F0E7A42AFA1986F0E7A4FBE5C1
:10030300F02AFA190886F0E7A42BFBE5F03AFA196C
:100313000886F0E7A42BFBE5F03AFA18180986F0F3
:10032300E7A4C5F02BFBE43AFA1908E7C5F0C6A425
:1003330026F6E5F03BFBE43AFA1886F0E7A4F6E587
:10034300F00826F6E43B08F6E43A08F6D0E0FBD0E2
:10035300E0FA22E4CFC0E0E4CEC0E0E4CDC0E0E4C4
:10036300CCC0E075F020C3E633F608E633F608E6C2
:1003730033F608E633F6181818EC33FCED33FDEECC
:1003830033FEEF33FFC3EC9709ED9709EE9709EFBF
:1003930097191919400FFFEC97FC09ED97FD09EE2A
:1003A30097FE191906D5F0BEECF709EDF709EEF73C
:1003B30009EFF7191919D0E0FCD0E0FDD0E0FED029
:1003C300E0FF222518C582C0E0E51934FFC583C0CC
:1003D300E0E518C3958224F810AF08858319858258
:1003E300188008858319858218D2AFCEF0A3E52043
:1003F300F0A37808E608F0A3DEFAEFF0A3E5812482
:10040300FAF8E608F0A3E608F0A3E608F0A3080864
:10041300E608F0A3E608F0A315811581D0E0FED02D
:10042300E0F8158115811581E8C0E0EEC0E02212E5
:100433000B53B90003020487E4900301788B790816
:100443008002F0A3D8FCD9FA781A9000867A01BA10
:1004530000028007E493A3F608DAF9900A8BAA82D4
:10046300AB8390008778B479018015E493A3AC82C1
:10047300AD838A828B83F0A3AA82AB838C828D8324
:10048300D8E9D9E77582617583C1740312088D7544
:10049300821975831E740012088DC0D02518C58279
:1004A300C0E0E51934FFC583C0E0E518C395822495
:1004B300F310AF0885831985821880088583198511
:1004C3008218D2AFC8F0A3E9F0A3EAF0A3EBF0A33C
:1004D3007908E709F0A3D8FAECF0A3EDF0A3EEF066
:1004E300A3EFF0A3D0E0F0A3D0E0F0A3D0E0F0A31B
:1004F300E520F0A3E5F0F0A322C0E074F212049D1E
:10050300A2AFE433FED2AFE589A2E15019900A51BC
:10051300E0701353ABFD7CE87D037A107B00900AF7
:100523004CE0F91214CBE589A2E7501653AB7F9048
:100533000A7EE4F07C64FDFA7B20900A4CE0F91219
:1005430014CB758900C2C5751A00EEA2E092AF7F85
:1005530001020557851983851882E0C0E0A3E0F9FD
:10056300A3E0FAA3E0FBA37808E0F608A3DFFAE030
:10057300FCA3E0FDA3E0FEA3E0FFA3E0C0E0A3E053
:10058300C0E0A3E0F5D0A3E0F520A3E0A3F5F010CD
:10059300AF08858319858218800885831985821899
:1005A300D2AFD082D083D0E0F8D0E0320375F01020
:1005B3008E218F228582268583258518828519833E
:1005C300E0CEA3E0CF852682852583EBC9EAC8ED7B
:1005D300CBECCAC3E833C8E933C9EA33CAEB33CB3C
:1005E300C3EA9EF524EB9FF523B35004AB23AA245F
:1005F300EC33CCED33CDD5F0DAAE21AF2222D0836C
:10060300D082ECC0E0EDC0E0E493A3FCE493A3FD4F
:10061300ED4C600D1206D9EC24FFFCED34FFFD8098
:10062300EFE493A3FCE493A3FDED4C600D12077676
:10063300EC24FFFCED34FFFD80EFD0E0FDD0E0FCC7
:10064300E493A3C0E0E493C0E022D083D082E9C066
:10065300E0E493A3C386F0C5F095F0F908E493A30F
:1006630086F0C5F095F0700BE493A3C3994005E9B8
:10067300048002A3E475F002A42582F582E5F03537
:1006830083F583D0E0F9E493A3C0E0E493C0E022D0
:10069300851983851882E0A3FEE0A3F5207808E09E
:1006A300A3F608DFFAE0A3FFE0A3C0E0E0A3C0E005
:1006B300E0A3C0E0E0A3C0E0E0A3C0E010AF088582
:1006C30082188583198008858218858319D2AFD053
:1006D30083D082020893C0E0C3E493960874019325
:1006E3009618400FE49366700808740193661870B7
:1006F300007019A3A3C3E49396087401939618A3F7
:10070300A3400DD0E0D0E0D0E002063DA3A3A3A315
:10071300A3A3D0E0227404800474028000CCC0E060
:10072300EDC0E0E518C39CCCAD1950011D10AF0618
:100733008C188D1980068C188D19D2AF12080FD022
:10074300E0FDD0E0FC2274028000CCC0E0EDC0E00C
:10075300E518C39CCCAD1950011D10AF068C188D44
:100763001980068C188D19D2AF1207EDD0E0FDD099
:10077300E0FC22C0E0C0F088F0E4936670080874DF
:10078300019366187000A8F0A3A3700BD0F0D0E01B
:10079300D0E0D0E002063DA3A3D0F0D0E022D08386
:1007A300D082CCC0E0E493A3600612086E1470FA02
:1007B300E493A360061209781470FAD0E0FCE49382
:1007C300A3C0E0E493C0E022A2E792D65002F4046F
:1007D30030F70663F0FF05F0B3400384800384F42D
:1007E3000430D60563F0FF05F022CAC0E0E493A30A
:1007F300C582CCC582C583CDC583F0A3C582CCC5D4
:1008030082C583CDC583DAE5D0E0CA22CAC0E0E061
:10081300A3C582CCC582C583CDC583F0A3C582CCD5
:10082300C582C583CDC583DAE6D0E0CA2270090844
:100833000808226016181818C6C333C608C633C67C
:1008430008C633C608C633C6D5E0EA22C008C3E0EB
:1008530096F50808A3E096420808A3E09642080824
:10086300A3E09645087001D3D00822C0E0E493A327
:10087300D39C5010E493A3C39C400AD0E0D0E0D0B3
:10088300E00207BEA3A3A3D0E022C09FF59FE473B9
:10089300D09F22D083D082C09FE493C0E0740193A1
:1008A300C0E0740293F59F22C0E0C0D0E8C0E0E549
:1008B300A8D2AFC2C7751A00A2E792AFD0E0F8D0B2
:1008C300D0D0E0322518F58210AF08F51840021594
:1008D300198008F51840021519D2AF8519832274BF
:1008E30004800A74038006740280027401C0E0F479
:1008F300041208C7D0E0120B2E22C0D0251810AF67
:1009030008F518500205198008F51850020519D288
:10091300AFD0D022BB0102E722C082C08389828A82
:1009230083BB0003E08002E493D083D0822260166D
:10093300080808C6C313C618C613C618C613C618B4
:10094300C613C6D5E0EA22C3E0C696F608A3E0C6FE
:1009530096F608A3E0C696F608A3E0C696F6222507
:100963001810AF08F518400215198008F518400251
:100973001519D2AF22C0E0E493A36C7009D0E0D084
:10098300E0D0E00207BEA3A3D0E022E76670100820
:1009930009E766700A0809E76670040809E7662232
:1009A300E066701008A3E066700A08A3E0667004AE
:1009B30008A3E06622C3E09608A3E09608A3E096A6
:1009C30008A3E096A2D265D03322C3E697F60809BE
:1009D300E697F60809E697F60809E697F622C3E0D4
:1009E30096F008A3E096F008A3E096F008A3E0963B
:1009F300F022E026F608A3E036F608A3E036F60870
:100A0300A3E036F622E026F008A3E036F008A3E0E0
:100A130036F008A3E036F022E657F60809E657F663
:100A23000809E657F60809E657F622E056F608A342
:100A3300E056F608A3E056F608A3E056F622E6478A
:100A4300F60809E647F60809E647F60809E647F611
:100A530022700422600D18C6C333C608C633C6D538
:100A6300E0F41822C0E0E8C0E0E58124FCF8E6A247
:100A7300E7D0E0F8D0E022E627F60809E637F608E3
:100A830009E637F60809E637F622E056F008A3E050
:100A930056F008A3E056F008A3E056F022E4C3960C
:100AA300F608E496F608E496F608E496F622C6F409
:100AB300C608C6F4C608C6F4C608C6F4C622600D46
:100AC30008C6A2E713C618C613C6D5E0F322C3E7C8
:100AD300960809E7960809E7960809E79622C3E00E
:100AE3009608A3E09608A3E09608A3E0962275D0A3
:100AF3000075814075180175190300020432E0F690
:100B030008A3E0F608A3E0F608A3E0F622600C08C9
:100B1300C6C313C618C613C6D5E0F422E6F008A36D
:100B2300E6F008A3E6F008A3E6F022CAC0E0E6F088
:100B3300A308DAFAD0E0FA22E0FAA3E0FBA3E0FC90
:100B4300A3E0FD22EAF0A3EBF0A3ECF0A3EDF02287
:100B5300E5C754F84401F5C77901222518F582E465
:100B63003519F58322C2AF75D69F02000022120801
:100B7300963F4E00120896EB4E001208961B50004B
:100B8300120896C95200120896BB5500120896C85F
:100B9300550012089655560012089617570012086A
:100BA300965F5700120896B35700120896CF570066
:100BB3001208960358001208963858001208962F08
:100BC3005900120896E45900120896335C00120883
:100BD30096865D00120896295E00120896B65E009E
:100BE300120896EC5E001208969E5F00120896703B
:100BF30060001208963062001208968D6200120897
:100C030096C162001208963C6300120896166400AF
:100C1300120896D4640012089619650012089631DA
:100C23006500120896C86500120896396800120814
:100C3300963F6A001208965D6A001208967B6A0066
:100C4300120896556B001208967D6E0012089608DE
:100C5300A9021208963DA90212089663A902120876
:100C6300969DA902120896AFA90212089601AA023C
:100C730012089662AA02120896ECAA02120896902B
:100C8300AB02120896D8AB0212089612AC021208F5
:100C9300962FAC0212089654AC02120896A6AC0228
:100CA300120896BFAC02120896E5AC02120896042D
:100CB300AD021208963FAD0212089683AD021208E8
:100CC30096AAAD02120896FBAD02120896ABAE02CD
:100CD30012089663AF021208962BB0021208960808
:100CE300B1021208968EB1021208969DB102120843
:100CF30096A8B102120896B1B202120896C2B202C5
:100D030012089638B302120896CAB3021208962242
:100D1300B402120896E8B40212089619B502120832
:100D2300965EB5021208966BB502120896FFB602DC
:100D330012089664B80212089680B902120896EA5D
:100D4300BB02120896F5BB02120896FFBB021208FB
:100D5300960ABC0212089614BC021208961EBC0224
:100D630012089629BC0212089634BC021208966532
:100D7300BC0212089689BC02120896ADBC02120886
:100D83009612BD0212089656BD0212089672BD0253
:100D9300120896E9BD0212089621BE021208966D4A
:100DA300BE02120896CABE02120896ACC00212080E
:100DB3009632C1021208960BC2021208961BC50294
:100DC30012089670C5021208969DC502120896E98C
:100DD300C60212089639C7021208968EC702120875
:100DE300968FC80212089627C902120896A9C9024B
:100DF30012089649CA02120896FC80011208963519
:100E030081011208960F83011208964E830112087E
:100E1300969883011208963D84011208969C8401DA
:100E2300120896D084011208963D85011208965A3D
:100E33008601120896628701120896F88701120844
:100E4300963F8B01120896E88B01120896C48C0119
:100E5300120896258D01120896428E011208966C8F
:100E630090011208962391011208962D9101120800
:100E730096609101120896279201120896C2920178
:100E8300120896279301120896509301120896723E
:100E93009301120896A195011208967896011208FB
:100EA30096BC9601120896299701120896E49701B9
:100EB3001208961698011208965A98011208968DF0
:100EC3009801120896E298011208963799011208C0
:100ED30096CB99011208962D9A01120896959A01BC
:100EE3001208963E9C01120896269D0112089668E8
:100EF3009E0112089696A00112089656A1011208A7
:100F03009685A30112089628A40112089666A401E7
:100F130012089612A60112089626A6011208963008
:100F2300A6011208965AA60112089666A60112088F
:100F33009685A6011208963CA7011208967BA70185
:100F430012089685A7011208968FA701120896DA50
:100F5300A7011208963DA80112089644A901120898
:100F630096FFA901120896FEAA01120896F7AB0193
:100F730012089694AC0112089636AD011208964DEC
:100F8300AD0112089684AD01120896A2AD011208B4
:100F930096E6AD011208960BAE01120896F1AE016A
:100FA3001208965DAF01120896D7AF01120896E6B4
:100FB300B00112089625B20112089687B2011208F1
:100FC3009641B30112089664B30112089638B4012E
:100FD30012089683B401120896C5B4011208961C30
:100FE300B50112089653B50112089681B50112088E
:100FF30096BAB501120896DFB50112089667B601D5
:101003001208968AB801120896E9B8011208967D6B
:10101300B901120896E9B9011208963DBA011208FE
:101023009677BA01120896389E03120896709E03AB
:10103300120896919E03120896D39E0312089639BE
:101043009F03120896439F03120896539F031208A7
:1010530096889F03120896D1A2031208967BA403D5
:101063001208967BA603120896188102120896723C
:101073008102120896CE81021208961A8202120881
:1010830096358202120896668202120896838202BD
:101093001208968F82021208960384021208961C85
:1010A3008402120896838402120896968402120818
:1010B30096A484021208965885021208963C86026A
:1010C300120896428702120896C88702120896D21F
:1010D30087021208963F8802120896568802120861
:1010E30096888802120896C18802120896EB880235
:1010F3001208964C89021208966C89021208968A85
:101103008902120896D08902120896F68A021208FA
:1011130096438B02120896728B02120896E88B0292
:10112300120896108C02120896498C0212089657E0
:101133008C02120896AF8C02120896FE8C021208DB
:10114300963D8D021208966D8D02120896998D02B6
:10115300120896A48D02120896C28D021208968474
:101163008E021208968E8E02120896C98E021208FB
:1011730096DF8E02120896E88E021208963D8F02C1
:10118300120896518F021208965F90021208967207
:1011930090021208968990021208969E90021208F5
:1011A30096409102120896C3910212089681920208
:1011B3001208968C9202120896B29302120896CEE7
:1011C30093021208962094021208965F9402120862
:1011D30096749402120896B6940212089603970224
:1011E300120896819702120896F49702120896162F
:1011F3009A021208962E9A02120896319A0212083F
:10120300963D9A02120896519A02120896599A022A
:101213001208968C9A021208963C9B02120896B208
:101223009B02120896259C02120896D99C0212086A
:10123300968E9D02120896AD9D021208964D9E024F
:10124300120896599E02120896849E0212089687E7
:101253009E02120896B69E02120896CB9E021208B0
:1012630096359F021208965DA00212089635A102D8
:10127300120896C0A102120896D9A20212089696E5
:10128300A302120896CFA30212089600A402120822
:1012930096A0A402120896D0A402120896ABA50247
:1012A30012089644A602120896CFA6021208968048
:1012B300A70212089602A80212089634A80212087E
:1012C3009675A802120896AAA802120896FC8A0329
:1012D300120896618B031208969E8B03120896EDF3
:1012E3008B03120896D78D03120896BE8F0312083C
:1012F30096F792031208961D9303120896359303EB
:101303001208969E9303120896DA9303120896071F
:1013130094031208963994031208969794031208BB
:10132300966EF402120896ECF4021208961EF50269
:1013330012089676F502120896F0F6021208960C39
:10134300F70212089647F702120896CEF702120820
:10135300961EF802120896EBF802120896EFF902AD
:1013630012089643FA02120896BEFA021208961F52
:10137300FB0212089660FB021208960BFC0212088D
:101383009629FD021208965FFD02120896AAFD0235
:10139300120896F1FD021208967BFE0212089620AF
:1013A300FF021208962DA70312089673A7031208CB
:1013B30096DDA703120896FEA7031208969EA803BC
:1013C300120896A8A803120896F5A8031208961AFD
:1013D300A9031208967AA90312089610AA03120801
:1013E3009648AA03120896A1AA03120896FDAA0317
:1013F30012089685AB03120896CAAB031208960926
:10140300AC031208964EAC0312089660AC031208A4
:1014130096A9450012089691AC031208969AAC035C
:101423001208964BAD031208968BAD03120896F182
:10143300E603120896C3D703120896F9D7031208D6
:101443009642D8031208968FD903120896FCCA0253
:1014530012089675CC0212089636CE0212089672BE
:10146300CE02120896F9D1021208963FD202120850
:1014730096894C0012089626D502120896D2D502F8
:101483001208967DD702120896C7D902120896E36E
:10149300DC02120896F1DC02120896CCDD02120877
:1014A30096DFE102120896A3EA03120896BEEA0346
:1014B30012089614EA0312089663CC031208967670
:1014C300CC0312089611CD031208964DCD031208D2
:1014D3009672CD03120896B7CD03120896F0CD038A
:1014E30012089628CE0312089692CF03120896D6B6
:1014F300CF03120896A57F00120896D07F0012082A
:1015030096EC7F0012089672E202120896C4E20279
:1015130012089633E302120896EBE302120896557B
:10152300E40212089634E50212089649E50212080D
:101533009693E502120896D7E502120896EAE502A9
:1015430012089636E60212089620E802120896A2BE
:10155300E802120896CCE80212089604E90212087F
:10156300968FEA02120896FFEA021208968CEB02A3
:101573001208969FEB02120896EEEB0212089604ED
:10158300EC021208961BEC021208964AEC021208AF
:10159300965CEC0212089627ED021208968AED0279
:1015A300120896D6ED02120896D0EE021208965053
:1015B300F102120896E4F1021208962FF2021208C1
:1015C30096A4F202120896C1F202120896C4F2021D
:1015D300120896D4F2021208964BF302120896856B
:1015E300F302120896B1F302120896D8F302120816
:1015F30096F7F30212089632F40212089649F4029F
:101603001208961AE90312089626E903120896604F
:10161300E9031208969B6E00120896C66E00120824
:1016230096CB6F00120896437000120896AD7000B7
:10163300120896F970001208966C7100120896F75A
:101643007100120896827200120896B57200120891
:1016530096A97700120896517900120896BB7A0072
:101663001208962A7B00120896008003120896BF80
:1016730080031208962F8103120896D6810312085D
:10168300963382031208965A83031208961A840328
:101693001208967F84031208962D8603120896EA91
:1016A3008603120896148803120896AD880312085D
:1016B300969D8903120896A4E4011208962CE5016D
:1016C3001208969FE501120896F3E5011208962E7B
:1016D300E601120896BBE601120896D7E701120845
:1016E3009629E80112089687E801120896CAE801CC
:1016F3001208963FE90112089689E9011208960833
:10170300EB01120896CFEB0112089675EC01120853
:101713009694EC01120896D4EC0112089698ED0108
:101723001208967CEF0112089693EF01120896E9CE
:10173300F00112089666F1011208961AF2011208D6
:10174300965EF20112089625F401120896FDF40143
:1017530012089639F601120896F2F601120896233A
:10176300F80112089652F8011208962CF901120892
:1017730096FBF90112089654FA011208966CFA01C5
:101783001208966CFB01120896FAFB011208967474
:10179300D50312089633D603120896ECD603120823
:1017A3009652D703120896E5C1031208964EC30357
:1017B30012089650EB03120896E1DD03120896EF28
:1017C300DD031208966AEB0312089697E9031208E1
:1017D30096A7E903120896B3E9031208960EEA03E3
:1017E300120896F3E50312089674E603120896D8D6
:1017F300E603120896F9FF02120896E7FF011208A2
:1018030096F7FF01120896FAFF01120896FDFF01F1
:10181300120896F87F001208960EDC031208963021
:10182300DC031208965ADD03120896DEDD03120864
:1018330096F2B70312089647B8031208961BBA0329
:101843001208964DBA0312089674BA0312089688C2
:10185300BA03120896A1BA03120896D0BB03120862
:10186300960EE10312089632E1031208964BE10348
:101873001208967EE103120896AFE103120896DD83
:10188300E103120896E7E10312089649E2031208FE
:101893009658E20312089662E2031208966FE20377
:1018A300120896077D00120896447D00120896538D
:1018B3007D00120896727D00120896DA7D001208E8
:1018C30096E37D00120896427E00120896667E001B
:1018D300120896597F00120896667F0012089677C1
:1018E3007F00120896E7EA0312089604EB03120836
:1018F30096B4AD03120896FAAD0312089659AF03D6
:1019030012089666AF0312089679AF0312089698E9
:10191300AF03120896AEAF03120896C2AF031208C4
:101923009637B0031208969CB00312089624B103AD
:10193300120896ADB10312089682B203120896926A
:10194300B203120896A1B2031208967FE8031208A5
:1019530096A4E803120896CDE803120896F5E80367
:10196300120896F6D9031208961DDA0312089699FF
:10197300DA03120896FBD20312089614D303120853
:101983009620D30312089634D30312089652D30336
:101993001208965CD30312089666D303120896794D
:1019A300D303120896D1D3031208960AD40312085C
:1019B3009638D40312089686D403120896D3D40318
:1019C300120896EED403120896F8D4031208962A46
:1019D300D5031208969CFF02120896EDFF02120827
:1019E30096E794031208961195031208962D950312
:1019F3001208964095031208967F950312089600E5
:101A03009603120896389A03120896629B031208EB
:101A130096959B03120896E29B031208960A9D0370
:101A2300120896329D03120896559D031208969943
:101A33009D03120896FA9D031208960A9E03120844
:101A43009679E20312089694E203120896BDE20324
:101A5300120896D7E203120896FCE2031208961BBB
:101A6300E30312089633E30312089661E3031208B3
:101A7300967BE303120896C4E7031208960AE80369
:101A8300120896C5C803120896CCC803120896011B
:101A9300CA0312089630CA031208969ECA03120894
:101AA3009631CB031208966ACB03120896B3CB0385
:101AB300120896E3CB0312089603CC03120896ACE4
:101AC300E303120896BEE303120896D8E403120850
:101AD30096DBE403120896DEE4031208963DE50361
:101AE30012089693E503120896D4E503120896C1EB
:101AF300BA01120896DCBA0112089651BB0112080A
:101B030096D7BB011208966ABC0112089686BC01DF
:101B130012089630BF01120896DFC1011208967DA4
:101B2300C301120896C8C4011208967DC9011208A0
:101B33009679CA01120896EFCA01120896BBCB0127
:101B43001208965FCC01120896C2CD011208966264
:101B5300CE01120896ACCE011208961ECF011208D0
:101B630096C3CF0112089690D001120896F6D001C1
:101B7300120896FBD101120896B8D20112089655A5
:101B8300D301120896ACD50112089640D60112086B
:101B930096BCD60112089648D90112089643DA0179
:101BA30012089672DA0112089631DC0112089605C2
:101BB300DE01120896FBDE01120896E4E301120827
:101BC30096DAB20312089629B303120896ECB5030A
:101BD300120896EFB50312089628B6031208962B3F
:101BE300B6031208962EB60312089608B703120816
:101BF30096ABFC01120896D0FC0112089673FD0106
:101C030012089640FE01120896FFFE011208965D27
:101C1300FF011208967FFF0112089697DF0312084F
:101C230096D4DF03120896EDDF03120896FEDF0356
:101C3300120896B0E003120896C7E003120896262E
:101C4300C503120896E7C50312089656C603120881
:101C5300967BC60312089636C7031208965FEA03FB
:101C6300120896E3CF0312089606D0031208965182
:101C7300D0031208966DD0031208969ED003120863
:101C830096AED00312089691D1031208969BD10306
:101C9300120896A8D103120896C7D203120896DB3E
:101CA300D203120896E4D203120896ACBC031208BE
:101CB300965CC10312089623EB031208967645003F
:101CC300120896494500120896444400120896FCEF
:101CD3004300120896314200120896B141001208DF
:101CE30096894100120896164100120896D63F00C5
:101CF300120896383F00120896063F0012089643D2
:101D03003E001208966E3C00120896FF3B00120834
:101D130096D13B00120896CE3B00120896403A003B
:101D23001208964139001208961A38001208966074
:101D33003700120896D83600120896DE35001208CE
:101D430096363500120896843400120896444A00E9
:101D5300120896CB4900120896724900120896069B
:101D63004900120896DD480012089647340012080D
:101D7300967C3300120896463300120896ED320023
:101D8300120896834800120896B832001208965932
:101D93003200120896283200120896E32E00120829
:101DA300969A470012089654D402120896D42D002E
:101DB300120896632D00120896282D00120896F338
:101DC3002C00120896E72C00120896472C001208E4
:101DD300968E2B00120896612900120896ED2600B4
:101DE300120896AB26001208967625001208962B49
:101DF30025001208965A2400120896B123001208EF
:101E030096872300120896DD45001208964D23009D
:101E130012089672AC0300000080FBE4738F00018C
:101E230000E90A87000100E70A24000200C10A252D
:101E3300000200C30A26000200C50A27000200C7E9
:101E43000A28000100C90A29000100CA0A84000403
:101E530000CB0A86000100CF0A2A000100D00A2B1A
:101E6300000100D10A2C000100D50A2D000800A5AD
:101E7300052E000100D60A2F000100D70A30000109
:101E830000D80A31000100D90A32000100AD053340
:101E9300000100AE0534000100DA0A36000100AF8C
:101EA3000538000100DB0A39000100D40A8300026F
:101EB30000E50A63000100B90564000100D20A6568
:101EC300000100D30A6D000100E40A6E000200A3C2
:101ED3000543000100DC0A44000200DD0A4500015D
:101EE30000DF0A46000200E00A47000800B1054887
:101EF300000100E20A4B000100E30A04000100E8CC
:101F03000AA1000100EC0A37000100EB0A88000176
:101F130000EA0A3C000100B00500000000000000D8
:101F23000136360101000102010001030100010431
:101F330001060605020000070100340801000F092D
:101F43000401010D0100FF0E080000170200001933
:101F53000100FF1A0100011B0100FE1C0100081D06
:101F63000200001F010001200100012102000023E3
:101F730001000F24020000260100012701000828A8
:101F83000200FF2A0100072B0102402C0100002D53
:101F93000100012E0100012F0100FF30010B1C3154
:101FA3000800003A0100083B01000F2F0100000365
:101FB3000271023001600211027002010202020288
:101FC300028002100261023A00410063027302724E
:101FD30002620243020002130238000002000204FC
:101FE300021202000200020002000204020402378D
:101FF3000037003C0244020002390000020002657F
:1020030002000235028102000205028202830200FD
:10201300020103710301030103010301030103220D
:102023000302030103100300030003000300030082
:102033000300030003420300032403060300030019
:1020430003040312032503230325032303040304C7
:1020530003000300030003440300030003230300FE
:102063000365032100350381030003050300030017
:10207300030003010171010101010111010101319A
:1020830001010101018001100161013B00140063A2
:102093000173017201620143010001130106013D55
:1020A30001350004011201000100010001000104D7
:1020B300010401330133013C0144013201360000C4
:1020C3000100016501000135008101000105018264
:1020D30001830100010300710030016000110070F1
:1020E300003102200350048000100061000000143E
:1020F30000630073007200620043000000130006D7
:1021030000000000000400120000000000000000B6
:102113000004000400370037003C024400000000C4
:10212300000000000065000000350081000000058C
:1021330000000083000000000003002001F880007D
:102143000000002001FB80000004004201418000E8
:102153000005004201308000000600420152800069
:102163000007002001F980000010004203160B0055
:1021730000110020035A0A000012001003270B036A
:1021830000000021035B0A000502001901280B006F
:102193000000000000000036000100060000000FF0
:1021A3000000000000000000000000000003FFFF2B
:1021B30000000403FFFF0000FFFF0FF4010005C44C
:1021C300040320000100020B0000000000000000D7
:1021D30003010F671BA31B6D1BBB1B731BA91B7386
:1021E3001BB51B791BBB1B731BA91B7F1BBB1B8550
:1021F3001BBB1B8B1BBB1B911BBB1B971BBB1B9DC8
:102203001BBB1B000000000000000003EAF5E5D53E
:10221300D5C5B5A5959585857575656555554545AB
:10222300353525251515050100811602002D1603E8
:102233000033160400391605003F1606004B16FF3F
:10224300FF0000051135110B1111112F1123111D61
:10225300113B114111471153111711FF10F9100AC6
:102263007D0E02470E05590E074D0E0C290E0D3B30
:102273000EFF000000160F00000B150B02000222D8
:102283000F320000067A623230313630393239315A
:102293003032363337000000000000000089674504
:1022A3002301EFCDAB58696E6748756F5975616E41
:1022B300536D617274F51107120D12CF101312C909
:1022C30010D51061127F128512671273126D1200FE
:1022D300034948424D18172505020001191618161F
:1022E3001615230300303017181921301B1D1F301A
:1022F30000383C3E363B3B352B432C303016181907
:1023030020231A1C1E300C0E020B040B0A070800B4
:102313000F29114D11791259115F11491219121F09
:10232300122B12251202040201010101090200BE4F
:10233300040A28000E0015000400E803090AFF1E22
:102343001E0C0408100C05080F0474F71203C6E9E9
:10235300FE121321EE900A8CF090030C74EFF0A39D
:10236300741DF090030E74E9F0A3741DF090031034
:1023730074E3F0A3741DF090031274DDF0A3741DD5
:10238300F0023F8B74F71203C6E9FE900302E4F0F8
:10239300EE900301F07CB17D057A037B03121AE909
:1023A300900AE2E090030BF0121DB9023F8B74F424
:1023B3001203C68A088B09EB5480605B90030112F9
:1023C3005629604A8E828F83E0640170321247314E
:1023D300120718EE2412126E2AF50A780A1208EE72
:1023E30012244D1208EAEE240B1226A412071CEE47
:1023F30024171256391212DF74091208FD8008E0FF
:1024030064027003121CDBEEFAEFFB1213C9AA0875
:10241300E5096480FB8030EA5402600C900A8B74F7
:1024230001F0EA6402FA801FEA54046005EA6404D6
:1024330080F3EA5408600C121DB3E5086408FAAB94
:102443000980047A007B00022526EE240FF50AEFAB
:102453003400F50B780A2274F41203C68A088B0938
:102463008A828B83A3A3A3E02410123F97FA124816
:102473006970030225098E828F837402F0A3E4122C
:102483004857A3A3A3A3E8F0A3E91244BBA3A3A3C0
:10249300A3A3A3A3F0E5082403F8E509123B2C2426
:1024A30010123DFE8E828F83A3A3A3A3F0EE240913
:1024B300FA12250B1240D3F5838882E0A2E58E82BF
:1024C3008F83A3A3A3A3A3500474018001E4F0E5C5
:1024D300082403F888828983125713EA126051EBA8
:1024E3001226A71225161208E6126224EB12418166
:1024F3008E828F83A3A312473E1208FDEEFAEFFBF1
:102503009003011248BB801BEF3400FB8E828F8344
:10251300A3A322E0F508A3E0F509750A00780822D1
:102523001208FD7F0402069374F21203C68A088B15
:1025330009ECFAEDFB740E120B5EE0FC1213518AE8
:102543000C8B0DAE0CAF0DEE4F6023AC08AD091232
:10255300133FE96019AC08AD09EEFAEFFB1213451E
:10256300E97007EEFAEFFB1213397900800279B4B0
:1025730002334174EE1203C674F71209628A0A8B9E
:102583000BECFEEDFF750FB3750E00750C00750DAA
:1025930000800CE50C2401F50CE50D3400F50D90DD
:1025A300233BE493F8740193F9C3E50C98E50D9983
:1025B3004003022695AA0CAB0D12139F8A088B09C0
:1025C300EA450960CE8A828B83A3A3A3A3A3E02554
:1025D3000EF50EF510C3E50A9510E50B940050B304
:1025E3007C157D007900EEFAEFFB124524A3A3A32B
:1025F300A3E50AC3950EF8E028C333F8E433F9E5FD
:102603000828F582E50939F583A3A3A3A3A3A3129D
:102613004C79A3123FC4EAFCEBFDEEFAEF123BB98F
:10262300A3E06401700A124731740112343380430A
:10263300851882851983AC82AD83850882850983D9
:10264300125711121387E9602D7408120B5EE0C054
:10265300E0124731D0E0F07408120B5EE0640385AA
:102663001882851983700CAC82AD83EE240B12346F
:10267300208003124167850882850983123A2FA3BC
:10268300A312481AC0E0EE24141226A4D0E0F07579
:102693000F00A90F74091208FD7F0A020693EE24A6
:1026A3000CF582EF1247822274F71203C6E9FE8A01
:1026B300828B83A3A3A3A3A3A3E0540860298A82E4
:1026C3008B83A3A3A3A3A3A3E0540260178A828BE3
:1026D30083A3A3A3A3A3A3A3A3A3E0640660057496
:1026E300E96E7003121DD1023F8B74E81203C674A6
:1026F300F71209627407120B5E124536E9851882D8
:10270300851983F0ECFEEDFF7424120B5E780C1236
:102713000B017513008E828F8312570D8E828F8368
:10272300A3A3A3E0F912135D8A148B15EA45157070
:1027330003022907EE2410124E13A914120D7B8AEB
:10274300168B17EA45177003022907EE2406F510C6
:10275300EF3400F5117C00851082F58312294D8E2C
:10276300828F83A3A3A3E0851682851783A3A3A3E4
:10277300125293F8A3E0F9851682851783A3A3A3C6
:10278300A3E8F0A3E9122EDE851682851783A3A39F
:10279300A3A3A3A3A3124E33851682851783A3A3F2
:1027A300A3A3A3A3F0EE126051EF122B671208E666
:1027B300EE126225EF124181851682851783A3A34A
:1027C300A3A3A3A3A3A3A312473E1208FD7510005E
:1027D300022887850A82850B8312571112138D8570
:1027E3000882850983A3EAF0A3EB124757A3A31238
:1027F30044F21248D2E0A2E6500F8508828509838D
:10280300A3A3A3A3A3E0D2E1F0E513706385088239
:10281300850983A312527D90035AE0687003A3E0F5
:1028230069704D850882850983A3A3A3124E1F787F
:102833000C1208E27427120B5EE0F50A780A1208FC
:10284300EE7426120B5E12071C90036712071C79A5
:10285300007410120B5E1244A6121E0774091208AC
:10286300FD850882850983A3A3A3A3A3E04405F000
:1028730074012510FC8E828F83A3A3A3A3A3A312A9
:10288300294D0510E50A450B6052851008C3E5087C
:102893009514E495155045E51075F006A4F8A9F0D4
:1028A300E51628F8E51739F9E8240CF508E9123894
:1028B30011E412474D640160030227D675130185A5
:1028C30008828509837401124752F8A3E0F9850849
:1028D30082850983A3E8F0A3E90227EDAA16AB17C3
:1028E300120D8178161208EA7425120B5EE0FC744F
:1028F30002120B5EE0F9EEFAEFFB121DD77402121F
:1029030008FD80418E828F83A3A3A3E0C0E07404FB
:10291300120B5ED0E0122EDEC0E07405120B5ED007
:10292300E0F0E514451570097406120B5E74B98066
:10293300077406120B5E7410F07401120B5EAA8208
:10294300AB83121411740902626F1247478E828F90
:1029530083A3A3A3E0F91213638A0A8B0B2274EAFD
:102963001203C674F31209628A0A8B0B89158C143D
:102973007423120B5E126A33AA0CFB120D6FE9F576
:1029830013AA0CAB0D120D75E5137003022B5475CE
:102993000E00800F8E828F83A3A3A3A3A3E0D2E3B1
:1029A300F0050EE50C240BF582E50D122CE2E50E85
:1029B300C3984003022B4BE5137003022B4BE50E28
:1029C30075F006A4F8A9F0E50C28F8E50D39F9E847
:1029D300240CFEE9126816A3A3A3A3E0A2E040C15E
:1029E300750F00750808750900E5146003750F205D
:1029F3001244DAE060339003AAE064017017E50F34
:102A0300D2E3F50F7509108E828F83124105123FB1
:102A1300B874FF8024430F0C75080C8E828F83A338
:102A2300122B73126201A38010E5156009E50FD222
:102A3300E6F50F75080A122B81F07402120B5EE59E
:102A43000F1252B2C0E07404120B5ED0E0F07405B2
:102A5300120B5E123FA9120B5EE06003022B2E7471
:102A630008120B5E12392F8E828F83A3A3A3A3F0C8
:102A73007408120B5E123204F583E508F0A3E5092E
:102A83001243DDE060119003AAE0C0E07408120B6A
:102A93005E1231FDD0E0F0850C82850D83A3A3A3E4
:102AA300E0C0E07408120B5E125D49D0E0125D8154
:102AB300C0E07408120B5E12320FD0E0F0740812FB
:102AC3000B5E122B73A3A3125D5012529CA3A3E0BF
:102AD300125D34EAF0A3EB1252A8C0E0E8242EF50D
:102AE30082E91226A7D0E0F07408120B5E12571386
:102AF300850A82850B83122B5E2424F582EB124117
:102B03007012604FE50B122B671208E612417EEA42
:102B1300242BF582EB1226A712473E1208FD8518D7
:102B230082851983AA82AB83121CCF8E828F83A3E3
:102B3300A3A3A3A3E0D2E0F0740C120B5EE0600346
:102B430002299715130229A47900AA0CAB0D121DB3
:102B5300CB740D1208FD7F0E020693A3A3A3A31249
:102B63005281EA2212478212525C751200781022B7
:102B7300125281850A82850B83A3A3A3A322A312E6
:102B83002B8622124478E8F0A3E92274F21203C6DA
:102B930074EB120962EAFEEBFF89088E828F83A32E
:102BA300A3A3A3A3A3A3A3E0F9120D998A0A8B0BF2
:102BB300EA450B607FE50870047C0480027C088E84
:102BC300828F83A3A3A3A3A3A3A3A3E0F9120D9FBF
:102BD3001226A1124571605C8882898312570F7493
:102BE30006120B5E122C3C1257137408120B5E1262
:102BF3002C3CA3A3E0C0E07410120B5ED0E0125291
:102C0300C2125713740E120B5E1245367411120B57
:102C13005EE4124FFDF9780A1208EA742059FC7435
:102C23004059F97402120B5EAA82AB83121DD7744A
:102C3300021208FD741502333EEAF0A3EB123F8142
:102C4300A3A3A32274F71203C674FA120962E9FE5E
:102C53007F018F087D0080047508000D123F9012DC
:102C63002CE2EDC3985025ED75F006A4F8A9F0EA1F
:102C730028F8EB39F9E812604AE9124C6250D9544A
:102C83000C60D5E0A2E250D37F0080CF8A828B8391
:102C9300A3A3A3A3A3A3E0703EE508A2E0400574A9
:102CA300016E70338A828B83A3A3A3A3A3A37401AE
:102CB300125BF8E0C0E07403120B5ED0E0125BF02D
:102CC300E0C0E07404120B5ED0E0F07405120B5EFA
:102CD300EF1241351214117406023F88F582EF1288
:102CE300500DF822C082C0837901121DCB02340833
:102CF300C082C083EA4B60189003A6E064027010A0
:102D0300900A8BE4F0EAFCEBFD7A02123415801290
:102D1300900A8B7401F07A027B00900301E0F912B0
:102D230014D7023408C082C083900AF4E075F0051A
:102D3300A4FCADF079007AE67B091213B17B008025
:102D430012EB75F005A4F8A9F0122ED374FEF0A3CC
:102D530004F00B900AF4E0F8EBC39840E402340863
:102D6300C082C0837C007B0080037C010B900AF44B
:102D7300E0F8EBC398504FEB75F005A4F8AAF0EA1E
:102D8300F9122ECC7003A3E0F460E1122EC3E82401
:102D930003080808E9123B2C24FFF0A3E034FF12D8
:102DA3004FFDF8A3E0F9E84970C0EB75F005A4F80E
:102DB300EAF9122EC38882898374FEF0A304125C9D
:102DC30009A3E4F080A6ECA2E0500312340F02340E
:102DD3000874F61203C6EAFEEBFF900AF4E07003F0
:102DE300022EBEEE2411126E2A7003022EBE8E82B4
:102DF3008F83A3A3A3A3A3A3A3A3A31244AE640299
:102E0300600F8E828F83A3A3A3A3A3E07003022E7C
:102E1300BE7C0080010C900AF4E0F8ECC3985045A6
:102E2300EE240B1226A412527DEC75F005A4FAAB26
:102E3300F074E62AF58274093BF583E0687003A316
:102E4300E06970D1EE2412126E2AFBEC75F005A432
:102E5300F8A9F074E828F582740939F583E06B70FA
:102E6300B4790080587C0080010C900AF4E0F8ECFF
:102E7300C39850EDEC75F005A4F8A9F0122ECC70B0
:102E830003A3E0F470E3122EC3EE240B1226A41264
:102E930043B0EAF0A3EB122EDE88828983A3123FAC
:102EA3007C740C124E337A08FB900301E0F9121480
:102EB300DD8B09EA4509700312340F790102347F6F
:102EC30074E628F8740939F922122ED3E064FE223D
:102ED30074E628F582740939F5832212374CE0220F
:102EE30074F21203C674F3120962EAFEEBFF8E82D8
:102EF3008F83A3A3A3A3A3A3A3A3A3A3E0F50A90F0
:102F03000A8BE0700579BA0231F87508017509007A
:102F1300750C00750D007C087D007900851882858D
:102F23001983AA82AB831213B17405120B5E740169
:102F3300123220540460127402120B5EE0D2E612C5
:102F4300322054087003750803E05410600674407F
:102F53004508F508E0540860227402120B5EE04451
:102F6300C01232205420600A7403120B5EE0D2E0D8
:102F730080087403120B5EE0D2E1F08E828F83A38C
:102F8300A3A3A3A3A3A3A3E07018120F1985188208
:102F93008519831245367402120B5EE0D2E2F00209
:102FA300304A640F70157402120B5EE0D2E31248CC
:102FB300D312451E4508F50802304A8E828F83A33B
:102FC300A3A3A3A3A3A3A3E064028E828F837005AC
:102FD300122B8280C9A3A3A3A3A3A3A3A3E0640387
:102FE3007013851882851983AC82AD83EEFAEFFBEB
:102FF300121D7780528E828F83A3A3A3A3A3A3A3BF
:10300300A3E0640170419003AAE0601C7402120BF8
:103013005EE0D2E31248C185188285198312417399
:10302300750910750AFF80187402120B5EE0440CD8
:10303300125D6E74FDF0A374FFF074044508F50887
:103043008E828F83126A33124C5C503A7402120BD5
:103053005EE0540C701B8E828F8312571312172F4E
:10306300E9700579BB0231F87402120B5EE0D2E518
:10307300F0124C5C50107402120B5EE0540C6404AA
:103083007004E0D2E5F0EE2411126E2AC0E074045D
:10309300120B5ED0E0123FAB120B5EE06003023115
:1030A300F17408120B5E123204123216EE24181257
:1030B3006E2AC0E0E812603BE91226A7D0E0F0EEEA
:1030C3002419126E2AC0E07408120B5EE024131256
:1030D30038F7D0E0123FD1640170119003AAE0C029
:1030E300E07408120B5E1231FDD0E0F07408120B8D
:1030F3005E123DD62417FAEF123E05FCE8241CF5B8
:1031030082E91226A7EC124E338E828F83A3A3A3E8
:10311300A3A3A3A3A3A3E0C0E0E82422F582E912BA
:1031230026A7D0E0F07408120B5E12320FE50AF006
:103133007408120B5E123DDB2424F582E912554C10
:10314300A3E50D1255A5FCA3E0FDE82426F582E9CD
:103153001226A7ECF0A3ED1235CF124504E824287C
:10316300F582E91226A71257A8C0E0E8242FF582BA
:10317300E91226A7D0E0F0EE241B126E2AC0E074F9
:1031830008120B5E125D42D0E0F0EE241A126E2A92
:10319300C0E07408120B5EE0242E1238F7D0E01260
:1031A3005D661225171208E6EE24111226A41245B5
:1031B30004740B120B5E1247381208FDEE2415122D
:1031C3006E2A5440601B90032412457160138518C6
:1031D30082851983AA82AB83900325123B5F121E5B
:1031E3001E851882851983AA82AB83121CCF740CA7
:1031F300120B5EE0F9740D02333EE0241512391D03
:1032030022123DDF240FF582E9340022E024231249
:10321300391D22F583E508F0A3E509F022F0EE2439
:103223001512500A2274F71203C67E638A828B83B7
:10323300E0600C7905120C37E9F87456C398FE90D8
:103243000352E0600CF9120C37E9F8EEC39824F24C
:10325300FEEEF9023F8B74F61203C674FE12096286
:10326300851882851983124536E9FEECFAEDFB7465
:103273000C120B5EE0FC90046112457160328518FC
:103283008285198385820885830978081208EA7D77
:1032930001EEF9900461123B5C121E1E74021208C7
:1032A300FD8B09EA450960047900800679B2800242
:1032B30079B602347A74F71203C6E9FE7409120B65
:1032C3005EE0FF90030C124571601AEFF508780871
:1032D3001208EEEEF990030C123B5C121E1E7401F1
:1032E3001208FD800279B6023F8B74F21203C68A7C
:1032F300088B09ECFEEDFF750A0190035AE065089F
:103303007004A3E06509700512449F802A120F1F01
:103313008A0C8B0DE508650C7004E509650D7009D1
:10332300EEFAEFFB120F25800EEEFCEFFDAA08ABC1
:1033330009120CAFE9F50AA90A80031208FD7F06FA
:1033430002069374F51203C6EAFEEBFF8C088D099F
:10335300750A011264AC123429700B90035A123BA4
:10336300AF124173800EAC08AD09EEFAEFFB120CFD
:10337300B5E9F50AA90A02592A74F61203C6EAFE48
:10338300EBFF7A0C7B00121441EA4B606BEE2420B6
:10339300126E2A8A828B83F0EE24211233FEF0EE22
:1033A30024221233FEA3F0EE24231233FEA3A3122E
:1033B3004777125285E8F0A3E9125002125286A30E
:1033C300A3E8F0A3E9124E258A828B83A3A3A3A3C8
:1033D300A3A3A3A3F0EE242F126E2AC0E0123F9002
:1033E3001226A7D0E012453C8A828B83A3A3A3A312
:1033F300A3A3A3A3A312417302347F12500A8A82A8
:103403008B83A322F0D083D0820208937CF47D01C6
:103413007A087B00900301E0F91214CB22FAEF340F
:1034230000FB121AE922123FBD22123433A3E02219
:103433001234372212343B2212484FA3A3221244E0
:10344300C9A3E02274F61203C6ECFEEDFF79B39034
:103453000351E07020900383E064017018EE126062
:103463004AEF12682AEE240F12416DE8496004798D
:1034730000800279A1800574021208FD7F02020612
:103483009374F41203C674FE120962ECFEEDFFEEB0
:103493002416126E2A64057011EE2406FCEF340024
:1034A300FD121D7DE9700302352F8518828519836E
:1034B300AC82AD83125F901236BD1245716069E82C
:1034C30075F009A4F8AAF075F009E9A42AF9747A49
:1034D30028F874F339F9E8FAE9FBEE24121226A46A
:1034E300C082C0838A828B837808120B01D083D079
:1034F300827808120AE1402C851882851983123DCF
:10350300D61235D81252711237487808120B01902F
:1035130080EE78081209F58A828B837808120B1FD4
:103523007900800A79A2800679A1800279C87402A1
:1035330002252374F41203C674FF120962EAFEEB38
:10354300FF900351E07072900383E06401706A7529
:10355300083A75090078081208EA7402120B5E85AE
:10356300820885830978081208EA1235C11208FD1A
:10357300E9703EEE126051EF123BC8124484C0E082
:10358300EE24111226A4D0E01235CF743A124E3332
:1035930090032C120B3BEE24121226A4120B47901D
:1035A30080EE7808120B0190032C7808120A088029
:1035B300081235D7123F76A3F074010225237C014C
:1035C3007D007A007B00121021740422F01235D79B
:1035D30012478222EE240FF582EF2274F01203C603
:1035E30074F6120962ECFEEDFF7402120B5EAC82FC
:1035F300AD83121D7DE970030236B88518828519E3
:1036030083AC82AD837402120B5EAA82AB83123643
:10361300BD12457170030236B8E875F009A4F8AA23
:10362300F075F009E9A42AF9747628F874F339F9E6
:1036330088088909EE240E1236C7124484F8A3E0E1
:10364300F9EE240F124840120B3BEE24121226A46B
:10365300120B479080EE780C120B018508828509C6
:1036630083780C120A088508828509837808120B6F
:10367300019080BE780C120B017808790C12035666
:10368300E50C450D450E450F702B85188285198372
:10369300123DDB75F009A4F8AAF075F009E9A42A34
:1036A300F9747E28F58274F339F5837401F07A0096
:1036B3007B101236CF740A023758121735851882D9
:1036C30085198322F582EF124782E4229004DAE01F
:1036D300F91213F92274F01203C68A088B09ECFE5F
:1036E300EDFF1235D7123F76A3123748C082C0834D
:1036F3009080DA780C120B01D083D082780C1209F7
:10370300A3603212373C7005121D6B802AE07005EE
:10371300121D47802264027013121D47E96018EEE0
:10372300FCEFFDAA08AB09121753800BE06403609A
:10373300DF79A1800279A3801FEE240EF582EF12B8
:10374300500D64012212374C22F0EE2412F582EF61
:103753003400F583221208FD7F0802069374F612E3
:1037630003C6EAFEEBFF12380B124504EC240F12DA
:103773003F7312450E121D3B85088285098312454E
:103783006E70631238FB7003A3E069600A1238E6B7
:103793007003A3E069704F8E828F83A3A31244FC4E
:1037A3008E828F83125713121759E960188E828FF6
:1037B30083A3A3A3A3A3A3A3A3A3A3E0240F1238C8
:1037C300F7E4F0A3F08E828F83125D2C8E828F83B9
:1037D300A3A3A3A3A3A3A3A3A3A37005123BA9809D
:1037E30004123B83E4F0124560701A123B30125707
:1037F30013121D4185088285098312456E700612D6
:1038030026A174A1F002347FEE240AF508EF1261B9
:10381300FC850882F5832274F61203C6EAFEEBFFE9
:10382300EE240A123B3F7A187B001214418508826A
:10383300850983123934F8A3E0F9E84970030238A3
:10384300DDEEFAEFFB121D2F12456060791239216C
:1038530064017007123908740E8034E06402700743
:10386300123908740D80288E828F83A3A3A3A3A388
:10387300A312457170EA1238FB7003A3E06960E09C
:103883001238E67003A3E06960D612390874051292
:103893004517540364017007123B637405800B9052
:1038A3000352E0C0E0123B63D0E0F012380B123B4E
:1038B30071123A34C0E0850882850983E024171227
:1038C30038F7D0E08019850882850983123F318556
:1038D3000882850983E4F0A380051226A17410F001
:1038E30002347F120F198A088B09A808A9099005C9
:1038F300A3E0682212391D228E828F831252819097
:1039030005A3E068228E828F83A3A3A3A3A3A3A30B
:10391300A3A3A3E0241612391D22123B8E228E820A
:103923008F83A3A3A3A3A3A3A3A3A3A3123B87E070
:1039330022EAF0A3EB12393C2212484FE02274F141
:103943001203C68A0A8B0B8C088D097A181256F754
:103953007003023A278E828F837401F0E508240DE9
:10396300F8E509125F99C3E49AFA95E0FB126056F1
:10397300124E0AFB8E828F83A3A3A3A3124FF98E49
:10398300828F83A3A3F0EEFAEFFB120BE385088289
:10399300850983125D2E70098E828F83A37405803F
:1039A30006900352123A2FF0EE2417F8EF3400F981
:1039B300880C890D8E828F83123A33850C82850D94
:1039C30083F0EE2416F8EF3400F9E508240EFAE547
:1039D300093400FB888289831243B8E50824100A5E
:1039E3000AE5093400FB850C82850D83E0FC88829F
:1039F3008983E0F88A828B83E0C398C39C125910B1
:103A0300F0EEFCEFFDAA0AAB0B121D35E9F50870C9
:103A13000AEEFAEFFB120BEFE9F508EEFAEFFB12F1
:103A230014478003750810A9080264CF1244C22208
:103A3300A3E0F9120C37E922790102089374F41216
:103A430003C6EAFEEBFF8E828F83A3A3A3A3A3A3E4
:103A5300A3A3125578125D2E706B12392170668EF6
:103A6300828F83A3A3A3A3A3A3A3A3E0242B12382E
:103A7300F7123BA1704F8E828F83A3A3A3A3A3A3AB
:103A8300A3A3E0242BF888828983123B71E0F874A6
:103A93000168600A740668600574056870138E8295
:103AA3008F83A3A3A3A3A3A3A3A3A3A3123BA9802D
:103AB300138E828F83A3A3A3A3A3A3A3A3A3A3125E
:103AC3003B837403F0123B30123B5CE4F0EE2408BA
:103AD300F8EF123B2C242D123DFEC0E0123B49D0DF
:103AE300E0124FFD242A123DFEC0E0123B49A3D051
:103AF300E0124FFD240B1238F7123BAF123C571262
:103B03003FC48A0A8B0BAC0AAD0B850882850983F7
:103B1300E02406FAA3E03400123BB9125713120B48
:103B2300EF1226A1E9F002252612410022EE240A13
:103B3300123B3722123B3F8882F58322F8EF340091
:103B4300F98808890922850882850983123C5BA3C9
:103B5300A322EEFAEFFB90031CE0F8A3123B7D22B5
:103B63008E828F83A3A3A3A3A3A3A3A3A3A3123B85
:103B73007522E0F8123B7CA322A3E0F5838882221E
:103B8300123B8722E0240E123B8E22123B9222F834
:103B9300A3E0123B99223400F98882898322E0F85A
:103BA30012422C640522123B877402221252818531
:103BB300088285098322FB123BBE22121AE985087B
:103BC3008285098322124782740122023A3BC08212
:103BD300C08390031A7429F0A3741DF090031C741E
:103BE3001DF0A3741DF090031E7417F0A3741DF051
:103BF3009003207423F0A3741D02340774F412039A
:103C0300C6EAFEEBFF123C64F508120F198A0A8B11
:103C13000BA80AA90B8E828F83123C57E0687003AE
:103C2300A3E069602CE508A2E550268E828F83A36A
:103C3300E0FB90031A123B5C121E1E8E828F83E000
:103C4300F8A3124A31A31245717006123C64C2E50F
:103C5300F0022526123C5B22E0FAA3E0F5838A8278
:103C6300228E828F83123B75A3E02274F51203C662
:103C7300123DC4123DDB2420F582E9126E2DFE7441
:103C8300035EF50A12439A1226A7123DD68882894B
:103C930083F0A3A882A983E50A60097402650A6018
:103CA30003023D35740C5EFF601574086F60107479
:103CB300046F701D7402650A7005EEA2E4402D8A3C
:103CC300828B83A3A3A3A3A3A3A3A3E02423123ED2
:103CD30026740C6F7010123DBF2424123E0E242450
:103CE300123DD1123E297402650A7005EEA2E4402A
:103CF30041123DBF2426123E0E2426123DE4A31298
:103D03003E38123DE4123E38123DD1123E29EF6097
:103D13000F74086F600A740C6F600574046F70127F
:103D23008A828B83A3A3A3A3A3A3A3A3E024221226
:103D33003E268A828B83A3A3A3A3A3A3A3A3123D9B
:103D4300F47005EEA2E150178A828B83A3A3A3A389
:103D5300A3A3A3A3E0242E1243A1123E1F800E901F
:103D63000302123E1F900302E0041240E3A3A88261
:103D7300A983EEA2E75042123DBF2421123DE41273
:103D83003E298C828D83123DF4602E8A828B83A31D
:103D9300A3A3A3A3A3A3A3E02430123E26EEA2E190
:103DA30050178A828B83A3A3A3A3A3A3A3A3E02473
:103DB30031123DFE88828983F002592A123DC4E004
:103DC30022EA2408FCEB3400FD8C828D832212430B
:103DD300A5A322125281EE22123DDF221248CCE823
:103DE30022123DE822F508A3E03400850882F5831A
:103DF30022E024211243A5E0540322FAA3E0123E59
:103E030005223400FB8A828B83E022123DE8123EB6
:103E13001FA3A882A9838C828D83E022E0888289F4
:103E230083F0221243A5123E2D22E088828983F07B
:103E3300A308A98322123E2D8C828D83E02428229D
:103E4300C082C0838A828B83123C68F8740358F95A
:103E53008A828B83A3A37401F0E9600574026970FD
:103E630061740C58FC601474086C600F74046C70FB
:103E7300137402697005E8A2E4401D8A828B83A350
:103E8300A37402F0740C6C700A8A828B83A3A3E080
:103E93002402F07402697005E8A2E440258A828B4B
:103EA30083A3A3E02404F0EC600F74086C600A742D
:103EB3000C6C600574046C70098A828B83A3A3E085
:103EC30004F0E8A2E750318A828B83A3A3E00412B3
:103ED30057ACF9A3E0F5838982A3A3A3E05403605D
:103EE300178A828B83A3A3E004F0E8A2E150098A36
:103EF300828B83A3A3E004F08A828B83A3A3E004D1
:103F0300023407C082C0838A828B83A3A3A3A3A3A3
:103F1300A3A3A3A3A312457160098A828B83A3A3DE
:103F2300123F29023408A3A3A3A3A3A3A3A3124765
:103F3300471214472274F71203C6EAFEEBFF12522C
:103F43007988828983A3A3A3A3A3A3A3A3E4F012E1
:103F53003F7CA3A3A3A3A3A3A3F0A3F0E812553626
:103F6300E9123F76121CFFEEFAEFFB121D0B8018CD
:103F7300F582ED124782E4F022A3123F8122124020
:103F8300E3A3A3A3221208FD7F01020693EA240BF5
:103F9300F582EB22125EB2240922124782126A379B
:103FA300750E00780C227401124139123FB22212AD
:103FB3001CD5740C22124495A322121AE3E964015E
:103FC30022A3A3A3A3E8F0A3E9F0120F1322124341
:103FD300D7E02274F61203C674F41209621240E9A0
:103FE300FCA3E0F5838C82A3E0FC7402120B5EEC6D
:103FF300124FFD24021244897404120B5E124173A2
:10400300EC600A7402120B5EE06404701C1240C779
:10401300124C687406120B5E1240CD124489740868
:10402300120B5EE8F0A3E98056E06401600AE064E5
:10403300066005E0640570231240C7123DFEC0E030
:104043007403120B5ED0E0124FFD2413124C6874FC
:1040530006120B5E124FF9241B80C07406120B5E0E
:10406300E4F0A31240F62412124C687408120B5E9B
:104073001240CD125EAEC0E0740A120B5ED0E0F0C7
:104083007406120B5E12457160287406120B5E12E1
:104093005713120CA3E964017018120F138A088BCB
:1040A30009AC08AD097406120B5E125713123429BA
:1040B300700D851882851983AA82AB83121DA174A2
:1040C3000C02347C1240FB2412221240DA241A22FE
:1040D3001240DAF8A3E022EAF0A3EB1240E3E02275
:1040E300F088828983228A828B83A3A3A3A3A3A3B9
:1040F300122B86F01240FB22EA2402F8EB123B99C2
:10410300E022A3125281851882851983221208FDA9
:10411300023408C082C08374FD120962124145C093
:10412300E07402120B5ED0E0124135121D8374035A
:1041330080DB12413922F0851882851983AA82AB6C
:1041430083228A828B83A3A3A3A3A3A312446F8A8C
:10415300828B83A3A3123B75E022AA82AB83121343
:10416300A5740322125281EE240BF582EF124782CB
:104173001244722212447290032C221252BA124732
:1041830082E0FC7D0022C082C0831241A36006242A
:10419300FC60078008121CED8003121CE702340840
:1041A3008A828B83A3A3E0F812422C24FB22C082D1
:1041B300C0838A828B83A3A3A3A3A3A3A3A3E07037
:1041C300528A828B83A3A3E0F812422864016043DE
:1041D3001242226402603C1242226403603512429E
:1041E300226404602E8A828B83A3A3123BA36023E1
:1041F300124222640A601C124222640B60151242AE
:1042030022640C600E124222640D60077904121AB4
:10421300D18009900322123B5C121E1E0234088ACD
:10422300828B83A3A312422C22123B7CE02274F6DE
:104233001203C674FA120962EAFEEBFF7403120B4F
:104243005EEEF0A3EFF07403120B5EAA82AB83124F
:104253001CF3126E27600302439585188285198328
:104263007432F07405120B5EC082C0838E828F831A
:10427300A3A3A3A3E0D083D082F8E028C0E0740115
:10428300120B5ED0E01243F1C0E07402120B5ED059
:10429300E01243D0F8A3E0F9E8496026E82417F5D3
:1042A30082E91226A7C082C083E82416F582E912A8
:1042B3006E2DD083D082F8E028F87401120B5EE0F3
:1042C30028F0851882851983AA82AB83120D038A8D
:1042D300088B09A808A909E84970030243888E825C
:1042E3008F831243B0A3A3EAF0A3EB1243DDA3A38E
:1042F300E0C0E0E82420F582E91226A7D0E0125DB1
:1043030081C0E0E82421F582E91226A7D0E0124318
:10431300ECC0E0E8242AF582E91226A7D0E0F07485
:1043230005120B5EE0FA12439A126E2D2A124C68A4
:10433300E8242BF582E91226A71245367405120BE1
:104343005EE0C0E0E8242DF582E91226A7D0E01252
:1043530043D0FAA3E0FBEA4B6019E8242BFAE912F5
:10436300250CA3A3A3A3A3A3A3A3E024161243A1F1
:104373001243B88E828F83A3A3A3A3A3A3A3A3E80B
:10438300F0A3E9800CEEFAEFFB121CF91226A174DC
:1043930010F0740602347CE8240BF582E922124300
:1043A300A522FCA3E03400FD8C828D8322124747B3
:1043B3008882898322E0FC8A828B83E02CFCA3E041
:1043C3003400FD8A828B83ECF0A3EDF0221243D7F5
:1043D300A3A3E02212496BA3A322F0E812603BE9F6
:1043E30012478274011248D3221243F7E022124388
:1043F300F7A3E022125918A32274F71203C6EAFEA8
:10440300EBFF126E27701E124432124571600612C2
:104413003B55121E1E126E27700B125707120CFD0E
:104423001226A1E9F0EEFAEFFB121CF9023F8B1200
:104433001D058E828F83A3A3A3A3A3A3A3A3A3A3D7
:104443002274F61203C6EAFEEBFF8C088D091217DD
:104453002FE9700479018011AC08AD09EEFAEFFB86
:10446300900320123B5C121E1E02347F124478E834
:10447300F0A3E9F022E0F8A3E0F985188285198317
:1044830022125D72E022F8A3E03400F9221244956F
:10449300E022E8F0A3E91248D7A3A3221264B012E2
:1044A3001AE922124508EEFAEFFB22124747120FD0
:1044B3008BE922123B92E0221234331244C222E0EF
:1044C3008E828F83A322124793A3A3A3A322E5087B
:1044D300240BF582E509227C087D0079008518828A
:1044E300851983AA82AB831213B18E828F8322E054
:1044F300850882850983A3A322A3A3A3A3A3A3A3BC
:10450300A312450822E0FCA3E0FD221248D2124781
:10451300472274011248D3A3A3E02212446F740408
:10452300221213B1850882850983A3221214EF8E08
:10453300828F83EAF0A3EBF022124540221248D780
:10454300A3A31248CC22C082C08312455974E1F060
:10455300A3741C023407121D11900322228E828F32
:1045630083A3A3A3A3A3A3A3A3A3A3124E38123D80
:10457300DF492274F71203C6E9FE1245A31226A7E8
:10458300124571601888828983A3E05403700EEE8C
:10459300FB12439A1226A71245D41245CE023F8B33
:1045A300EA125536EB22C082C083EAF8EBF988821F
:1045B3008983A3A3A3A3A3E0FB88828983A3A3A3E3
:1045C300A31245D4A31245CE023408E0F91212D93E
:1045D30022E0FA88828983A3A32274E81203C68A9D
:1045E300088B098C168D178914741A120B5EE0F56B
:1045F3000AA3E0F50B741C120B5EE0F513741D1295
:104603000B5E780C120B01126224EB126E2D242D1B
:10461300FA7B001213C38A108B11AE10AF11EE4F49
:10462300700302471F8E828F837401F08508108503
:10463300091175120078101208E67C157D00EE242E
:10464300181247221208FD851610851711781012CB
:1046530008E67C097D00EE24021247221208FD744D
:1046630018120B5E124167850A82850B83E0C0E056
:10467300EE240F1226A4D0E0124752C0E0EE24111C
:104683001226A4D0E012474DC0E0EE24101226A457
:10469300D0E0123748E513124777E4F0A3F012474E
:1046A30031780C120B1FEE24171226A4E5141234D2
:1046B30041F8A3E0F9EE240D1226A4124771126209
:1046C3001E126E2D6025EE2426124C54242DF81252
:1046D3004769126058123F9D1208E612621C12418C
:1046E300818A828B8312473E1208FDEE2419126ED3
:1046F3002A5403601D900318124571600CEEFAEF03
:10470300FB123B5F121E1E8013EEFAEFFB1213C95E
:10471300800AEEFAEFFB9003011248BB026272FAC1
:10472300EF124728223400FB1213A5740322EE2450
:104733001312477F22E0242B12391D12474712130D
:10474300A5740322E0FAA3E0FB22124760E02212E1
:104753004757E02212475B22124760A322F0850AE3
:1047630082850B83A322EF3400F98A828B83124460
:1047730072E50822F0EE242612477F22F582EF34F9
:1047830000F58322F50CA3E0F50D750E00780C22DD
:1047930012343BA3A3A32274F11203C68A088B0924
:1047A3007A20124869606D8E828F8374061248796D
:1047B3008E828F83A3A3A3A312342D8E828F8312A1
:1047C300481A1247871208E67C107D00EE24061271
:1047D30047221208FD8508828509831244FCEE24D2
:1047E30016FAEF3400FB120C9D850882850983A31A
:1047F300A3A3A3A3A3A3A3A3A3E0C0E0EE241E1239
:1048030026A4D0E012482AC0E0EE241F1226A4D02A
:10481300E01248320264CFA3A3A3A3A31248232226
:10482300123437A3A3E022F01244D112500D22F028
:10483300EEFAEFFB9004DAE0F91213CF2212477F6E
:1048430012484722E8F0A3E912484F22F085088274
:104853008509832212485B2212393CF8A3E0F98EC2
:10486300828F83A3A3227B001213C38A0A8B0BAE0E
:104873000AAF0BEE4F2212485B124847A3A3E02274
:1048830074F61203C6EAFEEBFF7A057B001213C32C
:10489300EA4B601E8A828B83740A1248C18A828B18
:1048A30083A3A31244908A828B83A3A3A3A3F012AE
:1048B30048B802347F9004DAE0F91213CF22124889
:1048C300C5221248D71248CC22E0F8A3E0F922A36C
:1048D3001248D722F08E828F8322C082C083E99050
:1048E3000A8DF0900314744DF0A3741DF090031619
:1048F3007477F0A3740BF09003187489F0A3740B0E
:1049030002340774F71203C6EAFEEBFF8908EE4F81
:1049130070031217B990032612457170089003268D
:10492300802212527D88828983A3A3A3A3A3A3A376
:10493300A3A312495D88828983A3A3A3A3A3A3A3EB
:10494300A3A370DEEEF0A3EF124963A3A3A3E4F0E5
:10495300A3124963E508F0023F8B124747EA4B2253
:104963001249672212496B2212591CA3A3A3227472
:10497300F71203C6900326800D8E828F83A3A3A311
:10498300A3A3A3A3A3A3125EE6EE4F60348E828F8C
:1049930083A3A3A3A3A3A3A3E06970DD8E828F8364
:1049A300A3A3A3A3E06A7003A3E06B70CC8E828FF2
:1049B30083A3A3A3A3A3A3E06C70BEEEFAEFFB80D3
:1049C300047A007B00023F8B74F71203C690032620
:1049D300125EE6900326122B62687002EB69701771
:1049E300124A3112527D900326124173900326120C
:1049F3005EE68030125ED9EE4F60298E828F83A3EC
:104A0300A3A3A3A3122B5E687002EB6970E68A82EC
:104A13008B83A3A3A3A3A3A3A3A3A3124A3EA3A3EA
:104A2300A3124173121447EEFAEFFB023F8B123BC2
:104A33007DA3A3A3A3A3A3A3A3A322124C7DA3A3F8
:104A43002274F01203C674FA1209628A088B098A67
:104A5300828B83A3A3A3A3A3A3A3A3E0600D6401F9
:104A630060098A828B831244AE60057902024C4F3F
:104A7300850882850983A3A3A3A3A3A3A3A3E064B7
:104A83000370157404120B5EAC82AD83AA08AB09E4
:104A9300121D77E9701380D385088285098312522A
:104AA3007D7404120B5E124173126040126E2D244A
:104AB30032124C681214418A0A8B0BAE0AAF0BEE0A
:104AC3004F7003024C4D7C327D0079001213B17498
:104AD30002120B5EAA82AB83850882850983A3A396
:104AE300A3A3A3A3A3A3A3E0F912131B7402120BA2
:104AF3005EE0C0E0EE242D1226A4D0E0F0EE242CDC
:104B0300F50AEF3400F50B7403120B5EE0850A829D
:104B1300850B83F07901EEFAEFFB121D5F85080C1C
:104B230085090D750E00780C1208E67C1C7D00EEDD
:104B3300240B1247221208FDEE2430124C54243267
:104B430008081247692411F8E509126A1AFCE9FDFD
:104B53008C828D83123DD6242E1226A41247711205
:104B63004FDB12622A1208E68C828D831245048A77
:104B7300828B8312473E1208FD7404120B5E124CA3
:104B830079124173900302124C6FF0900302E00418
:104B9300125011242A12553B750D00850A82850B8C
:104BA30083E0780C120A548A828B83E50CF0EE249E
:104BB300291226A4E50C125D6EE4F0E5082415F530
:104BC30082E509124C6274015007120B5E74018076
:104BD30004120B5EE4F0EE2427123B3F8518828516
:104BE3001983AA82AB83121303E924FE8508828505
:104BF3000983F0F508750900EE242E1226A4124548
:104C030004ECF8EDF9AA08AB0912027DE88E828F55
:104C130083A3A3A3A3A3A3A3A3F0ECF8EDF9AA088A
:104C2300AB0912027D8B09EA4509600F8E828F83DF
:104C3300A3A3A3A3A3A3A3A3E004F0EE2420126ED3
:104C43002A44081255AD79008002791074060237A0
:104C530058126A18FAE9FBEE22EE2415F582EF12D8
:104C6300500DA2E022FAA3E03400FB221244C2A3B7
:104C7300A3A3A3A3A322124C7D221248CC8E828F1E
:104C830083A3A3A3A32274F41203C6EAFEEBFF12C9
:104C9300452F900ADCE0F8EE242B126E2AC39840CD
:104CA30003024DFC1255537015EE242B126E2A0489
:104CB300124E25C0E0EE24291226A4D0E0F0EE2403
:104CC30028126E2AFC7900800109EE242C122CDFB5
:104CD300E9C3985026750801750900E97808120A96
:104CE30054125553550860E1E92CFC750801750908
:104CF30000E97808120A54E04508F0EE2427124E22
:104D030013EE242E1226A4EC8A088AF0A4F8ABF042
:104D1300E42BF9E098F8A3E099F9C3E89508E9943E
:104D230000EE40392427122CDF1255536037EE244E
:104D33002D1226A4124E1FA3E4F0EC7054EE24208F
:104D4300126E2A4420123FD1C0E0EE24261226A47C
:104D5300D0E0F0EE2430124E13A3E0805924291240
:104D630026A474FFF090034AE0FA900ADFE0F50806
:104D7300EA8508F0A4ABF075F064A4FAADF075F021
:104D830064EBA42DFB8E828F83A3A3EAF0A3EB80B5
:104D9300A8EE2420126E2A54DF124777ECF08C0819
:104DA300EE2427126E2A8508F0A4FAABF0EE243025
:104DB300F582EF124E0AFBEE241E1226A4EAF0A39C
:104DC300EB124E2DC0E0EE24251226A4D0E0F0EE27
:104DD300241C1226A4E8124E339003281245716056
:104DE3000BECF9123B5F121E1EE97018EE240BFA4E
:104DF300EF3400FB121D9B800B7BE9EE2422F5822E
:104E0300EF124FE502252612500D2AFAA3E03B22AA
:104E1300F582EF124E1A2212559FFA221244C2A3B0
:104E2300F022F0EE242A12500A22124967A3E0224C
:104E3300F0A3E4F022E0240F123B8E2274F4120359
:104E4300C6900326125EE61214EF8A0A8B0B7CFFD0
:104E53007DFF8020E0C398FAA3E099FBC3EA9CEBB3
:104E63009D500E8E828F83A3A3E0C398FCA3E09989
:104E7300FD125ED9EE4F6059125279E50AC398F8D4
:104E8300E50B99F98E828F83125711C3E89AE99B38
:104E93008E828F83A3A340BCA3A3A3A3E064027069
:104EA3001DEE240B125556600CEE24101226A4128C
:104EB30057131213C9EEFAEFFB121D538007EEFAD4
:104EC300EFFB1214717A017B00900A8D1236D280A7
:104ED3001474FF6C700374FF6D600A7A017B009099
:104EE3000A8D12341A02252674F01203C68A088B1F
:104EF30009ECFAEDFB890A7C011260401255458AE0
:104F03000C8B0DAE0CAF0DEE4F7003024FD8E50ABC
:104F13006003024FD8E508124FDBE0F8EE242812B5
:104F23006E2A686003024FD8EE242C124E13E82A2F
:104F3300F8E43400F98E828F83A3A3A3A3A3A3A3CE
:104F4300A3E0FAE89AE99400C365D03340141252FF
:104F530064125559700C7B00126039E509124FE554
:104F630080731252641255597031EE242C126E2A3A
:104F7300F9EE24291226A47508FF750900E97808BB
:104F8300120A54E508F0EE242A1226A4E50812506A
:104F93000229F0EE242B1236C78022E5082414F8E8
:104FA300E5093400F9E0C0E0EE242A1226A4D0E09B
:104FB300124FFDC0E0EE24291226A4D0E0125011B6
:104FC300242D1226A4123A2FA3124E337A01FB90FA
:104FD3000A8D1236D202375B2413F582E509124794
:104FE3008222124E1AEE241412477F1245CEEEFA95
:104FF300EFFB121D5322EAF0A3EB1240E3E022F091
:10500300EE242812500A22F582EF12559F22F01245
:105013006277F0A3EBF0EE2274E81203C674FD127C
:105023000962E9851882851983F08A0A8B0B8C162D
:105033008D17741B120B5E12525C741D120B5E787B
:105043000C120B018A828B83A3A3E0F91212F78A55
:10505300128B13EA451370077A007B000252577ACA
:10506300127B001214418A088B09AE08AF09EE4F78
:1050730070030252537C127D0079001213B1740144
:10508300120B5EAA82AB83850A82850B83A3A3E0FE
:10509300F912131BEE240FF508EF1261FC740212D0
:1050A3000B5EE0850882850983F07902EEFAEFFB57
:1050B300121D5F851682851783124C79E8F0A3E9E8
:1050C3001252A88E828F83A3A3A3A3A3A3A3F075D5
:1050D30014FF751500850882850983E07814120A88
:1050E300541226A1E514F0851282851383A3E0F8F8
:1050F300124228C0E0EE240B1226A4D0E01252B2D2
:10510300F508EE240D1226A4E508F012555EE0859D
:1051130008F0A42424FAE5F03400FB1213C38A0830
:105123008B09EE24101226A4124536EA45097003B2
:105133000252488A828B83741A124E338A828B837B
:10514300A3A3F0A312529C125285124173AC16AD65
:1051530017EA2406FAEB3400FB121315850A82853D
:105163000B83A3A3A3E0C0E0E508240FF582E509C0
:105173001226A7D0E0F090036712527DE5082410B1
:1051830012526D1252C2A312527DE508241212521A
:105193006D124752C0E01252641226A7D0E0F0E528
:1051A3000A125536E50B126E2DC0E0E5082415F5FD
:1051B30082E5091226A7D0E0125293C0E0E5082445
:1051C30016F582E5091226A7D0E0126E31E0C0E0A1
:1051D300E5082417F582E5091226A7D0E0126E31FF
:1051E300A3E0C0E0E5082418F582E5091226A7D05C
:1051F300E0124484C0E0E5082419F582E50912268B
:10520300A7D0E0F0E508241AF582E5091226A7786D
:105213000C120B1FE5082424F8E5093400F9E5080E
:105223002422F582E509124170E50A12603BE50B81
:10523300126E2DC0E0E508241FF582E5091226A7AA
:10524300D0E0F0800BEEFAEFFB121D537E007F00DF
:10525300EEFAEFFB740302626FE0F510A3E0F511C1
:1052630022E5082414F582E50922F582E5091247AF
:1052730082E8F0A3E9228E828F83125281221248A0
:10528300CC22E0F8A3E0F98A828B83A3A3A3A32211
:10529300F0851082851183E0221252A02212475B0F
:1052A300A3A3A3A322F0126048E50B12500D22F032
:1052B3001252BA12500D22E50A126225E50B221290
:1052C30052A0A3A3A32274E81203C68A0A8B0B8CF1
:1052D300108D1189147418120B5EE0F516A3E0F516
:1052E30017741A120B5E780C120B01750900EA246D
:1052F30013F582EB126E2DF50890032812457160A9
:1053030011A908900328123B5C121E1EE9600302D8
:1053130055337C028510828511831257131260481E
:10532300E50B1255458A128B13AE12AF13EE4F7075
:105333004B850A82850B83A3E0A2E0400302553329
:10534300780C1208E278161208EAA914AC10AD1111
:10535300AA0AAB0B120B7D74061208FD8A0C8B0D87
:10536300AE0CAF0DEE4F70030255338E828F83A3C5
:10537300A3A3A3A3A3A3A3E5081255AD85080C8E8D
:10538300828F83A3A3A3A3A3A3A3A3E024FFF8E48F
:1053930034FFF9E8650C7001E97003750901EE2427
:1053A3000B12555670030254E6850A82850B83A3BC
:1053B300E0A2E0500375080012557FE50C98E499CC
:1053C300C365D033401EE0F8EE240E126E2A28F097
:1053D300750CFF750D00E8780C120A54EE12553661
:1053E300EF12554C12604FE50B123F9D1208E61267
:1053F300417E85080CEE240D126E2A850CF0A4F86C
:10540300A9F0EE2410126E2A2422123DFE28FAA3DC
:10541300E039FB1241611208FD750C0112556A78DF
:105423000C120A54126E27450CF0E509A2E05065F0
:10543300EE240C12553B12556A04780C120A548A56
:10544300828B83E0450C1255A585080C850CF0A4CE
:10545300F81252BA126E2DFCE82CFCE5F03400FD74
:10546300EE24101226A41255781257A8F47026EED3
:10547300240BF50CEF3400F50DEE24101226A412C4
:105483005713850C82850D831248BB850C82850DCD
:105493008374FF804D12452F90034AE0FA900ADF90
:1054A300E0F50CEA850CF0A4FAABF0F8EBF9900AFE
:1054B300DCE0F50CE8850CF0A4F8ACF0850CF0E921
:1054C300A42CF9EA28F8EB39F9E875F064A4F8AAF2
:1054D300F075F064E9A42AF98E828F83A3A3E8F020
:1054E300A3E9F012557F125ED0E8650C7001E96004
:1054F3000EEE240C1255566006E509A2E05031EE7B
:10550300240E126E2AC0E012555ED0E0F0126E2710
:10551300C0E0E50A2414F582E50B1226A7D0E0F0DB
:10552300AC0AAD0B851082851183125713120BCB76
:10553300026272240CF58222126A18FAE9FB750CD6
:10554300FF22125650121D5922124782E50CF022F7
:10555300EE2429F582EF12500DF422E50A2413F507
:1055630082E50B12478222750D00125595F5F0E581
:105573000884E5F022E0242012391D2285080CEE70
:10558300240E12500AF8125595FAE82AF8E434006A
:10559300F922EE240FF582EF12559F223400F58392
:1055A300E022F0EE240D12500A22F07A017B0090E3
:1055B3000A8DE0F91213F922C082C083900A8D127A
:1055C30048BB02340874F41203C68A088B09EB54EF
:1055D30080703BEAA2E05047120B71E5086401FAC0
:1055E300AB09803F8E828F83E06401701A124731CA
:1055F30012071812244D1208EAEE24121256391219
:105603000B8374061208FDEEFAEFFB1213C9900A1E
:105613008D12562970CEAA08E5096480FB80047AAE
:10562300007B00022526E0F91213D58A0A8B0BAE04
:105633000AAF0BEE4F22F582EF125650EE2402FC16
:10564300EF3400FDEE2418FAEF3400FB2212559FCD
:10565300F92274F11203C6890A8A088B098A828B9C
:1056630083125713120B9B8B0DEA450D600479B817
:10567300807F120BA7902347E493F8E9C398400473
:1056830079B2806D7A151256F77004791080628EA4
:10569300828F83E4F0A3125D61A3E50AF085080C11
:1056A30085090D750E00780C1208E67C127D00EE5C
:1056B30024030A0A0A1247231208FD90032A1245FB
:1056C3007190032A7006EEF0A3EF801FE0FAA3E0C7
:1056D3008003E8FAE9FB8A828B8312457170F3EE4B
:1056E300F8EFF98A828B83E8F0A3E9F0120BB9791A
:1056F300000264CF7B001214418A0C8B0DAE0CAFF9
:105703000DEE4F228E828F83A3A3A3A3A3A3A3A3F0
:1057130012474722C082C08390032A80048C828D63
:105723008312575960298C828D83A3A3E069600596
:1057330074FF6970E88C828D83A3A3A3E06A70036E
:10574300A3E06B70D8EC2403FAED3400FB80047AF9
:10575300007B00023408124508EC4D2274F7120353
:10576300C6E9FC74FE6C70047D0180027D00900329
:105773002A80096C70027D018882898312457160D9
:105783001F88828983A3A3A3E06A7003A3E06B70DD
:10579300E7EDA2E088828983A3A3E050D6F98002D3
:1057A30079FE023F8BECF0A3EDF08A828B83E0223B
:1057B300C082C083790090032A8001091257138A9B
:1057C300828B83E582458370F202340874F61203F8
:1057D300C6E4F508F50978081208EA902347E4932C
:1057E30075F013A42402FCE5F01259081214957401
:1057F300021208FDE9FE6003120BB3EEF902347FD7
:1058030074F61203C674FE12096285188285198321
:10581300E4F0A3125D6E8582088583097808120877
:10582300EA75080275090078081208EA12632E1255
:1058330008FD02347A74F51203C674EB120962850B
:105843001882851983E4F0A3F090032AE0FEA3E015
:10585300807D8E828F83A3A3E0C0E07402120B5E6F
:10586300D0E0125910A982AA8389088A09750A000F
:1058730078081208E67C127D007406120B5E124152
:105883005D1208FD7402120B5E8582088583097818
:10589300081208EA75081375090078081208EA74F3
:1058A30004120B5E123DDB75F013A4F8AAF075F039
:1058B30013E91259001263361208FD8518828519FF
:1058C30083E02401F0A3E034001248C1E8FEE9FFBD
:1058D300EE4F600302585585188285198385820827
:1058E30085830978081208EA7508027509007808A3
:1058F3001208EA12632E1208FD74158027A42AF9F0
:10590300E82402FCE93400FD7A427B002212591498
:10591300221259182212591C22F08E828F83A3A3BC
:10592300A322740D1208FD7F0302069374F412037D
:10593300C674EB1209627E007F0085188285198385
:1059430085820885830978081208EA7508028E099A
:1059530078081208EA7C007D007A4212640E12086D
:10596300FDE970748E08805E7402120B5E85820AF4
:1059730085830B780A1208EA750A13750B00780AF7
:105983001208EAE50875F013A4F8AAF075F013E518
:10599300091259001264101208FDE9701E740312F3
:1059A3000B5EAA82AB837402120B5EE0F9120B95B5
:1059B300E97008EE24010EEF3400FFE5082401F539
:1059C30008E5091261FC85188285198312527DC38B
:1059D300E50898E509994090EEFAEFFB7415022566
:1059E3002374F61203C68C828D83A3A3125BE2F0A9
:1059F300EA2417F582EB126E2DC0E0EC126225ED5E
:105A03001226A7D0E0F0EA241DF582EB1226A71296
:105A1300527DEC126811ED1226A7125BE2A3F0A3EC
:105A2300F0126810EB1226A7125BD4A3A3A3A3A3BF
:105A3300A3EEF0A3EF124FFDFE8C828D83125C0167
:105A430074035EFEC39403400FEC240D123F73EC0A
:105A53002410123F73025BBCEE600574026E707417
:105A63008C828D83E0540CFE740C6E7003025B59C0
:105A7300E0A2E4400D88828983E08C828D83A312A7
:105A83005C2B74086E6003025B59EC125536ED1201
:105A93003BC8F08A828B83A3A3A3125D2C70148C62
:105AA300828D83E0440C125BF0A3A3125BD4EEF06F
:105AB300A3EFF08C828D83E0A2E44018125BBF1247
:105AC3005C0E125BC8A3A3125C0E8C828D83A3A30E
:105AD300A3125C0188828983E0C0E0EC12604AED86
:105AE3001226A7D0E0125C018C828D83E0A2E750DE
:105AF3007C88828983E0FE8C828D83125C2B74FC0C
:105B03005E6003025A4C8C828D83A3E054036403CA
:105B13007003025A4C8C828D83A3E0540360518836
:105B2300828983E0C0E0EC2413F582ED1226A7D02E
:105B3300E0125C2C8C828D83E05403640270318804
