:020000040000FA
:06000000020AE9020212EF
:03002B000208A325
:0300530002013275
:03006B000204F498
:1000830002019C010101FF050301ED11ED11ED11C9
:10009300ED11A3109D10ED11D020000000000C20E5
:1000A300000000000C0000000C0001FFFF01010133
:1000B30000DA040000002D05B801020200881006D2
:1000C3000502070401051E02051E020A0A03B80BF6
:1000D30002803E010201FFFF020A011401E0965172
:1000E300180002020612FF0C01C51BCB1BD11BD744
:1000F3001B000000000000000000000000000000E2
:1001030000000000000000102020202020202020DC
:1001130020202020202020200101200401030500AD
:1001230005738001F680010800EF540A2A0B00C012
:10013300E074F1120495A2AFE433FED2AFE5A7FF5A
:10014300E5A1F5085FF509741055096006121889D1
:1001530075A1EF74085509600812188F75A1F7800F
:100163002BEFA2E0C0D0E508A2E092F0120A5F15DF
:100173008182F05017906198E0F89005FAE0C398F7
:10018300A2D265D0335002E8F075A1FE751A00EED5
:10019300A2E092AF7F0202054FC0E074F212049511
:1001A300A2AFE433FED2AF9061A4E0F8759B00E503
:1001B3009158540860087591F71218D1802AE59177
:1001C30058541060087591EF1218D7801BE8A2E00D
:1001D300C0D0E591A2E092F0120A5F158182F0503F
:1001E30007E0C2E0F0121A1B9061A3E0F8E5E958BA
:1001F3005404600E1219F175E9FB906193E0A2E6D5
:1002030040F2751A00EEA2E092AF7F0102054FC0E3
:10021300E074F2120495A2AFE433FED2AF9061A56D
:10022300E0F8E5BF585404600675BFFB121A2D8031
:10023300D1C3E498F8E499F91202758026C3E49ACD
:10024300FAE49BFBE920E7E9120275E498F8E499E4
:10025300F922C3E498F8E499F9120275E498F8E4F2
:1002630099F9C3E49AFAE49BFB22EB20E7CFE92058
:10027300E7E0B90010BB0008E88AF084F8AAF0228E
:10028300E4FBC8FA22EB70227B10C833C8C933C918
:10029300335007C39AC3DBF280069A50012ADBEA84
:1002A300C833F4C8C933F4C9FA2275F008E4C83373
:1002B300C8C933C933C99AC99B5004C92AC93BD594
:1002C300F0ECFBC833F4C8E4C9FA22080808EAC012
:1002D300E0EBC0E086F0E7A4FA180986F0E7A42A69
:1002E300FA180986F0E7A42AFA180986F0E7A42A7F
:1002F300FA1986F0E7A4FBE5F02AFA190886F0E775
:10030300A42BFBE5F03AFA190886F0E7A42BFBE5EA
:10031300F03AFA18180986F0E7A4C5F02BFBE43A83
:10032300FA1908E7C5F0C6A426F6E5F03BFBE43A64
:10033300FA1886F0E7A4F6E5F00826F6E43B08F69B
:10034300E43A08F6D0E0FBD0E0FA22E4CFC0E0E4E0
:10035300CEC0E0E4CDC0E0E4CCC0E075F020C3E65D
:1003630033F608E633F608E633F608E633F61818EC
:1003730018EC33FCED33FDEE33FEEF33FFC3EC97A4
:1003830009ED9709EE9709EF97191919400FFFEC3B
:1003930097FC09ED97FD09EE97FE191906D5F0BEF6
:1003A300ECF709EDF709EEF709EFF7191919D0E0A2
:1003B300FCD0E0FDD0E0FED0E0FF222518C582C0CE
:1003C300E0E51934FFC583C0E0E518C3958224F83E
:1003D30010AF088583198582188008858319858263
:1003E30018D2AFCEF0A3E520F0A37808E608F0A377
:1003F300DEFAEFF0A3E58124FAF8E608F0A3E608B5
:10040300F0A3E608F0A30808E608F0A3E608F0A3C3
:1004130015811581D0E0FED0E0F815811581158195
:10042300E8C0E0EEC0E022120B4BB9000302047FE8
:10043300E4900301789479088002F0A3D8FCD9FAF8
:10044300781A9000867A01BA00028007E493A3F633
:1004530008DAF9900A94AA82AB8390008778AC7982
:10046300018015E493A3AC82AD838A828B83F0A3CE
:10047300AA82AB838C828D83D8E9D9E7758277759D
:1004830083C1740312088575821175831E7400126B
:100493000885C0D02518C582C0E0E51934FFC5839F
:1004A300C0E0E518C3958224F310AF08858319854E
:1004B30082188008858319858218D2AFC8F0A3E912
:1004C300F0A3EAF0A3EBF0A37908E709F0A3D8FAC5
:1004D300ECF0A3EDF0A3EEF0A3EFF0A3D0E0F0A3D4
:1004E300D0E0F0A3D0E0F0A3E520F0A3E5F0F0A383
:1004F30022C0E074F2120495A2AFE433FED2AFE55A
:1005030089A2E15019900A59E0701353ABFD7CE8BE
:100513007D037A107B00900A54E0F91214C3E58935
:10052300A2E7501653AB7F900A86E4F07C64FDFA91
:100533007B20900A54E0F91214C3758900C2C57573
:100543001A00EEA2E092AF7F0102054F8519838561
:100553001882E0C0E0A3E0F9A3E0FAA3E0FBA378EC
:1005630008E0F608A3DFFAE0FCA3E0FDA3E0FEA3A6
:10057300E0FFA3E0C0E0A3E0C0E0A3E0F5D0A3E088
:10058300F520A3E0A3F5F010AF0885831985821841
:100593008008858319858218D2AFD082D083D0E0BA
:1005A300F8D0E0320375F0108E218F2285822685E4
:1005B3008325851882851983E0CEA3E0CF85268223
:1005C300852583EBC9EAC8EDCBECCAC3E833C8E998
:1005D30033C9EA33CAEB33CBC3EA9EF524EB9FF569
:1005E30023B35004AB23AA24EC33CCED33CDD5F0A5
:1005F300DAAE21AF2222D083D082ECC0E0EDC0E09E
:10060300E493A3FCE493A3FDED4C600D1206D1EC3F
:1006130024FFFCED34FFFD80EFE493A3FCE493A3FC
:10062300FDED4C600D12076EEC24FFFCED34FFFD75
:1006330080EFD0E0FDD0E0FCE493A3C0E0E493C0FE
:10064300E022D083D082E9C0E0E493A3C386F0C55F
:10065300F095F0F908E493A386F0C5F095F0700BDC
:10066300E493A3C3994005E9048002A3E475F0026F
:10067300A42582F582E5F03583F583D0E0F9E49390
:10068300A3C0E0E493C0E022851983851882E0A328
:10069300FEE0A3F5207808E0A3F608DFFAE0A3FF65
:1006A300E0A3C0E0E0A3C0E0E0A3C0E0E0A3C0E0BB
:1006B300E0A3C0E010AF0885821885831980088500
:1006C3008218858319D2AFD083D08202088BC0E011
:1006D300C3E49396087401939618400FE4936670ED
:1006E3000808740193661870007019A3A3C3E493F8
:1006F30096087401939618A3A3400DD0E0D0E0D0E0
:10070300E0020635A3A3A3A3A3A3D0E0227404802D
:100713000474028000CCC0E0EDC0E0E518C39CCCBB
:10072300AD1950011D10AF068C188D1980068C1859
:100733008D19D2AF120807D0E0FDD0E0FC2274027D
:100743008000CCC0E0EDC0E0E518C39CCCAD1950EF
:10075300011D10AF068C188D1980068C188D19D2C7
:10076300AF1207E5D0E0FDD0E0FC22C0E0C0F08886
:10077300F0E4936670080874019366187000A8F09B
:10078300A3A3700BD0F0D0E0D0E0D0E0020635A3F5
:10079300A3D0F0D0E022D083D082CCC0E0E493A3F6
:1007A30060061208661470FAE493A36006120970D7
:1007B3001470FAD0E0FCE493A3C0E0E493C0E02219
:1007C300A2E792D65002F40430F70663F0FF05F077
:1007D300B3400384800384F40430D60563F0FF053B
:1007E300F022CAC0E0E493A3C582CCC582C583CD01
:1007F300C583F0A3C582CCC582C583CDC583DAE5A5
:10080300D0E0CA22CAC0E0E0A3C582CCC582C583BA
:10081300CDC583F0A3C582CCC582C583CDC583DA9C
:10082300E6D0E0CA227009080808226016181818D2
:10083300C6C333C608C633C608C633C608C633C6DE
:10084300D5E0EA22C008C3E096F50808A3E0964283
:100853000808A3E096420808A3E09645087001D370
:10086300D00822C0E0E493A3D39C5010E493A3C325
:100873009C400AD0E0D0E0D0E00207B6A3A3A3D007
:10088300E022C09FF59FE473D09F22D083D082C023
:100893009FE493C0E0740193C0E0740293F59F2238
:1008A300C0E0C0D0E8C0E0E5A8D2AFC2C7751A0067
:1008B300A2E792AFD0E0F8D0D0D0E0322518F5828D
:1008C30010AF08F518400215198008F518400215F5
:1008D30019D2AF851983227404800A7403800674C5
:1008E3000280027401C0E0F4041208BFD0E0120BCE
:1008F3002622C0D0251810AF08F51850020519801C
:1009030008F51850020519D2AFD0D022BB0102E777
:1009130022C082C08389828A83BB0003E08002E411
:1009230093D083D082226016080808C6C313C61862
:10093300C613C618C613C618C613C6D5E0EA22C323
:10094300E0C696F608A3E0C696F608A3E0C696F6B8
:1009530008A3E0C696F622251810AF08F518400242
:1009630015198008F51840021519D2AF22C0E0E42A
:1009730093A36C7009D0E0D0E0D0E00207B6A3A344
:10098300D0E022E76670100809E766700A0809E7F5
:100993006670040809E76622E066701008A3E06643
:1009A300700A08A3E066700408A3E06622C3E09619
:1009B30008A3E09608A3E09608A3E096A2D265D028
:1009C3003322C3E697F60809E697F60809E697F691
:1009D3000809E697F622C3E096F008A3E096F0082C
:1009E300A3E096F008A3E096F022E026F608A3E041
:1009F30036F608A3E036F608A3E036F622E026F042
:100A030008A3E036F008A3E036F008A3E036F022AE
:100A1300E657F60809E657F60809E657F60809E621
:100A230057F622E056F608A3E056F608A3E056F67A
:100A330008A3E056F622E647F60809E647F6080952
:100A4300E647F60809E647F622700422600D18C649
:100A5300C333C608C633C6D5E0F41822C0E0E8C0E5
:100A6300E0E58124FCF8E6A2E7D0E0F8D0E022E656
:100A730027F60809E637F60809E637F60809E637E0
:100A8300F622E056F008A3E056F008A3E056F0087B
:100A9300A3E056F022E4C396F608E496F608E4963B
:100AA300F608E496F622C6F4C608C6F4C608C6F4E9
:100AB300C608C6F4C622600D08C6A2E713C618C648
:100AC30013C6D5E0F322C3E7960809E7960809E7BA
:100AD300960809E79622C3E09608A3E09608A3E0E8
:100AE3009608A3E0962275D00075814075180175AC
:100AF30019030002042AE0F608A3E0F608A3E0F6CF
:100B030008A3E0F622600C08C6C313C618C613C6B2
:100B1300D5E0F422E6F008A3E6F008A3E6F008A384
:100B2300E6F022CAC0E0E6F0A308DAFAD0E0FA223F
:100B3300E0FAA3E0FBA3E0FCA3E0FD22EAF0A3EBD1
:100B4300F0A3ECF0A3EDF022E5C754F84401F5C798
:100B53007901222518F582E43519F58322C2AF7590
:100B6300D69F0200002212088E374E0012088EE331
:100B73004E0012088E13500012088EC15200120844
:100B83008EB3550012088EC0550012088E4D5600C4
:100B930012088E0F570012088E57570012088EAB9B
:100BA300570012088EC7570012088EFB5700120811
:100BB3008E30580012088E27590012088EDC590017
:100BC30012088E2B5C0012088E7E5D0012088E21A7
:100BD3005E0012088EAE5E0012088EE45E001208FC
:100BE3008E965F0012088E68600012088E286200DD
:100BF30012088E85620012088EB9620012088E34C4
:100C0300630012088E0E640012088ECC6400120872
:100C13008E11650012088E29650012088EC06500CA
:100C230012088E31680012088E376A0012088E553A
:100C33006A0012088E736A0012088E4D6B00120848
:100C43008E756E0012088E08A90212088E3DA90245
:100C530012088E63A90212088E9DA90212088EAF94
:100C6300A90212088E01AA0212088E62AA021208B1
:100C73008EECAA0212088E90AB0212088ED8AB0239
:100C830012088E12AC0212088E2FAC0212088E5478
:100C9300AC0212088EA6AC0212088EBFAC02120878
:100CA3008EE5AC0212088E04AD0212088E3FAD022F
:100CB30012088E83AD0212088EAAAD0212088EFBB3
:100CC300AD0212088EABAE0212088E63AF02120899
:100CD3008E2BB00212088E08B10212088E8EB1025A
:100CE30012088E9DB10212088EA8B10212088EB1AD
:100CF300B20212088EC2B20212088E38B302120870
:100D03008ECAB30212088E22B40212088EE8B4020D
:100D130012088E19B50212088E5EB50212088E6B88
:100D2300B50212088EFFB60212088E64B8021208CA
:100D33008E80B90212088EEABB0212088EF5BB023E
:100D430012088EFFBB0212088E0ABC0212088E1410
:100D5300BC0212088E1EBC0212088E29BC021208A5
:100D63008E34BC0212088E65BC0212088E89BC0246
:100D730012088EADBC0212088E12BD0212088E56E6
:100D8300BD0212088E72BD0212088EE9BD0212085E
:100D93008E21BE0212088E6DBE0212088ECABE02DA
:100DA30012088EACC00212088E32C10212088E0BDA
:100DB300C20212088E1BC50212088E70C5021208E9
:100DC3008E9DC50212088EE9C60212088E39C7022B
:100DD30012088E8EC70212088E8FC80212088E2741
:100DE300C90212088EA9C90212088E49CA02120842
:100DF3008EFC800112088E35810112088E0F83014B
:100E030012088E4E830112088E98830112088E3DBC
:100E1300840112088E9C840112088ED0840112086A
:100E23008E3D850112088E5A860112088E62870153
:100E330012088EF8870112088E3F8B0112088EE884
:100E43008B0112088EC48C0112088E258D011208A5
:100E53008E428E0112088E6C900112088E2391012E
:100E630012088E2D910112088E60910112088E27AF
:100E7300920112088EC2920112088E279301120862
:100E83008E50930112088E72930112088EA1950160
:100E930012088E78960112088EBC960112088E29CC
:100EA300970112088EE4970112088E169801120812
:100EB3008E5A980112088E8D980112088EE29801BD
:100EC30012088E37990112088ECB990112088E2DC4
:100ED3009A0112088E959A0112088E3E9C011208FF
:100EE3008E269D0112088E689E0112088E96A0011F
:100EF30012088E56A10112088E85A30112088E28AE
:100F0300A40112088E66A40112088E12A60112080B
:100F13008E26A60112088E30A60112088E5AA6014B
:100F230012088E66A60112088E85A60112088E3C51
:100F3300A70112088E7BA70112088E85A70112084C
:100F43008E8FA70112088EDAA70112088E3DA80121
:100F530012088E44A90112088EFFA90112088EFE01
:100F6300AA0112088EF7AB0112088E94AC01120885
:100F73008E36AD0112088E4DAD0112088E84AD017F
:100F830012088EA2AD0112088EE6AD0112088E0B77
:100F9300AE0112088EF1AE0112088E5DAF01120888
:100FA3008ED7AF0112088EE6B00112088E25B2016A
:100FB30012088E87B20112088E41B30112088E64A3
:100FC300B30112088E38B40112088E83B4011208DB
:100FD3008EC5B40112088E1CB50112088E53B501DB
:100FE30012088E81B50112088EBAB50112088EDF80
:100FF300B50112088E67B60112088E8AB80112086D
:101003008EE9B80112088E7DB90112088EE9B90183
:1010130012088E3DBA0112088E77BA0112088E3873
:101023009E0312088E709E0312088E919E0312086F
:101033008ED39E0312088E399F0312088E439F039B
:1010430012088E539F0312088E889F0312088ED1B5
:10105300A20312088E7BA40312088E7BA603120838
:101063008E18810212088E72810212088ECE8102BE
:1010730012088E1A820212088E35820212088E66B8
:10108300820212088E83820212088E8F8202120855
:101093008E03840212088E1C840212088E8384023B
:1010A30012088E96840212088EA4840212088E58A7
:1010B300850212088E3C860212088E4287021208AD
:1010C3008EC8870212088ED2870212088E3F8802CA
:1010D30012088E56880212088E88880212088EC162
:1010E300880212088EEB880212088E4C89021208BD
:1010F3008E6C890212088E8A890212088ED08902A8
:1011030012088EF68A0212088E438B0212088E7220
:101113008B0212088EE88B0212088E108C021208C2
:101123008E498C0212088E578C0212088EAF8C02E5
:1011330012088EFE8C0212088E3D8D0212088E6DEF
:101143008D0212088E998D0212088EA48D02120848
:101153008EC28D0212088E848E0212088E8E8E022B
:1011630012088EC98E0212088EDF8E0212088EE8D4
:101173008E0212088E3D8F0212088E518F021208C2
:101183008E5F900212088E72900212088E8990026E
:1011930012088E9E900212088E40910212088EC38E
:1011A300910212088E81920212088E8C920212080A
:1011B3008EB2930212088ECE930212088E209402EE
:1011C30012088E5F940212088E74940212088EB66F
:1011D300940212088E03970212088E819702120856
:1011E3008EF4970212088E169A0212088E2E9A0215
:1011F30012088E319A0212088E3D9A0212088E51FD
:101203009A0212088E599A0212088E8C9A021208B8
:101213008E3C9B0212088EB29B0212088E259C0202
:1012230012088ED99C0212088E8E9D0212088EAD72
:101233009D0212088E4D9E0212088E599E021208BC
:101243008E849E0212088E879E0212088EB69E021C
:1012530012088ECB9E0212088E359F0212088E5DF5
:10126300A00212088E35A10212088EC0A102120834
:101273008ED9A20212088E96A30212088ECFA30261
:1012830012088E00A40212088EA0A40212088ED0A7
:10129300A40212088EABA50212088E44A6021208FD
:1012A3008ECFA60212088E80A70212088E02A80211
:1012B30012088E34A80212088E75A80212088EAA8C
:1012C300A80212088EFC8A0312088E618B0312088F
:1012D3008E9E8B0312088EED8B0312088ED78D031F
:1012E30012088EBE8F0312088EF7920312088E1D0A
:1012F300930312088E35930312088E9E93031208EC
:101303008EDA930312088E07940312088E3994031E
:1013130012088E97940312088E6EF40212088EEC54
:10132300F40212088E1EF50212088E76F5021208D8
:101333008EF0F60212088E0CF70212088E47F7029F
:1013430012088ECEF70212088E1EF80212088EEBD8
:10135300F80212088EEFF90212088E43FA021208FD
:101363008EBEFA0212088E1FFB0212088E60FB0269
:1013730012088E0BFC0212088E29FD0212088E5FE2
:10138300FD0212088EAAFD0212088EF1FD02120858
:101393008E7BFE0212088E20FF0212088E2DA703F9
:1013A30012088E73A70312088EDDA70312088EFEA0
:1013B300A70312088E9EA80312088EA8A80312087A
:1013C3008EF5A80312088E1AA90312088E7AA903B0
:1013D30012088E10AA0312088E48AA0312088EA1BF
:1013E300AA0312088EFDAA0312088E85AB03120806
:1013F3008ECAAB0312088E09AC0312088E4EAC03DF
:1014030012088E60AC0312088EA1450012088E915B
:10141300AC0312088E9AAC0312088E4BAD0312086C
:101423008E8BAD0312088EDAE60312088ED9D7032A
:1014330012088E0FD80312088E58D80312088EA5EF
:10144300D90312088EFCCA0212088E75CC02120848
:101453008E36CE0212088E72CE0212088EF9D10297
:1014630012088E3FD20212088E814C0012088E267B
:10147300D50212088ED2D50212088E7DD702120829
:101483008EC7D90212088EE3DC0212088EF1DC0249
:1014930012088ECCDD0212088EDFE10212088E8C58
:1014A300EA0312088EA7EA0312088EFDE903120865
:1014B3008E79CC0312088E8CCC0312088E27CD03B1
:1014C30012088E63CD0312088E88CD0312088ECDC9
:1014D300CD0312088E06CE0312088E3ECE031208E9
:1014E3008EA8CF0312088EECCF0312088E9D7F00C7
:1014F30012088EC87F0012088EE47F0012088E72D5
:10150300E20212088EC4E20212088E33E3021208CA
:101513008EEBE30212088E55E40212088E34E502C4
:1015230012088E49E50212088E93E50212088ED73F
:10153300E50212088EEAE50212088E36E602120868
:101543008E20E80212088EA2E80212088ECCE8026E
:1015530012088E04E90212088E8FEA0212088EFF27
:10156300EA0212088E8CEB0212088E9FEB0212081D
:101573008EEEEB0212088E04EC0212088E1BEC02B4
:1015830012088E4AEC0212088E5CEC0212088E27B7
:10159300ED0212088E8AED0212088ED6ED021208B1
:1015A3008ED0EE0212088E50F10212088EE4F10280
:1015B30012088E2FF20212088EA4F20212088EC1B4
:1015C300F20212088EC4F20212088ED4F20212083A
:1015D3008E4BF30212088E85F30212088EB1F302CA
:1015E30012088ED8F30212088EF7F30212088E3215
:1015F300F40212088E49F40212088E03E90312085A
:101603008E0FE90312088E49E90312088E936E00C8
:1016130012088EBE6E0012088EC36F0012088E3B36
:10162300700012088EA5700012088EF17000120867
:101633008E64710012088EEF710012088E7A7200A8
:1016430012088EAD720012088EA1770012088E491F
:10165300790012088EB37A0012088E227B001208DA
:101663008E00800312088EBF800312088E2F810321
:1016730012088ED6810312088E33820312088E5A03
:10168300830312088E1A840312088E7F84031208C0
:101693008E2D860312088EEA860312088E148803A1
:1016A30012088EAD880312088E9D890312088EA43A
:1016B300E40112088E2CE50112088E9FE501120841
:1016C3008EF3E50112088E2EE60112088EBBE601A9
:1016D30012088ED7E70112088E29E80112088E87B7
:1016E300E80112088ECAE80112088E3FE9011208C8
:1016F3008E89E90112088E08EB0112088ECFEB01E7
:1017030012088E75EC0112088E94EC0112088ED427
:10171300EC0112088E98ED0112088E7CEF0112087D
:101723008E93EF0112088EE9F00112088E66F10123
:1017330012088E1AF20112088E5EF20112088E252B
:10174300F40112088EFDF40112088E39F601120815
:101753008EF2F60112088E23F80112088E52F80158
:1017630012088E2CF90112088EFBF90112088E540F
:10177300FA0112088E6CFA0112088E6CFB01120832
:101783008EFAFB0112088E8AD50312088E49D603FE
:1017930012088E02D70312088E68D70312088EFB35
:1017A300C10312088E64C30312088E39EB031208B7
:1017B3008EF7DD0312088E05DE0312088E6CEB0331
:1017C30012088E80E90312088E90E90312088E9C9A
:1017D300E90312088EF7E90312088EDCE503120809
:1017E3008E5DE60312088EC1E60312088EEE7F00BB
:1017F30012088E53EB0312088E63EB0312088E66F6
:10180300EB0312088E69EB0312088EF87F001208AF
:101813008E24DC0312088E46DC0312088E70DD036F
:1018230012088EF4DD0312088E08B80312088E5DC9
:10183300B80312088E31BA0312088E63BA03120872
:101843008E8ABA0312088E9EBA0312088EB7BA03A1
:1018530012088EE6BB0312088EADDF0312088ED189
:10186300DF0312088EEADF0312088E1DE00312085D
:101873008E4EE00312088E7CE00312088E86E0038E
:1018830012088EE8E00312088EF7E00312088E01B7
:10189300E10312088E0EE10312088EFF7C0012088A
:1018A3008E3C7D0012088E4B7D0012088E6A7D00EF
:1018B30012088ED27D0012088EDB7D0012088E3A4C
:1018C3007E0012088E5E7E0012088E517F00120881
:1018D3008E5E7F0012088E6F7F0012088ED0EA039F
:1018E30012088EEDEA0312088EE2B20312088E2864
:1018F300B30312088E87B40312088E94B40312083C
:101903008EA7B40312088EC6B40312088EDCB40388
:1019130012088EF0B40312088E65B50312088ECA3E
:10192300B50312088E52B60312088EDBB6031208F3
:101933008EB0B70312088EC0B70312088ECFB70359
:1019430012088E68E80312088E8DE80312088EB61B
:10195300E80312088EDEE80312088E0CDA0312087D
:101963008E33DA0312088EAFDA0312088E11D30313
:1019730012088E2AD30312088E36D30312088E4A16
:10198300D30312088E68D30312088E72D30312088E
:101993008E7CD30312088E8FD30312088EE7D303F2
:1019A30012088E20D40312088E4ED40312088E9C84
:1019B300D40312088EE9D40312088E04D503120847
:1019C3008E0ED50312088E40D50312088E9CFF029B
:1019D30012088EEDFF0212088EE7940312088E118F
:1019E300950312088E2D950312088E409503120855
:1019F3008E7F950312088E00960312088E389A0381
:101A030012088E629B0312088E959B0312088EE2C6
:101A13009B0312088E0A9D0312088E329D0312083F
:101A23008E559D0312088E999D0312088EFA9D030D
:101A330012088E0A9E0312088E62E20312088E7D3C
:101A4300E20312088EA6E20312088EC0E203120814
:101A53008EE5E20312088E04E30312088E1CE303EF
:101A630012088E4AE30312088E64E30312088EAD54
:101A7300E70312088EF3E70312088EDBC80312088C
:101A83008EE2C80312088E17CA0312088E46CA03D1
:101A930012088EB4CA0312088E47CB0312088E8035
:101AA300CB0312088EC9CB0312088EF9CB0312089D
:101AB3008E19CC0312088E95E30312088EA7E30355
:101AC30012088EC1E40312088EC4E40312088EC701
:101AD300E40312088E26E50312088E7CE503120840
:101AE3008EBDE50312088EC1BA0112088EDCBA015D
:101AF30012088E51BB0112088ED7BB0112088E6AE1
:101B0300BC0112088E86BC0112088E30BF01120878
:101B13008EDFC10112088E7DC30112088EC8C40175
:101B230012088E7DC90112088E79CA0112088EEF40
:101B3300CA0112088EBBCB0112088E5FCC011208BA
:101B43008EC2CD0112088E62CE0112088EACCE0178
:101B530012088E1ECF0112088EC3CF0112088E9079
:101B6300D00112088EF6D00112088EFBD1011208A3
:101B73008EB8D20112088E55D30112088EACD5014E
:101B830012088E40D60112088EBCD60112088E4868
:101B9300D90112088E43DA0112088E72DA01120893
:101BA3008E31DC0112088E05DE0112088EFBDE0188
:101BB30012088EE4E30112088EB4AD0312088E03FB
:101BC300AE0312088ED1B00312088ED4B0031208EC
:101BD3008E07B10312088E0AB10312088E0DB103EA
:101BE30012088EF7B10312088EABFC0112088ED0D7
:101BF300FC0112088E73FD0112088E40FE011208CB
:101C03008E13FF0112088E75FF0112088E97FF01D4
:101C130012088E18E10312088E55E10312088E7123
:101C2300E10312088E7CE10312088EFBE103120824
:101C33008E1EE20312088E3CC50312088EFDC503F7
:101C430012088E6CC60312088E91C60312088E4CBE
:101C5300C70312088E48EA0312088EF9CF0312084D
:101C63008E1CD00312088E67D00312088E83D00314
:101C730012088EB4D00312088EC4D00312088EA7A4
:101C8300D10312088EB1D10312088EBED1031208FC
:101C93008EDDD20312088EF1D20312088EFAD2031C
:101CA30012088EC2BC0312088E72C10312088E0C76
:101CB300EB0312088E6E450012088E414500120890
:101CC3008E3C440012088EF4430012088E29420011
:101CD30012088EA9410012088E81410012088E0E4F
:101CE300410012088ECE3F0012088E303F001208CA
:101CF3008EFE3E0012088E3B3E0012088E663C00AC
:101D030012088EF73B0012088EC93B0012088EC6DC
:101D13003B0012088E383A0012088E393900120837
:101D23008E12380012088E58370012088ED03600F3
:101D330012088ED6350012088E2E350012088E7CBE
:101D4300340012088E3C4A0012088EC34900120860
:101D53008E6A490012088EFE480012088ED548008C
:101D630012088E3F340012088E74330012088E3E20
:101D7300330012088EE5320012088E7B48001208E9
:101D83008EB0320012088E51320012088E203200BB
:101D930012088EDB2E0012088E92470012088E5412
:101DA300D40212088ECC2D0012088E5B2D0012086F
:101DB3008E202D0012088EEB2C0012088EDF2C00D3
:101DC30012088E3F2C0012088E862B0012088E59A3
:101DD300290012088EE5260012088EA32600120899
:101DE3008E6E250012088E23250012088E522400C1
:101DF30012088EA9230012088E7F230012088ED5A5
:101E0300450012088E45230012088E72AC030000B1
:101E13000080FBE4738F000100EA0A87000100E8F9
:101E23000A24000200A50525000200A705260002DA
:101E330000A90527000200C80A28000100CA0A29D0
:101E4300000100CB0A84000400CC0A86000100D004
:101E53000A2A000100D10A2B000100D20A2C00013A
:101E630000D60A2D000800AD052E000100D70A2F69
:101E7300000100D80A30000100D90A31000100DA5C
:101E83000A32000100B50533000100B60534000134
:101E930000DB0A36000100B70538000100DC0A390F
:101EA300000100D50A83000200E60A63000100C1B5
:101EB3000564000100D30A65000100D40A6D000126
:101EC30000E50A6E000200AB0543000100DD0A4491
:101ED300000200DE0A45000100E00A46000200E1BC
:101EE3000A47000800B90548000100E30A4B000156
:101EF30000E40A04000100E90AA1000100ED0A3729
:101F0300000100EC0A88000100EB0A3C000100B864
:101F13000500000000000000013636010100010247
:101F23000100010301000104010606050200000788
:101F33000100340801000F090401010D0100FF0E27
:101F430008000017020000190100FF1A0100011B1D
:101F53000100FE1C0100081D0200001F01000120FA
:101F6300010001210200002301000F2402000026CA
:101F730001000127010008280200FF2A0100072BA6
:101F83000102402C0100002D0100012E0100012F50
:101F93000100FF30010B1C310800003A0100083B2F
:101FA30001000F2F010000030271023001600211D2
:101FB3000270020102020202028002100261023A6E
:101FC30000410063027302720262024302000213C1
:101FD30002380000020002040212020002000200A2
:101FE30002000204020402370037003C02440200EC
:101FF300023900000200026502000235028102007C
:10200300020502820283020002010371030103013C
:10201300030103010301032203020301031003006D
:102023000300030003000300030003000342030053
:1020330003240306030003000304031203250323FD
:1020430003250323030403040300030003000344E1
:102053000300030003230300036503210035038109
:1020630003000305030003000300030101710101E1
:10207300010101110101013101010101018001107F
:102083000161013B001400630173017201620143AA
:10209300010001130106013D013500040112010095
:1020A3000100010001000104010401330133013C7B
:1020B30001440132013600000100016501000135D0
:1020C3000081010001050182018301000103007108
:1020D30000300160001100700031022003500480C1
:1020E30000100061000000140063007300720062BE
:1020F300004300000013000600000000000400126B
:102103000000000000000000000400040037003756
:10211300003C0244000000000000000000650000D5
:10212300003500810000000500000083000000006E
:102133000003002001F880000000002001FB800064
:10214300000400420141800000050042013080008C
:1021530000060042015280000007002001F98000C0
:102163000010004203170B000011002003620A0055
:102173000012001003280B030000002103630A0070
:102183000502001901290B000000000000000036C1
:10219300000100060000000F000000000000000026
:1021A300000000000003FFFF00000403FFFF000026
:1021B300FFFF0FF4010005C4040320000100020B1C
:1021C300000000000000000003010F5F1B9B1B6564
:1021D3001BB31B6B1BA11B6B1BAD1B711BB31B6BBE
:1021E3001BA11B771BB31B7D1BB31B831BB31B895A
:1021F3001BB31B8F1BB31B951BB31B0000000000FD
:1022030000000003EAF5E5D5D5C5B5A59595858507
:1022130075756565555545453535252515150501EF
:102223000079160200251603002B1604003116054B
:1022330000371606004316FFFF0000FD102D1103A3
:1022430011091127111B111511331139113F114BAD
:10225300110F11F710F1100A750E023F0E05510E02
:1022630007450E0C210E0D330EFF000000160F0064
:10227300000B150B020002220F320000067A6232B5
:1022830030313630393239313032363337000000AD
:1022930000000000008967452301EFCDAB58696E4C
:1022A3006748756F5975616E536D617274ED11FFF7
:1022B300110512C7100B12C110CD10591277127DE0
:1022C300125F126B12651200034948424D1817251D
:1022D30005020001191618161615230300303017CE
:1022E300181921301B1D1F3000383C3E363B3B354F
:1022F3002B432C303016181920231A1C1E300C0EB9
:10230300020B040B0A0708000F211145117112512A
:1023130011571141121112171223121D1202040236
:1023230001010101090200BE040A28000E00150084
:102333000400E803090AFF1E1E0C0408100C05081C
:102343000F0474F71203BEE9FE121319EE900A95F7
:10235300F090030C74E7F0A3741DF090030E74E186
:10236300F0A3741DF090031074DBF0A3741DF090C0
:10237300031274D5F0A3741DF0023F8374F71203A4
:10238300BEE9FE900302E4F0EE900301F07CB97D18
:10239300057A037B03121AE1900AE3E090030BF042
:1023A300121DB1023F8374F41203BE8A088B09EB3A
:1023B3005480605B900301125621604A8E828F83A2
:1023C300E064017032124729120710EE2412126ED4
:1023D30022F50A780A1208E61224451208E2EE24CE
:1023E3000B12269C120714EE24171256311212D721
:1023F30074091208F58008E064027003121CD3EE1E
:10240300FAEFFB1213C1AA08E5096480FB8030EAE6
:102413005402600C900A947401F0EA6402FA801F7B
:10242300EA54046005EA640480F3EA5408600C1279
:102433001DABE5086408FAAB0980047A007B00024F
:10244300251EEE240FF50AEF3400F50B780A2274EB
:10245300F41203BE8A088B098A828B83A3A3A3E0A9
:102463002410123F8FFA12486170030225018E82F5
:102473008F837402F0A3E412484FA3A3A3A3E8F04D
:10248300A3E91244B3A3A3A3A3A3A3A3F0E508243E
:1024930003F8E509123B242410123DF68E828F8344
:1024A300A3A3A3A3F0EE2409FA1225031240CBF54C
:1024B300838882E0A2E58E828F83A3A3A3A3A35084
:1024C3000474018001E4F0E5082403F88882898319
:1024D30012570BEA126049EB12269F12250E1208BF
:1024E300DE12621CEB1241798E828F83A3A3124703
:1024F300361208F5EEFAEFFB9003011248B3801B86
:10250300EF3400FB8E828F83A3A322E0F508A3E0C0
:10251300F509750A007808221208F57F0402068B74
:1025230074F21203BE8A088B09ECFAEDFB740E12E7
:102533000B56E0FC1213498A0C8B0DAE0CAF0DEE5B
:102543004F6023AC08AD09121337E96019AC08AD2D
:1025530009EEFAEFFB12133DE97007EEFAEFFB12F7
:1025630013317900800279B402333974EE1203BE59
:1025730074F712095A8A0A8B0BECFEEDFF750FB341
:10258300750E00750C00750D00800CE50C2401F52B
:102593000CE50D3400F50D902333E493F8740193A7
:1025A300F9C3E50C98E50D99400302268DAA0CABFF
:1025B3000D1213978A088B09EA450960CE8A828B2C
:1025C30083A3A3A3A3A3E0250EF50EF510C3E50A89
:1025D3009510E50B940050B37C157D007900EEFA5D
:1025E300EFFB12451CA3A3A3A3E50AC3950EF8E0D2
:1025F30028C333F8E433F9E50828F582E50939F50A
:1026030083A3A3A3A3A3A3124C71A3123FBCEAFC0D
:10261300EBFDEEFAEF123BB1A3E06401700A12473F
:1026230029740112342B8043851882851983AC8267
:10263300AD8385088285098312570912137FE960E8
:102643002D7408120B56E0C0E0124729D0E0F07455
:1026530008120B56E06403851882851983700CAC4D
:1026630082AD83EE240B123418800312415F850878
:1026730082850983123A27A3A3124812C0E0EE24ED
:102683001412269CD0E0F0750F00A90F74091208EC
:10269300F57F0A02068BEE240CF582EF12477A22AD
:1026A30074F71203BEE9FE8A828B83A3A3A3A3A3B9
:1026B300A3E0540860298A828B83A3A3A3A3A3A3C3
:1026C300E0540260178A828B83A3A3A3A3A3A3A3CB
:1026D300A3A3E06406600574E96E7003121DC902CA
:1026E3003F8374E81203BE74F712095A7407120B7E
:1026F3005612452EE9851882851983F0ECFEEDFF0D
:102703007424120B56780C120AF97513008E828FFB
:10271300831257058E828F83A3A3A3E0F912135567
:102723008A148B15EA451570030228FFEE24101254
:102733004E0BA914120D738A168B17EA45177003F3
:102743000228FFEE2406F510EF3400F5117C008516
:102753001082F5831229458E828F83A3A3A3E0857C
:102763001682851783A3A3A312528BF8A3E0F985DE
:102773001682851783A3A3A3A3E8F0A3E9122ED699
:10278300851682851783A3A3A3A3A3A3A3124E2B0A
:10279300851682851783A3A3A3A3A3A3F0EE1260D8
:1027A30049EF122B5F1208DEEE12621DEF12417920
:1027B300851682851783A3A3A3A3A3A3A3A3A3120D
:1027C30047361208F575100002287F850A82850BAB
:1027D30083125709121385850882850983A3EAF0BA
:1027E300A3EB12474FA3A31244EA1248CAE0A2E69E
:1027F300500F850882850983A3A3A3A3A3E0D2E195
:10280300F0E5137063850882850983A312527590DE
:10281300035AE0687003A3E069704D850882850957
:1028230083A3A3A3124E17780C1208DA7427120B92
:1028330056E0F50A780A1208E67426120B561207B8
:102843001490036712071479007410120B56124484
:102853009E121DFF74091208F5850882850983A35A
:10286300A3A3A3A3E04405F074012510FC8E828F7B
:1028730083A3A3A3A3A3A31229450510E50A450B2C
:102883006052851008C3E5089514E495155045E595
:102893001075F006A4F8A9F0E51628F8E51739F93C
:1028A300E8240CF508E9123809E41247456401608D
:1028B300030227CE751301850882850983740112EB
:1028C300474AF8A3E0F9850882850983A3E8F0A3C2
:1028D300E90227E5AA16AB17120D7978161208E25A
:1028E3007425120B56E0FC7402120B56E0F9EEFA53
:1028F300EFFB121DCF74021208F580418E828F8385
:10290300A3A3A3E0C0E07404120B56D0E0122ED6AA
:10291300C0E07405120B56D0E0F0E51445157009BC
:102923007406120B5674B980077406120B56741092
:10293300F07401120B56AA82AB83121409740902B4
:10294300626712473F8E828F83A3A3A3E0F912131A
:102953005B8A0A8B0B2274EA1203BE74F312095AC0
:102963008A0A8B0B89158C147423120B56126A2B4B
:10297300AA0CFB120D67E9F513AA0CAB0D120D6D32
:10298300E5137003022B4C750E00800F8E828F832C
:10299300A3A3A3A3A3E0D2E3F0050EE50C240BF558
:1029A30082E50D122CDAE50EC3984003022B43E5B2
:1029B300137003022B43E50E75F006A4F8A9F0E5A6
:1029C3000C28F8E50D39F9E8240CFEE912680EA38A
:1029D300A3A3A3E0A2E040C1750F00750808750921
:1029E30000E5146003750F201244D2E060339003B6
:1029F300AAE064017017E50FD2E3F50F7509108E95
:102A0300828F831240FD123FB074FF8024430F0C6A
:102A130075080C8E828F83A3122B6B1261F9A3802E
:102A230010E5156009E50FD2E6F50F75080A122BBC
:102A330079F07402120B56E50F1252AAC0E0740427
:102A4300120B56D0E0F07405120B56123FA1120B75
:102A530056E06003022B267408120B561239278E98
:102A6300828F83A3A3A3A3F07408120B561231FC25
:102A7300F583E508F0A3E5091243D5E0601190035F
:102A8300AAE0C0E07408120B561231F5D0E0F085CD
:102A93000C82850D83A3A3A3E0C0E07408120B5638
:102AA300125D41D0E0125D79C0E07408120B56123A
:102AB3003207D0E0F07408120B56122B6BA3A3124B
:102AC3005D48125294A3A3E0125D2CEAF0A3EB122B
:102AD30052A0C0E0E8242EF582E912269FD0E0F050
:102AE3007408120B5612570B850A82850B83122B1F
:102AF300562424F582EB124168126047E50B122B32
:102B03005F1208DE124176EA242BF582EB12269F30
:102B13001247361208F5851882851983AA82AB837A
:102B2300121CC78E828F83A3A3A3A3A3E0D2E0F0DA
:102B3300740C120B56E0600302298F151302299CB3
:102B43007900AA0CAB0D121DC3740D1208F57F0E8C
:102B530002068BA3A3A3A3125279EA2212477A1285
:102B63005254751200781022125279850A82850B0D
:102B730083A3A3A3A322A3122B7E22124470E8F003
:102B8300A3E92274F21203BE74EB12095AEAFEEBB4
:102B9300FF89088E828F83A3A3A3A3A3A3A3A3E088
:102BA300F9120D918A0A8B0BEA450B607FE50870D9
:102BB300047C0480027C088E828F83A3A3A3A3A337
:102BC300A3A3A3E0F9120D97122699124569605C3D
:102BD300888289831257077406120B56122C3412FB
:102BE300570B7408120B56122C34A3A3E0C0E074E5
:102BF30010120B56D0E01252BA12570B740E120B6E
:102C03005612452E7411120B56E4124FF5F9780A39
:102C13001208E2742059FC744059F97402120B56DD
:102C2300AA82AB83121DCF74021208F57415023306
:102C330036EAF0A3EB123F79A3A3A32274F712039E
:102C4300BE74FA12095AE9FE7F018F087D008004E1
:102C53007508000D123F88122CDAEDC3985025ED4C
:102C630075F006A4F8A9F0EA28F8EB39F9E8126040
:102C730042E9124C5A50D9540C60D5E0A2E250D329
:102C83007F0080CF8A828B83A3A3A3A3A3A3E07037
:102C93003EE508A2E0400574016E70338A828B839F
:102CA300A3A3A3A3A3A37401125BF0E0C0E0740386
:102CB300120B56D0E0125BE8E0C0E07404120B562E
:102CC300D0E0F07405120B56EF12412D1214097463
:102CD30006023F80F582EF125005F822C082C083BE
:102CE3007901121DC3023400C082C083EA4B60180D
:102CF3009003A6E064027010900A94E4F0EAFCEBFF
:102D0300FD7A0212340D8012900A947401F07A0253
:102D13007B00900301E0F91214CF023400C082C09B
:102D230083900AF5E075F005A4FCADF079007AEE26
:102D33007B091213A97B008012EB75F005A4F8A997
:102D4300F0122ECB74FEF0A304F00B900AF5E0F81A
:102D5300EBC39840E4023400C082C0837C007B0054
:102D630080037C010B900AF5E0F8EBC398504FEB1E
:102D730075F005A4F8AAF0EAF9122EC47003A3E0D3
:102D8300F460E1122EBBE82403080808E9123B248F
:102D930024FFF0A3E034FF124FF5F8A3E0F9E8496C
:102DA30070C0EB75F005A4F8EAF9122EBB8882898E
:102DB3008374FEF0A304125C01A3E4F080A6ECA2EA
:102DC300E0500312340702340074F61203BEEAFE25
:102DD300EBFF900AF5E07003022EB6EE2411126E9B
:102DE300227003022EB68E828F83A3A3A3A3A3A371
:102DF300A3A3A31244A66402600F8E828F83A3A3AE
:102E0300A3A3A3E07003022EB67C0080010C900AFA
:102E1300F5E0F8ECC3985045EE240B12269C1252B1
:102E230075EC75F005A4FAABF074EE2AF58274091B
:102E33003BF583E0687003A3E06970D1EE241212BE
:102E43006E22FBEC75F005A4F8A9F074F028F58266
:102E5300740939F583E06B70B4790080587C008085
:102E6300010C900AF5E0F8ECC39850EDEC75F00511
:102E7300A4F8A9F0122EC47003A3E0F470E3122E99
:102E8300BBEE240B12269C1243A8EAF0A3EB122EEE
:102E9300D688828983A3123F74740C124E2B7A084E
:102EA300FB900301E0F91214D58B09EA450970037D
:102EB300123407790102347774EE28F8740939F96A
:102EC30022122ECBE064FE2274EE28F582740939B7
:102ED300F58322123744E02274F21203BE74F31214
:102EE300095AEAFEEBFF8E828F83A3A3A3A3A3A3B6
:102EF300A3A3A3A3E0F50A900A94E0700579BA02AC
:102F030031F0750801750900750C00750D007C081A
:102F13007D007900851882851983AA82AB831213F9
:102F2300A97405120B5674011232185404601274FA
:102F330002120B56E0D2E6123218540870037508D9
:102F430003E05410600674404508F508E054086037
:102F5300227402120B56E044C01232185420600A45
:102F63007403120B56E0D2E080087403120B56E090
:102F7300D2E1F08E828F83A3A3A3A3A3A3A3A3E091
:102F83007018120F1185188285198312452E740249
:102F9300120B56E0D2E2F0023042640F7015740255
:102FA300120B56E0D2E31248CB1245164508F5083A
:102FB3000230428E828F83A3A3A3A3A3A3A3A3E080
:102FC30064028E828F837005122B7A80C9A3A3A318
:102FD300A3A3A3A3A3E064037013851882851983B5
:102FE300AC82AD83EEFAEFFB121D6F80528E828F9F
:102FF30083A3A3A3A3A3A3A3A3E0640170419003AA
:10300300AAE0601C7402120B56E0D2E31248B985A1
:10301300188285198312416B750910750AFF801890
:103023007402120B56E0440C125D6674FDF0A37437
:10303300FFF074044508F5088E828F83126A2B1201
:103043004C54503A7402120B56E0540C701B8E828F
:103053008F8312570B121727E9700579BB0231F0E2
:103063007402120B56E0D2E5F0124C545010740265
:10307300120B56E0540C64047004E0D2E5F0EE2425
:1030830011126E22C0E07404120B56D0E0123FA35B
:10309300120B56E060030231E97408120B56123129
:1030A300FC12320EEE2418126E22C0E0E8126033D6
:1030B300E912269FD0E0F0EE2419126E22C0E074CC
:1030C30008120B56E024131238EFD0E0123FC96404
:1030D3000170119003AAE0C0E07408120B5612317C
:1030E300F5D0E0F07408120B56123DCE2417FAEF18
:1030F300123DFDFCE8241CF582E912269FEC124EDA
:103103002B8E828F83A3A3A3A3A3A3A3A3A3E0C014
:10311300E0E82422F582E912269FD0E0F074081239
:103123000B56123207E50AF07408120B56123DD300
:103133002424F582E9125544A3E50D12559DFCA301
:10314300E0FDE82426F582E912269FECF0A3ED12B8
:1031530035C71244FCE82428F582E912269F12574A
:10316300A0C0E0E8242FF582E912269FD0E0F0EE1C
:10317300241B126E22C0E07408120B56125D3AD063
:10318300E0F0EE241A126E22C0E07408120B56E02F
:10319300242E1238EFD0E0125D5E12250F1208DEE6
:1031A300EE241112269C1244FC740B120B56124788
:1031B300301208F5EE2415126E225440601B900362
:1031C300241245696013851882851983AA82AB830B
:1031D300900325123B57121E16851882851983AA60
:1031E30082AB83121CC7740C120B56E0F9740D02E8
:1031F3003336E0241512391522123DD7240FF582F8
:10320300E9340022E0242312391522F583E508F07E
:10321300A3E509F022F0EE24151250022274F712EE
:1032230003BE7E638A828B83E0600C7905120C2FC8
:10323300E9F87456C398FE900352E0600CF9120C3F
:103243002FE9F8EEC39824F2FEEEF9023F8374F6F9
:103253001203BE74FE12095A85188285198312451A
:103263002EE9FEECFAEDFB740C120B56E0FC900415
:1032730061124569603285188285198385820885C4
:10328300830978081208E27D01EEF9900461123B8C
:1032930054121E1674021208F58B09EA45096004DC
:1032A3007900800679B2800279B602347274F7121B
:1032B30003BEE9FE7409120B56E0FF90030C12459E
:1032C30069601AEFF50878081208E6EEF990030C26
:1032D300123B54121E1674011208F5800279B602CD
:1032E3003F8374F21203BE8A088B09ECFEEDFF756F
:1032F3000A0190035AE065087004A3E065097005AC
:10330300124497802A120F178A0C8B0DE508650C5F
:103313007004E509650D7009EEFAEFFB120F1D80CD
:103323000EEEFCEFFDAA08AB09120CA7E9F50AA9FA
:103333000A80031208F57F0602068B74F51203BE9A
:10334300EAFEEBFF8C088D09750A011264A412349E
:1033530021700B90035A123BA712416B800EAC08ED
:10336300AD09EEFAEFFB120CADE9F50AA90A025911
:103373002274F61203BEEAFEEBFF7A0C7B001214F2
:1033830039EA4B606BEE2420126E228A828B83F023
:10339300EE24211233F6F0EE24221233F6A3F0EEDC
:1033A30024231233F6A3A312476F12527DE8F0A32E
:1033B300E9124FFA12527EA3A3E8F0A3E9124E1DBD
:1033C3008A828B83A3A3A3A3A3A3A3A3F0EE242F97
:1033D300126E22C0E0123F8812269FD0E0124534BD
:1033E3008A828B83A3A3A3A3A3A3A3A3A312416B47
:1033F3000234771250028A828B83A322F0D083D0C7
:103403008202088B7CF47D017A087B00900301E043
:10341300F91214C322FAEF3400FB121AE122123F0D
:10342300B52212342BA3E02212342F22123433227A
:10343300124847A3A3221244C1A3E02274F6120345
:10344300BEECFEEDFF79B3900351E070209003834F
:10345300E064017018EE126042EF126822EE240F4E
:10346300124165E84960047900800279A1800574FE
:10347300021208F57F0202068B74F41203BE74FE77
:1034830012095AECFEEDFFEE2416126E226405704B
:1034930011EE2406FCEF3400FD121D75E9700302E2
:1034A3003527851882851983AC82AD83125F881214
:1034B30036B51245696069E875F009A4F8AAF07594
:1034C300F009E9A42AF9747C28F874F339F9E8FAC5
:1034D300E9FBEE241212269CC082C0838A828B836E
:1034E3007808120AF9D083D0827808120AD9402CBE
:1034F300851882851983123DCE1235D01252691276
:1035030037407808120AF99080EE78081209ED8A9C
:10351300828B837808120B177900800A79A28006C0
:1035230079A1800279C8740202251B74F41203BEC8
:1035330074FF12095AEAFEEBFF900351E070729098
:103543000383E06401706A75083A7509007808120C
:1035530008E27402120B56858208858309780812E3
:1035630008E21235B91208F5E9703EEE126049EF30
:10357300123BC012447CC0E0EE241112269CD0E022
:103583001235C7743A124E2B90032C120B33EE24D0
:103593001212269C120B3F9080EE7808120AF990C3
:1035A300032C7808120A0080081235CF123F6EA34D
:1035B300F0740102251B7C017D007A007B00121050
:1035C30019740422F01235CF12477A22EE240FF534
:1035D30082EF2274F01203BE74F612095AECFEED68
:1035E300FF7402120B56AC82AD83121D75E9700392
:1035F3000236B0851882851983AC82AD83740212BA
:103603000B56AA82AB831236B51245697003023694
:10361300B0E875F009A4F8AAF075F009E9A42AF94D
:10362300747828F874F339F988088909EE240E129E
:1036330036BF12447CF8A3E0F9EE240F1248381287
:103643000B33EE241212269C120B3F9080EE780C63
:10365300120AF9850882850983780C120A00850805
:10366300828509837808120AF99080BE780C120AC1
:10367300F97808790C12034EE50C450D450E450FFC
:10368300702B851882851983123DD375F009A4F830
:10369300AAF075F009E9A42AF9748028F58274F375
:1036A30039F5837401F07A007B101236C7740A026D
:1036B300375012172D85188285198322F582EF1250
:1036C300477AE4229004DAE0F91213F12274F0123B
:1036D30003BE8A088B09ECFEEDFF1235CF123F6E55
:1036E300A3123740C082C0839080DA780C120AF9A3
:1036F300D083D082780C12099B6032123734700564
:10370300121D63802AE07005121D3F80226402703F
:1037130013121D3FE96018EEFCEFFDAA08AB091276
:10372300174B800BE0640360DF79A1800279A380EB
:103733001FEE240EF582EF12500564012212374466
:1037430022F0EE2412F582EF3400F583221208F5FD
:103753007F0802068B74F61203BEEAFEEBFF1238F3
:10376300031244FCEC240F123F6B124506121D3367
:1037730085088285098312456670631238F37003E6
:10378300A3E069600A1238DE7003A3E069704F8E0C
:10379300828F83A3A31244F48E828F8312570B125A
:1037A3001751E960188E828F83A3A3A3A3A3A3A3B6
:1037B300A3A3A3E0240F1238EFE4F0A3F08E828FCB
:1037C30083125D248E828F83A3A3A3A3A3A3A3A3A6
:1037D300A3A37005123BA18004123B7BE4F01245C6
:1037E30058701A123B2812570B121D39850882850F
:1037F3000983124566700612269974A1F002347784
:10380300EE240AF508EF1261F4850882F583227429
:10381300F61203BEEAFEEBFFEE240A123B377A18D8
:103823007B0012143985088285098312392CF8A389
:10383300E0F9E84970030238D5EEFAEFFB121D27D1
:1038430012455860791239196401700712390074EE
:103853000E8034E064027007123900740D80288EE4
:10386300828F83A3A3A3A3A3A312456970EA12388B
:10387300F37003A3E06960E01238DE7003A3E0692C
:1038830060D6123900740512450F540364017007A2
:10389300123B5B7405800B900352E0C0E0123B5B6C
:1038A300D0E0F0123803123B69123A2CC0E08508CD
:1038B30082850983E024171238EFD0E08019850848
:1038C30082850983123F29850882850983E4F0A351
:1038D30080051226997410F0023477120F118A08AA
:1038E3008B09A808A9099005ABE0682212391522B3
:1038F3008E828F831252799005ABE068228E828F7D
:1039030083A3A3A3A3A3A3A3A3A3A3E0241612396E
:103913001522123B86228E828F83A3A3A3A3A3A384
:10392300A3A3A3A3123B7FE022EAF0A3EB12393453
:1039330022124847E02274F11203BE8A0A8B0B8CD1
:10394300088D097A181256EF7003023A1F8E828F80
:10395300837401F0E508240DF8E509125F91C3E4CF
:103963009AFA95E0FB12604E124E02FB8E828F8311
:10397300A3A3A3A3124FF18E828F83A3A3F0EEFA26
:10398300EFFB120BDB850882850983125D26700924
:103993008E828F83A374058006900352123A27F018
:1039A300EE2417F8EF3400F9880C890D8E828F838B
:1039B300123A2B850C82850D83F0EE2416F8EF3432
:1039C30000F9E508240EFAE5093400FB88828983AF
:1039D3001243B0E50824100A0AE5093400FB850CFC
:1039E30082850D83E0FC88828983E0F88A828B8359
:1039F300E0C398C39C125908F0EEFCEFFDAA0AAB92
:103A03000B121D2DE9F508700AEEFAEFFB120BE716
:103A1300E9F508EEFAEFFB12143F8003750810A9CD
:103A2300080264C71244BA22A3E0F9120C2FE92258
:103A3300790102088B74F41203BEEAFEEBFF8E8257
:103A43008F83A3A3A3A3A3A3A3A3125570125D26DD
:103A5300706B12391970668E828F83A3A3A3A3A3FD
:103A6300A3A3A3E0242B1238EF123B99704F8E824D
:103A73008F83A3A3A3A3A3A3A3A3E0242BF88882E8
:103A83008983123B69E0F8740168600A7406686010
:103A93000574056870138E828F83A3A3A3A3A3A3C6
:103AA300A3A3A3A3123BA180138E828F83A3A3A3FB
:103AB300A3A3A3A3A3A3A3123B7B7403F0123B28EA
:103AC300123B54E4F0EE2408F8EF123B24242D12A9
:103AD3003DF6C0E0123B41D0E0124FF5242A123DDF
:103AE300F6C0E0123B41A3D0E0124FF5240B12388D
:103AF300EF123BA7123C4F123FBC8A0A8B0BAC0A56
:103B0300AD0B850882850983E02406FAA3E034001F
:103B1300123BB112570B120BE7122699E9F002255B
:103B23001E1240F822EE240A123B2F22123B378842
:103B330082F58322F8EF3400F98808890922850881
:103B430082850983123C53A3A322EEFAEFFB900371
:103B53001CE0F8A3123B75228E828F83A3A3A3A339
:103B6300A3A3A3A3A3A3123B6D22E0F8123B74A368
:103B730022A3E0F583888222123B7F22E0240E12E7
:103B83003B8622123B8A22F8A3E0123B91223400A7
:103B9300F98882898322E0F8124224640522123BC9
:103BA3007F74022212527985088285098322FB12CF
:103BB3003BB622121AE18508828509832212477ACD
:103BC300740122023A33C082C08390031A7421F035
:103BD300A3741DF090031C7415F0A3741DF09003DF
:103BE3001E740FF0A3741DF0900320741BF0A374D4
:103BF3001D0233FF74F41203BEEAFEEBFF123C5CBA
:103C0300F508120F118A0A8B0BA80AA90B8E828F53
:103C130083123C4FE0687003A3E069602CE508A2BF
:103C2300E550268E828F83A3E0FB90031A123B5448
:103C3300121E168E828F83E0F8A3124A29A312451F
:103C4300697006123C5CC2E5F002251E123C532249
:103C5300E0FAA3E0F5838A82228E828F83123B6D82
:103C6300A3E02274F51203BE123DBC123DD32420FF
:103C7300F582E9126E25FE74035EF50A1243921271
:103C8300269F123DCE88828983F0A3A882A983E56B
:103C93000A60097402650A6003023D2D740C5EFF1D
:103CA300601574086F601074046F701D7402650AE8
:103CB3007005EEA2E4402D8A828B83A3A3A3A3A362
:103CC300A3A3A3E02423123E1E740C6F7010123DB5
:103CD300B72424123E062424123DC9123E21740245
:103CE300650A7005EEA2E44041123DB72426123E58
:103CF300062426123DDCA3123E30123DDC123E3078
:103D0300123DC9123E21EF600F74086F600A740CF4
:103D13006F600574046F70128A828B83A3A3A3A3BD
:103D2300A3A3A3A3E02422123E1E8A828B83A3A310
:103D3300A3A3A3A3A3A3123DEC7005EEA2E1501726
:103D43008A828B83A3A3A3A3A3A3A3A3E0242E12FA
:103D53004399123E17800E900302123E17900302FE
:103D6300E0041240DBA3A882A983EEA2E75042122B
:103D73003DB72421123DDC123E218C828D83123DFE
:103D8300EC602E8A828B83A3A3A3A3A3A3A3A3E0A4
:103D93002430123E1EEEA2E150178A828B83A3A326
:103DA300A3A3A3A3A3A3E02431123DF688828983AE
:103DB300F0025922123DBCE022EA2408FCEB340055
:103DC300FD8C828D832212439DA322125279EE220F
:103DD300123DD7221248C4E822123DE022F508A37F
:103DE300E03400850882F58322E0242112439DE01C
:103DF300540322FAA3E0123DFD223400FB8A828B96
:103E030083E022123DE0123E17A3A882A9838C828D
:103E13008D83E022E088828983F02212439D123E43
:103E23002522E088828983F0A308A98322123E25F4
:103E33008C828D83E0242822C082C0838A828B8374
:103E4300123C60F8740358F98A828B83A3A374012C
:103E5300F0E960057402697061740C58FC601474B5
:103E6300086C600F74046C70137402697005E8A227
:103E7300E4401D8A828B83A3A37402F0740C6C70DC
:103E83000A8A828B83A3A3E02402F074026970057B
:103E9300E8A2E440258A828B83A3A3E02404F0EC08
:103EA300600F74086C600A740C6C600574046C70A9
:103EB300098A828B83A3A3E004F0E8A2E750318A46
:103EC300828B83A3A3E0041257A4F9A3E0F58389AB
:103ED30082A3A3A3E0540360178A828B83A3A3E086
:103EE30004F0E8A2E150098A828B83A3A3E004F0E3
:103EF3008A828B83A3A3E0040233FFC082C0838A38
:103F0300828B83A3A3A3A3A3A3A3A3A3A312456900
:103F130060098A828B83A3A3123F21023400A3A3E7
:103F2300A3A3A3A3A3A312473F12143F2274F71220
:103F330003BEEAFEEBFF12527188828983A3A3A317
:103F4300A3A3A3A3A3E4F0123F74A3A3A3A3A3A3D4
:103F5300A3F0A3F0E812552EE9123F6E121CF7EE00
:103F6300FAEFFB121D038018F582ED12477AE4F095
:103F730022A3123F79221240DBA3A3A3221208F546
:103F83007F0102068BEA240BF582EB22125EAA2440
:103F9300092212477A126A2F750E00780C227401D7
:103FA300124131123FAA22121CCD740C2212448DED
:103FB300A322121ADBE9640122A3A3A3A3E8F0A3BB
:103FC300E9F0120F0B221243CFE02274F61203BE64
:103FD30074F412095A1240E1FCA3E0F5838C82A326
:103FE300E0FC7402120B56EC124FF52402124481CA
:103FF3007404120B5612416BEC600A7402120B56D6
:10400300E06404701C1240BF124C607406120B561D
:104013001240C51244817408120B56E8F0A3E980DC
:1040230056E06401600AE064066005E064057023FD
:104033001240BF123DF6C0E07403120B56D0E012DB
:104043004FF52413124C607406120B56124FF124D1
:104053001B80C07406120B56E4F0A31240EE241228
:10406300124C607408120B561240C5125EA6C0E0D3
:10407300740A120B56D0E0F07406120B56124569FF
:1040830060287406120B5612570B120C9BE964013D
:104093007018120F0B8A088B09AC08AD097406124D
:1040A3000B5612570B123421700D85188285198314
:1040B300AA82AB83121D99740C0234741240F32448
:1040C30012221240D2241A221240D2F8A3E022EA8A
:1040D300F0A3EB1240DBE022F088828983228A82FC
:1040E3008B83A3A3A3A3A3A3122B7EF01240F322DB
:1040F300EA2402F8EB123B91E022A31252798518CD
:1041030082851983221208F5023400C082C08374A9
:10411300FD12095A12413DC0E07402120B56D0E061
:1041230012412D121D7B740380DB12413122F08575
:104133001882851983AA82AB83228A828B83A3A3E5
:10414300A3A3A3A31244678A828B83A3A3123B6D09
:10415300E022AA82AB8312139D740322125279EEDA
:10416300240BF582EF12477A12446A2212446A90B2
:10417300032C221252B212477AE0FC7D0022C08245
:10418300C08312419B600624FC60078008121CE573
:104193008003121CDF0234008A828B83A3A3E0F81E
:1041A30012422424FB22C082C0838A828B83A3A36E
:1041B300A3A3A3A3A3A3E070528A828B83A3A3E048
:1041C300F81242206401604312421A6402603C12F6
:1041D300421A6403603512421A6404602E8A828B89
:1041E30083A3A3123B9B602312421A640A601C122E
:1041F300421A640B601512421A640C600E12421AC2
:10420300640D60077904121AC98009900322123BD6
:1042130054121E160234008A828B83A3A3124224F3
:1042230022123B74E02274F61203BE74FA12095A86
:10423300EAFEEBFF7403120B56EEF0A3EFF07403E8
:10424300120B56AA82AB83121CEB126E1F60030281
:10425300438D8518828519837432F07405120B56C9
:10426300C082C0838E828F83A3A3A3A3E0D083D015
:1042730082F8E028C0E07401120B56D0E01243E943
:10428300C0E07402120B56D0E01243C8F8A3E0F961
:10429300E8496026E82417F582E912269FC082C008
:1042A30083E82416F582E9126E25D083D082F8E0E4
:1042B30028F87401120B56E028F0851882851983BB
:1042C300AA82AB83120CFB8A088B09A808A909E808
:1042D3004970030243808E828F831243A8A3A3EA0B
:1042E300F0A3EB1243D5A3A3E0C0E0E82420F582BA
:1042F300E912269FD0E0125D79C0E0E82421F5821F
:10430300E912269FD0E01243E4C0E0E8242AF582B4
:10431300E912269FD0E0F07405120B56E0FA12431F
:1043230092126E252A124C60E8242BF582E912269C
:104333009F12452E7405120B56E0C0E0E8242DF5BC
:1043430082E912269FD0E01243C8FAA3E0FBEA4BAE
:104353006019E8242BFAE9122504A3A3A3A3A3A3BA
:10436300A3A3E024161243991243B08E828F83A332
:10437300A3A3A3A3A3A3A3E8F0A3E9800CEEFAEFFE
:10438300FB121CF11226997410F07406023474E8BF
:10439300240BF582E92212439D22FCA3E03400FDA5
:1043A3008C828D832212473F8882898322E0FC8A94
:1043B300828B83E02CFCA3E03400FD8A828B83ECA8
:1043C300F0A3EDF0221243CFA3A3E022124963A38B
:1043D300A322F0E8126033E912477A74011248CB42
:1043E300221243EFE0221243EFA3E022125910A35B
:1043F3002274F71203BEEAFEEBFF126E1F701E1249
:10440300442A1245696006123B4D121E16126E1F96
:10441300700B1256FF120CF5122699E9F0EEFAEF23
:10442300FB121CF1023F83121CFD8E828F83A3A318
:10443300A3A3A3A3A3A3A3A32274F61203BEEAFE1A
:10444300EBFF8C088D09121727E97004790180119D
:10445300AC08AD09EEFAEFFB900320123B54121E99
:1044630016023477124470E8F0A3E9F022E0F8A3CF
:10447300E0F985188285198322125D6AE022F8A388
:10448300E03400F92212448DE022E8F0A3E9124857
:10449300CFA3A3221264A8121AE122124500EEFA56
:1044A300EFFB2212473F120F83E922123B8AE022DD
:1044B30012342B1244BA22E08E828F83A322124736
:1044C3008BA3A3A3A322E508240BF582E509227C91
:1044D300087D007900851882851983AA82AB83122F
:1044E30013A98E828F8322E0850882850983A3A383
:1044F30022A3A3A3A3A3A3A3A312450022E0FCA387
:10450300E0FD221248CA12473F2274011248CBA38E
:10451300A3E0221244677404221213A9850882853A
:104523000983A3221214E78E828F83EAF0A3EBF0B0
:1045330022124538221248CFA3A31248C422C082B4
:10454300C08312455174D9F0A3741C0233FF121DAA
:1045530009900322228E828F83A3A3A3A3A3A3A3E1
:10456300A3A3A3124E30123DD7492274F71203BE00
:10457300E9FE12459B12269F1245696018888289BD
:1045830083A3E05403700EEEFB12439212269F1294
:1045930045CC1245C6023F83EA12552EEB22C08258
:1045A300C083EAF8EBF988828983A3A3A3A3A3E0DA
:1045B300FB88828983A3A3A3A31245CCA31245C678
:1045C300023400E0F91212D122E0FA88828983A32F
:1045D300A32274E81203BE8A088B098C168D1789EF
:1045E30014741A120B56E0F50AA3E0F50B741C12AF
:1045F3000B56E0F513741D120B56780C120AF912C0
:10460300621CEB126E25242DFA7B001213BB8A1059
:104613008B11AE10AF11EE4F70030247178E828FCE
:10462300837401F085081085091175120078101242
:1046330008DE7C157D00EE241812471A1208F58552
:10464300161085171178101208DE7C097D00EE2400
:104653000212471A1208F57418120B5612415F859D
:104663000A82850B83E0C0E0EE240F12269CD0E083
:1046730012474AC0E0EE241112269CD0E0124745AF
:10468300C0E0EE241012269CD0E0123740E513124E
:10469300476FE4F0A3F0124729780C120B17EE24AE
:1046A3001712269CE514123439F8A3E0F9EE240D11
:1046B30012269C124769126216126E256025EE249B
:1046C30026124C4C242DF8124761126050123F956C
:1046D3001208DE1262141241798A828B83124736E2
:1046E3001208F5EE2419126E225403601D9003186C
:1046F300124569600CEEFAEFFB123B57121E16804F
:1047030013EEFAEFFB1213C1800AEEFAEFFB9003EC
:10471300011248B302626AFAEF124720223400FB07
:1047230012139D740322EE241312477722E0242BE5
:1047330012391512473F12139D740322E0FAA3E0C6
:10474300FB22124758E02212474FE022124753221E
:10475300124758A322F0850A82850B83A322EF34E4
:1047630000F98A828B8312446AE50822F0EE24263C
:1047730012477722F582EF3400F58322F50CA3E08C
:10478300F50D750E00780C22123433A3A3A3227403
:10479300F11203BE8A088B097A20124861606D8E7C
:1047A300828F8374061248718E828F83A3A3A3A37F
:1047B3001234258E828F8312481212477F1208DE2D
:1047C3007C107D00EE240612471A1208F585088234
:1047D3008509831244F4EE2416FAEF3400FB120C1D
:1047E30095850882850983A3A3A3A3A3A3A3A3A356
:1047F300A3E0C0E0EE241E12269CD0E0124822C0A3
:10480300E0EE241F12269CD0E012482A0264C7A3BC
:10481300A3A3A3A312481B2212342FA3A3E022F0C5
:104823001244C912500522F0EEFAEFFB9004DAE0CD
:10483300F91213C72212477712483F22E8F0A3E97F
:1048430012484722F08508828509832212485322A1
:10485300123934F8A3E0F98E828F83A3A3227B005D
:104863001213BB8A0A8B0BAE0AAF0BEE4F22124810
:104873005312483FA3A3E02274F61203BEEAFEEBF1
:10488300FF7A057B001213BBEA4B601E8A828B837F
:10489300740A1248B98A828B83A3A31244888A823A
:1048A3008B83A3A3A3A3F01248B00234779004DA56
:1048B300E0F91213C7221248BD221248CF1248C48E
:1048C30022E0F8A3E0F922A31248CF22F08E828FD0
:1048D3008322C082C083E9900A96F0900314744542
:1048E300F0A3741DF0900316746FF0A3740BF09093
:1048F30003187481F0A3740B0233FF74F71203BE21
:10490300EAFEEBFF8908EE4F70031217B1900326FE
:104913001245697008900326802212527588828995
:1049230083A3A3A3A3A3A3A3A3A312495588828903
:1049330083A3A3A3A3A3A3A3A3A370DEEEF0A3EF78
:1049430012495BA3A3A3E4F0A312495BE508F002B9
:104953003F8312473FEA4B2212495F2212496322E7
:10496300125914A3A3A32274F71203BE9003268043
:104973000D8E828F83A3A3A3A3A3A3A3A3A3125EDA
:10498300DEEE4F60348E828F83A3A3A3A3A3A3A3DE
:10499300E06970DD8E828F83A3A3A3A3E06A700313
:1049A300A3E06B70CC8E828F83A3A3A3A3A3A3E006
:1049B3006C70BEEEFAEFFB80047A007B00023F834B
:1049C30074F71203BE900326125EDE900326122BA9
:1049D3005A687002EB697017124A291252759003D4
:1049E3002612416B900326125EDE8030125ED1EEFA
:1049F3004F60298E828F83A3A3A3A3A3122B566890
:104A03007002EB6970E68A828B83A3A3A3A3A3A39B
:104A1300A3A3A3124A36A3A3A312416B12143FEE1E
:104A2300FAEFFB023F83123B75A3A3A3A3A3A3A3A4
:104A3300A3A322124C75A3A32274F01203BE74FA2B
:104A430012095A8A088B098A828B83A3A3A3A3A37F
:104A5300A3A3A3E0600D640160098A828B831244DF
:104A6300A660057902024C47850882850983A3A3C2
:104A7300A3A3A3A3A3A3E0640370157404120B56AA
:104A8300AC82AD83AA08AB09121D6FE9701380D302
:104A93008508828509831252757404120B561241DC
:104AA3006B126038126E252432124C601214398A4C
:104AB3000A8B0BAE0AAF0BEE4F7003024C457C32F0
:104AC3007D0079001213A97402120B56AA82AB83DC
:104AD300850882850983A3A3A3A3A3A3A3A3A3E018
:104AE300F91213137402120B56E0C0E0EE242D12D8
:104AF300269CD0E0F0EE242CF50AEF3400F50B747D
:104B030003120B56E0850A82850B83F07901EEFAD6
:104B1300EFFB121D5785080C85090D750E00780CE7
:104B23001208DE7C1C7D00EE240B12471A1208F5D6
:104B3300EE2430124C4C243208081247612411F839
:104B4300E509126A12FCE9FD8C828D83123DCE24A5
:104B53002E12269C124769124FD31262221208DECC
:104B63008C828D831244FC8A828B8312473612080F
:104B7300F57404120B56124C7112416B900302121E
:104B83004C67F0900302E004125009242A125533B3
:104B9300750D00850A82850B83E0780C120A4C8A16
:104BA300828B83E50CF0EE242912269CE50C125D22
:104BB30066E4F0E5082415F582E509124C5A740100
:104BC3005007120B5674018004120B56E4F0EE24C6
:104BD30027123B37851882851983AA82AB83121269
:104BE300FBE924FE850882850983F0F50875090031
:104BF300EE242E12269C1244FCECF8EDF9AA08AB25
:104C030009120275E88E828F83A3A3A3A3A3A3A390
:104C1300A3F0ECF8EDF9AA08AB091202758B09EAC7
:104C23004509600F8E828F83A3A3A3A3A3A3A3A38A
:104C3300E004F0EE2420126E2244081255A57900F8
:104C4300800279107406023750126A10FAE9FBEEFB
:104C530022EE2415F582EF125005A2E022FAA3E01A
:104C63003400FB221244BAA3A3A3A3A3A322124C8E
:104C730075221248C48E828F83A3A3A3A32274F444
:104C83001203BEEAFEEBFF124527900ADDE0F8EEC1
:104C9300242B126E22C3984003024DF412554B701D
:104CA30015EE242B126E2204124E1DC0E0EE2429B1
:104CB30012269CD0E0F0EE2428126E22FC790080AC
:104CC3000109EE242C122CD7E9C39850267508014C
:104CD300750900E97808120A4C12554B550860E132
:104CE300E92CFC750801750900E97808120A4CE003
:104CF3004508F0EE2427124E0BEE242E12269CECD0
:104D03008A088AF0A4F8ABF0E42BF9E098F8A3E062
:104D130099F9C3E89508E99400EE40392427122C49
:104D2300D712554B6037EE242D12269C124E17A333
:104D3300E4F0EC7054EE2420126E224420123FC99A
:104D4300C0E0EE242612269CD0E0F0EE2430124E72
:104D53000BA3E08059242912269C74FFF090034A88
:104D6300E0FA900AE0E0F508EA8508F0A4ABF075F4
:104D7300F064A4FAADF075F064EBA42DFB8E828F82
:104D830083A3A3EAF0A3EB80A8EE2420126E22549F
:104D9300DF12476FECF08C08EE2427126E22850891
:104DA300F0A4FAABF0EE2430F582EF124E02FBEEE4
:104DB300241E12269CEAF0A3EB124E25C0E0EE243B
:104DC3002512269CD0E0F0EE241C12269CE8124EFD
:104DD3002B900328124569600BECF9123B57121E06
:104DE30016E97018EE240BFAEF3400FB121D9380C2
:104DF3000B7BE9EE2422F582EF124FDD02251E1212
:104E030050052AFAA3E03B22F582EF124E1222123A
:104E13005597FA221244BAA3F022F0EE242A125034
:104E2300022212495FA3E022F0A3E4F022E0240F60
:104E3300123B862274F41203BE900326125EDE1226
:104E430014E78A0A8B0B7CFF7DFF8020E0C398FA6E
:104E5300A3E099FBC3EA9CEB9D500E8E828F83A344
:104E6300A3E0C398FCA3E099FD125ED1EE4F605915
:104E7300125271E50AC398F8E50B99F98E828F8374
:104E8300125709C3E89AE99B8E828F83A3A340BC80
:104E9300A3A3A3A3E06402701DEE240B12554E607E
:104EA3000CEE241012269C12570B1213C1EEFAEFCC
:104EB300FB121D4B8007EEFAEFFB1214697A017B9C
:104EC30000900A961236CA801474FF6C700374FF44
:104ED3006D600A7A017B00900A9612341202251E35
:104EE30074F01203BE8A088B09ECFAEDFB890A7C85
:104EF3000112603812553D8A0C8B0DAE0CAF0DEECE
:104F03004F7003024FD0E50A6003024FD0E5081249
:104F13004FD3E0F8EE2428126E22686003024FD0CC
:104F2300EE242C124E0BE82AF8E43400F98E828F1B
:104F330083A3A3A3A3A3A3A3A3E0FAE89AE99400FA
:104F4300C365D033401412525C125551700C7B0070
:104F5300126031E509124FDD807312525C12555114
:104F63007031EE242C126E22F9EE242912269C7540
:104F730008FF750900E97808120A4CE508F0EE24E9
:104F83002A12269CE508124FFA29F0EE242B12363A
:104F9300BF8022E5082414F8E5093400F9E0C0E0F5
:104FA300EE242A12269CD0E0124FF5C0E0EE24290D
:104FB30012269CD0E0125009242D12269C123A2767
:104FC300A3124E2B7A01FB900A961236CA0237536C
:104FD3002413F582E50912477A22124E12EE2414A5
:104FE3001247771245C6EEFAEFFB121D4B22EAF089
:104FF300A3EB1240DBE022F0EE242812500222F54C
:1050030082EF12559722F012626FF0A3EBF0EE22BB
:1050130074E81203BE74FD12095AE98518828519D2
:1050230083F08A0A8B0B8C168D17741B120B561286
:105033005254741D120B56780C120AF98A828B8310
:10504300A3A3E0F91212EF8A128B13EA4513700738
:105053007A007B0002524F7A127B001214398A08BD
:105063008B09AE08AF09EE4F700302524B7C127DE1
:105073000079001213A97401120B56AA82AB83851F
:105083000A82850B83A3A3E0F9121313EE240FF511
:1050930008EF1261F47402120B56E0850882850949
:1050A30083F07902EEFAEFFB121D578516828517FE
:1050B30083124C71E8F0A3E91252A08E828F83A36E
:1050C300A3A3A3A3A3A3F07514FF751500850882FA
:1050D300850983E07814120A4C122699E514F085A9
:1050E3001282851383A3E0F8124220C0E0EE240B62
:1050F30012269CD0E01252AAF508EE240D12269C2B
:10510300E508F0125556E08508F0A42424FAE5F0EA
:105113003400FB1213BB8A088B09EE241012269C61
:1051230012452EEA450970030252408A828B83742A
:105133001A124E2B8A828B83A3A3F0A312529412CA
:10514300527D12416BAC16AD17EA2406FAEB34001C
:10515300FB12130D850A82850B83A3A3A3E0C0E092
:10516300E508240FF582E50912269FD0E0F09003AD
:1051730067125275E50824101252651252BAA3122F
:105183005275E508241212526512474AC0E01252C2
:105193005C12269FD0E0F0E50A12552EE50B126E45
:1051A30025C0E0E5082415F582E50912269FD0E025
:1051B30012528BC0E0E5082416F582E50912269FFA
:1051C300D0E0126E29E0C0E0E5082417F582E50976
:1051D30012269FD0E0126E29A3E0C0E0E508241850
:1051E300F582E50912269FD0E012447CC0E0E50871
:1051F3002419F582E50912269FD0E0F0E508241A68
:10520300F582E50912269F780C120B17E508242472
:10521300F8E5093400F9E5082422F582E50912418D
:1052230068E50A126033E50B126E25C0E0E5082439
:105233001FF582E50912269FD0E0F0800BEEFAEF0E
:10524300FB121D4B7E007F00EEFAEFFB740302623C
:1052530067E0F510A3E0F51122E5082414F582E5D3
:105263000922F582E50912477AE8F0A3E9228E8242
:105273008F83125279221248C422E0F8A3E0F98AFC
:10528300828B83A3A3A3A322F0851082851183E0DD
:105293002212529822124753A3A3A3A322F012600F
:1052A30040E50B12500522F01252B212500522E5CE
:1052B3000A12621DE50B22125298A3A3A32274E8DB
:1052C3001203BE8A0A8B0B8C108D11891474181269
:1052D3000B56E0F516A3E0F517741A120B56780C6B
:1052E300120AF9750900EA2413F582EB126E25F50B
:1052F300089003281245696011A908900328123BFE
:1053030054121E16E9600302552B7C028510828518
:10531300118312570B126040E50B12553D8A128B15
:1053230013AE12AF13EE4F704B850A82850B83A326
:10533300E0A2E0400302552B780C1208DA7816122B
:1053430008E2A914AC10AD11AA0AAB0B120B7574C9
:10535300061208F58A0C8B0DAE0CAF0DEE4F7003E1
:1053630002552B8E828F83A3A3A3A3A3A3A3A3E599
:10537300081255A585080C8E828F83A3A3A3A3A32C
:10538300A3A3A3E024FFF8E434FFF9E8650C70015C
:10539300E97003750901EE240B12554E7003025494
:1053A300DE850A82850B83A3E0A2E0500375080023
:1053B300125577E50C98E499C365D033401EE0F8A5
:1053C300EE240E126E2228F0750CFF750D00E8789E
:1053D3000C120A4CEE12552EEF125544126047E59B
:1053E3000B123F951208DE12417685080CEE240D50
:1053F300126E22850CF0A4F8A9F0EE2410126E228E
:105403002422123DF628FAA3E039FB12415912086F
:10541300F5750C01125562780C120A4C126E1F4579
:105423000CF0E509A2E05065EE240C125533125539
:105433006204780C120A4C8A828B83E0450C125565
:105443009D85080C850CF0A4F81252B2126E25FC4F
:10545300E82CFCE5F03400FDEE241012269C1255D6
:10546300701257A0F47026EE240BF50CEF3400F500
:105473000DEE241012269C12570B850C82850D838A
:105483001248B3850C82850D8374FF804D12452726
:1054930090034AE0FA900AE0E0F50CEA850CF0A4E8
:1054A300FAABF0F8EBF9900ADDE0F50CE8850CF0C7
:1054B300A4F8ACF0850CF0E9A42CF9EA28F8EB3950
:1054C300F9E875F064A4F8AAF075F064E9A42AF980
:1054D3008E828F83A3A3E8F0A3E9F0125577125EBF
:1054E300C8E8650C7001E9600EEE240C12554E609D
:1054F30006E509A2E05031EE240E126E22C0E0123E
:105503005556D0E0F0126E1FC0E0E50A2414F58270
:10551300E50B12269FD0E0F0AC0AAD0B8510828517
:10552300118312570B120BC302626A240CF58222F9
:10553300126A10FAE9FB750CFF22125648121D512C
:105543002212477AE50CF022EE2429F582EF12505D
:1055530005F422E50A2413F582E50B12477A227536
:105563000D0012558DF5F0E50884E5F022E02420C6
:105573001239152285080CEE240E125002F812552A
:105583008DFAE82AF8E43400F922EE240FF582EFCD
:10559300125597223400F583E022F0EE240D1250C9
:1055A3000222F07A017B00900A96E0F91213F122AD
:1055B300C082C083900A961248B302340074F41276
:1055C30003BE8A088B09EB5480703BEAA2E0504784
:1055D300120B69E5086401FAAB09803F8E828F8361
:1055E300E06401701A1247291207101224451208A9
:1055F300E2EE2412125631120B7B74061208F5EEFA
:10560300FAEFFB1213C1900A9612562170CEAA0824
:10561300E5096480FB80047A007B0002251EE0F923
:105623001213CD8A0A8B0BAE0AAF0BEE4F22F58213
:10563300EF125648EE2402FCEF3400FDEE2418FA74
:10564300EF3400FB22125597F92274F11203BE893D
:105653000A8A088B098A828B8312570B120B938B4E
:105663000DEA450D600479B8807F120B9F90233FAC
:10567300E493F8E9C398400479B2806D7A15125621
:10568300EF7004791080628E828F83E4F0A3125D41
:1056930059A3E50AF085080C85090D750E00780CF1
:1056A3001208DE7C127D00EE24030A0A0A12471B4D
:1056B3001208F590032A12456990032A7006EEF04A
:1056C300A3EF801FE0FAA3E08003E8FAE9FB8A82F4
:1056D3008B8312456970F3EEF8EFF98A828B83E8C6
:1056E300F0A3E9F0120BB179000264C77B00121436
:1056F300398A0C8B0DAE0CAF0DEE4F228E828F8349
:10570300A3A3A3A3A3A3A3A312473F22C082C0833F
:1057130090032A80048C828D8312575160298C82D6
:105723008D83A3A3E069600574FF6970E88C828DA3
:1057330083A3A3A3E06A7003A3E06B70D8EC2403F4
:10574300FAED3400FB80047A007B0002340012453A
:1057530000EC4D2274F71203BEE9FC74FE6C700476
:105763007D0180027D0090032A80096C70027D0117
:1057730088828983124569601F88828983A3A3A3D2
:10578300E06A7003A3E06B70E7EDA2E0888289838F
:10579300A3A3E050D6F9800279FE023F83ECF0A385
:1057A300EDF08A828B83E022C082C083790090036C
:1057B3002A80010912570B8A828B83E58245837005
:1057C300F202340074F61203BEE4F508F509780812
:1057D3001208E290233FE49375F013A42402FCE53E
:1057E300F012590012148D74021208F5E9FE6003D9
:1057F300120BABEEF902347774F61203BE74FE1289
:10580300095A851882851983E4F0A3125D6685829F
:105813000885830978081208E2750802750900787B
:10582300081208E21263261208F502347274F512A4
:1058330003BE74EB12095A851882851983E4F0A319
:10584300F090032AE0FEA3E0807D8E828F83A3A3E2
:10585300E0C0E07402120B56D0E0125908A982AAE4
:105863008389088A09750A0078081208DE7C127D8C
:10587300007406120B561241551208F57402120BEE
:105883005685820885830978081208E2750813751E
:10589300090078081208E27404120B56123DD375FE
:1058A300F013A4F8AAF075F013E91258F812632E56
:1058B3001208F5851882851983E02401F0A3E034EA
:1058C300001248B9E8FEE9FFEE4F600302584D8528
:1058D300188285198385820885830978081208E26E
:1058E30075080275090078081208E2126326120887
:1058F300F574158027A42AF9E82402FCE93400FD95
:105903007A427B002212590C221259102212591486
:1059130022F08E828F83A3A3A322740D1208F57F36
:105923000302068B74F41203BE74EB12095A7E0051
:105933007F00851882851983858208858309780805
:105943001208E27508028E0978081208E27C007DCD
:10595300007A421264061208F5E970748E08805EBC
:105963007402120B5685820A85830B780A1208E2A9
:10597300750A13750B00780A1208E2E50875F0132F
:10598300A4F8AAF075F013E5091258F81264081286
:1059930008F5E9701E7403120B56AA82AB837402D6
:1059A300120B56E0F9120B8DE97008EE24010EEF8D
:1059B3003400FFE5082401F508E5091261F48518B0
:1059C30082851983125275C3E50898E509994090B9
:1059D300EEFAEFFB741502251B74F61203BE8C82DC
:1059E3008D83A3A3125BDAF0EA2417F582EB126E20
:1059F30025C0E0EC12621DED12269FD0E0F0EA24F0
:105A03001DF582EB12269F125275EC126809ED12F6
:105A1300269F125BDAA3F0A3F0126808EB12269F0D
:105A2300125BCCA3A3A3A3A3A3EEF0A3EF124FF5A2
:105A3300FE8C828D83125BF974035EFEC394034074
:105A43000FEC240D123F6BEC2410123F6B025BB47E
:105A5300EE600574026E70748C828D83E0540CFECC
:105A6300740C6E7003025B51E0A2E4400D888289DE
:105A730083E08C828D83A3125C2374086E6003021F
:105A83005B51EC12552EED123BC0F08A828B83A33F
:105A9300A3A3125D2470148C828D83E0440C125BEB
:105AA300E8A3A3125BCCEEF0A3EFF08C828D83E02E
:105AB300A2E44018125BB7125C06125BC0A3A312E8
:105AC3005C068C828D83A3A3A3125BF988828983EE
:105AD300E0C0E0EC126042ED12269FD0E0125BF9C9
:105AE3008C828D83E0A2E7507C88828983E0FE8CE0
:105AF300828D83125C2374FC5E6003025A448C82A1
:105B03008D83A3E0540364037003025A448C828D93
:105B130083A3E05403605188828983E0C0E0EC24CE
:105B230013F582ED12269FD0E0125C248C828D83C4
:105B3300E054036402703188828983E0C0E0EC247E
